:020000040000FA
:0600000013EF14F01200E2
:06002A0001008C2800001B
:080030008A000000020000003C
:08003800D9CFE6FFE1CFD9FFAB
:10004000050EE126FC0EDB50DF6E010EE66EE66A61
:10005000D9CFE6FFDACFE6FFE66E91DB146E050E30
:10006000E15E1450FB0EDB50DF6E010EE66EE66AB9
:10007000D9CFE6FFDACFE6FF020EE66E80DB146E24
:10008000050EE15E1450FA0EDB50DF6E010EE66ED7
:10009000E66AD9CFE6FFDACFE6FF030EE66E6FDB46
:1000A000146E050EE15E1450F90EDB50DF6E010E8A
:1000B000E66EE66AD9CFE6FFDACFE6FF040EE66E1B
:1000C0005EDB146E050EE15E1450F80EDB50DF6E41
:1000D000010EE66EE66AD9CFE6FFDACFE6FF050E3F
:1000E000E66E4DDB146E050EE15E1450F70EDB502C
:1000F000DF6E010EE66EE66AD9CFE6FFDACFE6FFE5
:10010000060EE66E3CDB146E050EE15E1450D9500F
:10011000F50FE96EFF0EDA20EA6EEE50ED1011E0F9
:10012000E66A050EE66EE66AF50EDBCFE6FFF60E32
:10013000DBCFE6FFD0EC04F0146E050EE15E145048
:1001400020D0E70EDF6EDE52DD6EF36E020EF3CFCF
:10015000DBFFE70EF36E030EF3CFDBFFE70EF36E6C
:10016000040EF3CFDBFFE66A050EE66EE66AD9CF32
:10017000E6FFDACFE6FFD0EC04F0146E050EE15E88
:100180001450D950F30FE96EFF0EDA20EA6EEE50EC
:10019000ED1012E0010EE66E050EE66EE66AF30E55
:1001A000DBCFE6FFF40EDBCFE6FFD0EC04F0146EFD
:1001B000050EE15E145020D0C20EDF6EDE52DD6E01
:1001C000F36E020EF3CFDBFFC20EF36E030EF3CF1E
:1001D000DBFFC20EF36E040EF3CFDBFF010EE66E03
:1001E000050EE66EE66AD9CFE6FFDACFE6FFD8DB8A
:1001F000146E050EE15E1450F20EDB50DF6E020E3F
:10020000E66E010EE66EE66AD9CFE6FFDACFE6FFCC
:10021000C7DB146E050EE15E1450F10EDB50DF6E8D
:10022000030EE66E010EE66EE66AD9CFE6FFDACF80
:10023000E6FFB6DB146E050EE15E1450F00EDB50E7
:10024000DF6E040EE66E010EE66EE66AD9CFE6FFBB
:10025000DACFE6FFA5DB146E050EE15E1450EF0E5B
:10026000DB50DF6E050EE66E010EE66EE66AD9CF54
:10027000E6FFDACFE6FF94DB146E050EE15E145064
:10028000D950ED0FE96EFF0EDA20EA6EEE50ED1058
:100290000FE0050EE66EE66AED0EDBCFE6FFEE0E32
:1002A000DBCFE6FF62DBE552E552E552E5521ED0B8
:1002B000E70EDF6EDE52DD6EF36E020EF3CFDBFF74
:1002C000E70EF36E030EF3CFDBFFE70EF36E040EC3
:1002D000F3CFDBFF050EE66EE66AD9CFE6FFDACF95
:1002E000E6FF43DBE552E552E552E552EC0EDB500A
:1002F000DF6E010EE66EE66AD9CFE6FFDACFE6FFE3
:10030000110EE66E3CDA146E050EE15E1450EB0E33
:10031000DB50DF6E010EE66EE66AD9CFE6FFDACF7C
:10032000E6FF120EE66E2BDA146E050EE15E145037
:10033000EA0EDB50DF6E010EE66EE66AD9CFE6FF0D
:10034000DACFE6FF130EE66E1ADA146E050EE15EE2
:100350001450E90EDB50DF6E010EE66EE66AD9CF6F
:10036000E6FFDACFE6FF140EE66E09DA146E050E2C
:10037000E15E1450E80EDB50DF6E010EE66EE66AB9
:10038000D9CFE6FFDACFE6FF150EE66EF8D9146E88
:10039000050EE15E1450E70EDB50DF6E010EE66ED7
:1003A000E66AD9CFE6FFDACFE6FF160EE66EE7D9AA
:1003B000146E050EE15E1450FE0EDBA20AD0FE0E96
:1003C000DBCFE6FFFD0EDBCFE6FFC3D8E552E552FB
:1003D00005D0FE0EDBCFE6FF1DD9E552050EE15C30
:1003E00002E2E16AE552E16EE552E7CFD9FF120081
:1003F000D9CFE6FFE1CFD9FF020EE1260A0EDF6E6C
:10040000FC0EDB5004E0DE52010EDD6E02D0010E68
:10041000DB6AFE0EDB0403E1010EDF10DF6EE66A2D
:10042000E66AE66AE66AE66AFD0EDBCFE6FF000EE4
:10043000E66EE66AC60EE66EC50EE66EC40EE66EA3
:10044000C30EE66E000EE66EE66AE66EE66A0F0E14
:10045000E66E020EE66E030EE66EE66EE66E010EC8
:10046000DBCFE6FFE66EDFCFE6FFE6DD146E180EAB
:10047000E15E1450020EE15C02E2E16AE552E16ED7
:10048000E552E7CFD9FF1200D9CFE6FFE1CFD9FF80
:10049000E652080EDF6EFE0EDB5002E0000EDF803B
:1004A000010EE66EE66AD950FD0FE66EFF0EDA2009
:1004B000E66E110EE66E63D9146E050EE15E145001
:1004C000DFCFE6FF010EE66E44D8E552E552E55275
:1004D000E552E7CFD9FF1200D9CFE6FFE1CFD9FF30
:1004E000E652010EE66EE66AD9CFE6FFDACFE6FF06
:1004F000E66A66D9146E050EE15E1450DFB224D0B0
:10050000DF82010EE66EE66AD9CFE6FFDACFE6FFBC
:10051000E66A35D9146E050EE15E1450DC0EE66E07
:10052000050EE66EE66AE66AF5EC10F0E552E55275
:10053000E552E552DFB002D000DA06D0FE0EDB5005
:1005400002E0FDD901D0F9D9E552E552E7CFD9FF54
:100550001200D9CFE6FFE1CFD9FF020EE126FD0E52
:10056000DB82010EE66EE66AD950FD0FE66EFF0EE5
:10057000DA20E66EE66A03D9146E050EE15E1450C9
:10058000DC0EE66E050EE66EE66AE66AF5EC10F045
:10059000E552E552E552E552FD0EDBB002D0CDD971
:1005A00006D0FE0EDB5002E0CAD901D0C6D9020E39
:1005B000E15C02E2E16AE552E16EE552E7CFD9FF84
:1005C0001200D9CFE6FFE1CFD9FFE652010EE66E69
:1005D000E66AD9CFE6FFDACFE6FFE66AF1D8146E15
:1005E000050EE15E1450DFA210D0000EDF92010E66
:1005F000E66EE66AD9CFE6FFDACFE6FFE66ABFD855
:10060000146E050EE15E145098D9E552E552E7CF1D
:10061000D9FF1200D9CFE6FFE1CFD9FFFE0EDB9262
:10062000010EE66EE66AD950FE0FE66EFF0EDA2086
:10063000E66EE66AA4D8146E050EE15E14507DD90C
:10064000E552E7CFD9FF1200D9CFE6FFE1CFD9FFBE
:10065000020EE126010EE66EE66AD9CFE6FFDACF9A
:10066000E6FFE66AADD8146E050EE15E1450E76E43
:10067000010EE7CFDBFFDFB015D0000EDF80010EEB
:10068000E66EE66AD9CFE6FFDACFE6FFE66A77D80C
:10069000146E050EE15E1450FE0EDB5002E04FD9E1
:1006A00001D04BD9020EE15C02E2E16AE552E16E53
:1006B000E552E7CFD9FF1200D9CFE6FFE1CFD9FF4E
:1006C000FD0EDB80FD0EDBA20AD0FD0EDBCFE6FFC8
:1006D000FE0EDBCFE6FF3DDFE552E55205D0FD0E15
:1006E000DBCFE6FF97DFE552E552E7CFD9FF1200F7
:1006F0009FEF04F09DEF04F0D9CFE6FFE1CFD9FFE3
:10070000E652010EE66EE66AD9CFE6FFDACFE6FFE3
:10071000E66A56D8146E050EE15E1450DFA010D0C4
:10072000000EDF90010EE66EE66AD9CFE6FFDACF63
:10073000E6FFE66A24D8146E050EE15E1450FDD87B
:10074000E552E552E7CFD9FF1200D9CFE6FFE1CF5E
:10075000D9FFFE0EDB90FE0EDBA208D0FE0EDBCF33
:10076000E6FFE66AF6DEE552E55205D0FE0EDBCF87
:10077000E6FF50DFE552E552E7CFD9FF1200D9CFAF
:10078000E6FFE1CFD9FFE66AFA0EDBCFE6FFFB0E0C
:10079000DBCFE6FFFC0EDBCFE6FFFD0EDBCFE6FF97
:1007A000FE0EDB501F0B2009E66E7EEC09F0146E86
:1007B000060EE15E145000D0E552E7CFD9FF1200DB
:1007C000D9CFE6FFE1CFD9FF010EE66EFA0EDBCFFF
:1007D000E6FFFB0EDBCFE6FFFC0EDBCFE6FFFD0EF8
:1007E000DBCFE6FFFE0EDB501F0BE66E7EEC09F062
:1007F000146E060EE15E145000D0E552E7CFD9FF2B
:100800001200D9CFE6FFE1CFD9FFE652E66AFB0E30
:10081000DBCFE6FFFC0EDBCFE6FFFD0EDBCFE6FF16
:10082000FE0EDBCFE6FFA00EE66E7EEC09F0146E46
:10083000060EE15E1450DF6EFA0EDB0401E16FD8A4
:10084000DF5000D0E552E552E7CFD9FF1200D9CFF3
:10085000E6FFE1CFD9FFE65270D8010EE66EFB0E3F
:10086000DBCFE6FFFC0EDBCFE6FFFD0EDBCFE6FFC6
:10087000FE0EDBCFE6FF610EE66E7EEC09F0146E35
:10088000060EE15E1450DF6E5AD8DF5000D0E552FC
:10089000E552E7CFD9FF1200010EE66E000EE66EBC
:1008A000E66AE66EE66AE10EE66E7EEC09F0146E2C
:1008B000060EE15E145000D01200010EE66E000E2E
:1008C000E66EE66AE66EE66AE20EE66E7EEC09F039
:1008D000146E060EE15E145000D01200010EE66E9A
:1008E000000EE66EE66AE66EE66AE30EE66E7EEC03
:1008F00009F0146E060EE15E145000D01200010ED5
:10090000E66E000EE66EE66AE66EE66AE6687EEC85
:1009100009F0146E060EE15E145000D012000FD8DC
:100920000A0EE66EE66AE66AE66AF5EC10F0E55253
:10093000E552E552E5529DEF04F082921200828268
:10094000120082A203D0010E03D002D0000E00D00C
:100950001200829412008284120082A403D0010E3D
:1009600003D002D0000E00D01200D9CFE6FFE1CFB5
:10097000D9FFFB0EDBCFE6FFFC0EDBCFE6FFFD0E63
:10098000DBCFE6FFFE0EDBCFE6FF100EE66EF7DEF6
:10099000146E050EE15E1450E552E7CFD9FF120048
:1009A000D9CFE6FFE1CFD9FFFA0EDB50050801E20F
:1009B00015D0FB0EDBCFE6FFFC0EDBCFE6FFFD0E16
:1009C000DBCFE6FFFE0EDBCFE6FFFA0EDB500A0FB1
:1009D000E66ED5DE146E050EE15E1450E552E7CFEB
:1009E000D9FF1200D9CFE6FFE1CFD9FFFD0EDB50D2
:1009F000050804E3FE0EDB50200801E212D0010ED0
:100A0000E66EE66AD950FE0FE66EFF0EDA20E66E5D
:100A1000FD0EDB50110FE66EB2DE146E050EE15EC8
:100A20001450E552E7CFD9FF1200D9CFE6FFE1CF4E
:100A3000D9FFE652FE0EDB50050802E2000E12D08E
:100A4000010EE66EE66AD9CFE6FFDACFE6FFFE0ECC
:100A5000DB50110FE66EB4DE146E050EE15E14502D
:100A6000DF5000D0E552E552E7CFD9FF1200D9CFD1
:100A7000E6FFE1CFD9FFE652010EE66EE66AD9CF76
:100A8000E6FFDACFE6FFE66A9BDE146E050EE15E56
:100A90001450DF5000D0E552E552E7CFD9FF1200E5
:100AA000D9CFE6FFE1CFD9FF010EE66EE66AD95055
:100AB000FE0FE66EFF0EDA20E66EE66A60DE146E6A
:100AC000050EE15E1450E552E7CFD9FF1200D9CFF1
:100AD000E6FFE1CFD9FFE652010EE66EE66AD9CF16
:100AE000E6FFDACFE6FF050EE66E6ADE146E050E4F
:100AF000E15E1450DF5000D0E552E552E7CFD9FF58
:100B00001200D9CFE6FFE1CFD9FFE652FE0EDB504F
:100B10007F0BDF6E010EE66EE66AD9CFE6FFDACF15
:100B2000E6FF050EE66E2BDE146E050EE15E145038
:100B3000E552E552E7CFD9FF1200D9CFE6FFE1CF6A
:100B4000D9FFE652010EE66EE66AD9CFE6FFDACFAC
:100B5000E6FF080EE66E34DE146E050EE15E1450FC
:100B6000DF5000D0E552E552E7CFD9FF1200D9CFD0
:100B7000E6FFE1CFD9FFE652010EE66EE66AD9CF75
:100B8000E6FFDACFE6FF080EE66E1ADE146E050EFB
:100B9000E15E1450F00EDF14E8380F0B00D0E55280
:100BA000E552E7CFD9FF1200D9CFE6FFE1CFD9FF59
:100BB000E652010EE66EE66AD9CFE6FFDACFE6FF2F
:100BC000050EE66EFDDD146E050EE15E1450010E9D
:100BD000E66EE66AD9CFE6FFDACFE6FF050EE66EEF
:100BE000CEDD146E050EE15E1450E552E552E7CFFE
:100BF000D9FF1200D9CFE6FFE1CFD9FF010EE66E93
:100C0000E66AD950FE0FE66EFF0EDA20E66E050E9C
:100C1000E66EB5DD146E050EE15E1450E552E7CFC9
:100C2000D9FF1200D9CFE6FFE1CFD9FFE652010E7E
:100C3000E66EE66AD9CFE6FFDACFE6FF080EE66E8B
:100C4000BFDD146E050EE15E14500F0EDF1400D0F0
:100C5000E552E552E7CFD9FF1200D9CFE6FFE1CF49
:100C6000D9FFE652FE0EDB50050802E2000E19D055
:100C7000010EE66EE66AD9CFE6FFDACFE6FFE66E52
:100C80009FDD146E050EE15E1450010EF36EFE0E34
:100C9000DB5004E0D890F336E806FCE1F350DF14B3
:100CA00000D0E552E552E7CFD9FF1200D9CFE6FFD9
:100CB000E1CFD9FFE652FE0EDB50050801E232D04B
:100CC000010EE66EE66AD9CFE6FFDACFE6FFE66E02
:100CD00077DD146E050EE15E1450010EF36EFE0E0C
:100CE000DB5004E0D890F336E806FCE1F350DF1463
:100CF00001E018D0010EF36EFE0EDB5004E0D89038
:100D0000F336E806FCE1F350DF12010EE66EE66A08
:100D1000D9CFE6FFDACFE6FFE66E31DD146E050EC1
:100D2000E15E1450E552E552E7CFD9FF1200D9CF6A
:100D3000E6FFE1CFD9FFE652FE0EDB50050801E2E7
:100D400033D0010EE66EE66AD9CFE6FFDACFE6FFD2
:100D5000E66E36DD146E050EE15E1450010EF36E84
:100D6000FE0EDB5004E0D890F336E806FCE1F350C9
:100D7000DF1401E119D0010EF36EFE0EDB5004E02A
:100D8000D890F336E806FCE1F350E81CDF16010EBC
:100D9000E66EE66AD9CFE6FFDACFE6FFE66EEFDC75
:100DA000146E050EE15E1450E552E552E7CFD9FF0F
:100DB0001200D9CFE6FFE1CFD9FFE652FE0EDB509D
:100DC000050802E2000E1AD0010EE66EE66AD9CFDF
:100DD000E6FFDACFE6FF020EE66EF2DC146E050ED9
:100DE000E15E1450010EF36EFE0EDB5004E0D8906D
:100DF000F336E806FCE1F350DF1400D0E552E5528B
:100E0000E7CFD9FF1200D9CFE6FFE1CFD9FFE652F5
:100E1000FE0EDB50050801E234D0010EE66EE66AF4
:100E2000D9CFE6FFDACFE6FF020EE66EC9DC146E1C
:100E3000050EE15E1450010EF36EFE0EDB5004E071
:100E4000D890F336E806FCE1F350DF1401E019D046
:100E5000010EF36EFE0EDB5004E0D890F336E80688
:100E6000FCE1F350DF12010EE66EE66AD9CFE6FF31
:100E7000DACFE6FF020EE66E82DC146E050EE15E4E
:100E80001450E552E552E7CFD9FF1200D9CFE6FF63
:100E9000E1CFD9FFE652FE0EDB50050801E235D066
:100EA000010EE66EE66AD9CFE6FFDACFE6FF020E64
:100EB000E66E86DC146E050EE15E1450010EF36ED4
:100EC000FE0EDB5004E0D890F336E806FCE1F35068
:100ED000DF1401E11AD0010EF36EFE0EDB5004E0C8
:100EE000D890F336E806FCE1F350E81CDF16010E5B
:100EF000E66EE66AD9CFE6FFDACFE6FF020EE66ECF
:100F00003EDC146E050EE15E1450E552E552E7CF6B
:100F1000D9FF1200D9CFE6FFE1CFD9FFE652010E8B
:100F2000E66EE66AD9CFE6FFDACFE6FF090EE66E97
:100F300047DC146E050EE15E1450DF5000D0E55220
:100F4000E552E7CFD9FF1200D9CFE6FFE1CFD9FFB5
:100F5000E652010EE66EE66AD9CFE6FFDACFE6FF8B
:100F6000170EE66E2DDC146E050EE15E1450DF5098
:100F700000D0E552E552E7CFD9FF1200C0DC00D027
:100F80001200D9CFE6FFE1CFD9FFE652010EE66E9F
:100F9000E66AD9CFE6FFDACFE6FF170EE66E10DC81
:100FA000146E050EE15E1450400EDF1400D0E552C1
:100FB000E552E7CFD9FF1200D9CFE6FFE1CFD9FF45
:100FC000E652010EE66EE66AD9CFE6FFDACFE6FF1B
:100FD000170EE66EE0EC03F0146E050EE15E1450A1
:100FE000200EDF1400D0E552E552E7CFD9FF120002
:100FF000D9CFE6FFE1CFD9FFE652010EE66EE66AF1
:10100000D9CFE6FFDACFE6FF170EE66EE0EC03F08D
:10101000146E050EE15E1450100EDF1400D0E55280
:10102000E552E7CFD9FF1200D9CFE6FFE1CFD9FFD4
:10103000E652010EE66EE66AD9CFE6FFDACFE6FFAA
:10104000170EE66EE0EC03F0146E050EE15E145030
:10105000020EDF1400D0E552E552E7CFD9FF1200AF
:10106000D9CFE6FFE1CFD9FFE652010EE66EE66A80
:10107000D9CFE6FFDACFE6FF170EE66EE0EC03F01D
:10108000146E050EE15E1450010EDF1400D0E5521F
:10109000E552E7CFD9FF120081A003D0000E03D0A4
:1010A00002D0010E00D0120069DF400B00D0120008
:1010B00065DF200B00D0120061DF100B00D01200A2
:1010C000D9CFE6FFE1CFD9FFE652700EDF6E010EF9
:1010D000E66EE66AD9CFE6FFDACFE6FF070EE66EE8
:1010E000BFEC03F0146E050EE15E1450E552E552BC
:1010F000E7CFD9FF1200D9CFE6FFE1CFD9FFE65203
:10110000400EDF6E010EE66EE66AD9CFE6FFDACF5B
:10111000E6FF070EE66EBFEC03F0146E050EE15E0F
:101120001450E552E552E7CFD9FF1200D9CFE6FFC0
:10113000E1CFD9FFE652200EDF6E010EE66EE66AC1
:10114000D9CFE6FFDACFE6FF070EE66EBFEC03F07D
:10115000146E050EE15E1450E552E552E7CFD9FF5B
:101160001200D9CFE6FFE1CFD9FFE652100EDF6EB5
:10117000010EE66EE66AD9CFE6FFDACFE6FF070E8C
:10118000E66EBFEC03F0146E050EE15E1450E552FE
:10119000E552E7CFD9FF1200F1DEE66E03D8E55243
:1011A00000D01200D9CFE6FFE1CFD9FFFE0EDB5011
:1011B0000E0BE8407F0B00D0E552E7CFD9FF1200BD
:1011C0005DEC04F04CEC04F060EF08F0D9CFE6FFE2
:1011D000E1CFD9FF0B0EE126040EDB6A050EDB6AB8
:1011E000DE6ADD6AD9CFE9FFDACFEAFF170ED880D1
:1011F000EE54000EED5401E277D0050EE66EE66A7D
:10120000D950060FE66E000EDA20E66EDFCFE6FF5D
:10121000E0EC03F0146E050EE15E1450020EDB6A82
:10122000030EDB6A020EDBCF14F0030EDBCF15F0EA
:10123000050E145C000E155852E2020EDBCF14F0BE
:10124000030EDBCF15F0010E145C000E15581CE3E5
:10125000D9CFE9FFDACFEAFF0A0EEE1801E1ED502F
:1012600013E0D9CFE9FFDACFEAFF0B0EEE1801E168
:10127000ED500AE0D9CFE9FFDACFEAFF100EEE1801
:1012800001E1ED5001E02BD0D950060F166EDACFF8
:1012900017F0020EDB501624E96E030EDB50172008
:1012A000EA6EEF50E66E040EDBCF14F0050EDBCFD6
:1012B00015F0FD0EDB501424E96EFE0EDB501520F8
:1012C000EA6EE552E750EF6E040EDB2A050E01E3ED
:1012D000DB2A020EDB2A030E01E3DB2AA3D7DF2A77
:1012E000010E01E3DB2A7ED70B0EE15C02E2E16A2C
:1012F000E552E16EE552E7CFD9FF1200D9CFE6FF04
:10130000E1CFD9FFE652A9EC04F0FE0EDB50DF6E10
:10131000010EE66EE66EE66AD9CFE6FFDACFE6FFAB
:1013200021D8146E050EE15E1450F90EDBCFE6FFF6
:10133000FA0EDBCFE6FFFB0EDBCFE6FFFC0EDBCFCA
:10134000E6FFFD0EDBCFE6FF0DD8146E050EE15E65
:101350001450ABEC04F0DF5000D0E552E552E7CF7B
:10136000D9FF1200D9CFE6FFE1CFD9FF030EE12666
:10137000DE6ADD6ADECF14F0DDCF15F0FB0EDBCFC9
:1013800016F0FC0EDBCF17F01650145C17501558F2
:101390003EE2FA0EDB5022E0FD0EDBCF16F0FE0E31
:1013A000DBCF17F0DE501624E96EDD501720EA6E11
:1013B000EF50E66E04EC14F0E552E66EFD0EDBCF66
:1013C00014F0FE0EDBCF15F0DE501424E96EDD5074
:1013D0001520EA6EE552E750EF6E14D0FD0EDBCF1C
:1013E00014F0FE0EDBCF15F0DE501424E96EDD5054
:1013F0001520EA6E020EEFCFDBFFDBCFE6FF04EC39
:1014000014F0E552DF2A010E01E3DB2AB3D7030E05
:10141000E15C02E2E16AE552E16EE552E7CFD9FF15
:021420001200B8
:0E1422004DEC0FF0FB0EDBCFF3FFDB06F350BB
:1014300000090AE09BEC0FF0FA0E06EC10F0F3E165
:10144000151CF1E1010E01D0000E7CEF0FF04DEC08
:101450000FF03B0EE12402E3E168E652E16E010E7B
:10146000DB6A020EDB6AF90EDBCFF6FFFA0EDBCF8A
:10147000F7FFFB0EDBCFF8FF0800F550DF6EDF5003
:1014800002E1A0EF0EF0250EDF5C02E093EF0EF01C
:10149000030EDB6A040EDB6A050EDB6A060EDB6AEE
:1014A000070EDB6AB5EC0EF02D0EDF5C0CE02B0EA8
:1014B000DF5C09E0200EDF5C06E0230EDF5C03E06A
:1014C000300EDF5C1AE1DF50300A14E0130A0FE03F
:1014D000030A0AE00B0A05E0060AE4E1030EDB80DA
:1014E000E1D7030EDB82DED7030EDB84DBD7030EEE
:1014F000DB86D8D7030EDB88D5D72A0EDF5C1BE14D
:10150000B1EC0EF0FFEC0EF010E0030EDB8008688B
:101510000968130EDBCF0DF0140EDBCF0EF06BEC71
:1015200013F0040E06C0DBFF03D0130EE8EC0EF040
:10153000B5EC0EF00BD0090EDB6A56EC0FF003E0B1
:10154000CAEC0FF0FAD7090EE8EC0EF0030EDBB090
:10155000DB982E0EDF5C1BE1B5EC0EF02A0EDF5C93
:101560000BE1B1EC0EF0FFEC0EF003E1130E3AECE0
:101570000FF0B5EC0EF00BD0090EDB6A56EC0FF055
:1015800003E0CAEC0FF0FAD7090E3AEC0FF0680E40
:10159000DF5C07E1B5EC0EF0680EDF5C1DE1030EC9
:1015A00018D0740EDF5C17E07A0EDF5C14E0480E92
:1015B000DF5C06E0540EDF5C03E05A0EDF5C02E104
:1015C000020E07D06C0EDF5C03E06A0EDF5C04E104
:1015D000010E8DEC0FF0C9DBDF506E0A01E17FD305
:1015E0001E0A01E192D1200A01E18FD13F0A01E1F7
:1015F00049D11A0A01E146D10D0A01E143D1200A7D
:1016000001E140D13A0A01E13DD1200A01E13AD19C
:10161000260A01E135D10D0A01E132D11A0A01E1B0
:10162000D9D0200A4AE0300A1FE0460A0EE0250A17
:1016300001E083D3D950F90FE96EFF0EDA20EA6E8C
:10164000010EEE5E000EEE5AEE5A9BEC0FF0250EE8
:10165000E66E95DB03E1151C01E169D397EC0FF011
:1016600001E26BD3DB2A69D3080EDB6A040EDB5080
:10167000010806E2040EDB045FEC0FF0DB508BDBAD
:10168000080EDB5009E0030EDB50010B05E172DBB5
:1016900001E04DD3080EDB6A64DBEFCFDFFF0FEC18
:1016A00010F003E1151C01E142D397EC0FF001E3C8
:1016B000DB2A60DB01E141D33AD3070EDB5002089D
:1016C0000FE1DBEC0FF0030EA2EC0FF00E0EEECFED
:1016D000DBFF0F0EEECFDBFF100EEECFDBFF20D0D7
:1016E000F70EDBCF17F0F80EDBCF18F0020E175E07
:1016F000000E185AF70E17C0DBFFF80E18C0DBFFFC
:1017000017C0E9FF18C0EAFF92EC0FF0166A0E0E40
:1017100014C0DBFF0F0E15C0DBFF100E16C0DBFF81
:101720000E0EDBCFE6FF0F0EDBCFE6FF100EDBCF9A
:10173000E6FFE1EC12F0E552E552E552130E07C068
:10174000DBFF140E08C0DBFF060EDB5005E0130EB6
:10175000D6EC0FF001E26ADBFAEC0FF002E2130EB6
:1017600037DBBDEC0FF006E0040ED6EC0FF002E222
:10177000050E2EDB030EDBB005D0FCDA01E0D7D27C
:10178000080EDB6A090EDB6A0E0EDBCFF6FF0F0ECA
:10179000DBCFF7FF100EDBCFF8FF0800F550DF6E50
:1017A000DF5014E000EC10F011E20FEC10F003E158
:1017B000151C01E1BCD2BBDB01E3DB2A090EDB2AED
:1017C000D9500E0FE96E000ECBDBE7D7D3DA01E17B
:1017D000B4D2ADD2C6DA110EEECFDBFF120EEDCFD2
:1017E000DBFF110EDBCFE6FF120EDBCFE6FFD3EC03
:1017F00012F0E552E552130EF3CFDBFF140EF4CFD7
:10180000DBFF060EDB5004E0130ED0DB01E20EDB43
:10181000FAEC0FF002E2130EDBDAAFDB05E0040EA8
:10182000C5DB02E2050ED4DA030EDBB005D0A2DA86
:1018300001E07DD2080EDB6A090EDB6A110EDBCFF8
:10184000E9FF120EDBCFEAFFEFCFDFFFDF5014E03E
:10185000D7DB12E2E4DB03E1151C01E168D267DBB0
:1018600001E3DB2A090EDB2A110EDB2ADBCFE9FFBD
:10187000120EE8E3DB2AE6D77DDA01E15ED257D229
:10188000030EDB8E070EDB0410E195DB040E5ADB42
:101890000A0EEECFDBFF0B0EEECFDBFF0C0EEECF12
:1018A000DBFF0D0EEECFDBFF6CD0070EDB50030825
:1018B0002CE1030EDBAE0DD0B2DA020E76DAEFCFFA
:1018C00014F0156A166A176A14AE39D015681668CE
:1018D00035D0F70EDBCF15F0F80EDBCF16F0020E89
:1018E000155E000E165AF70E15C0DBFFF80E16C077
:1018F000DBFF15C0E9FF16C0EAFFEFCF14F00A0EB8
:1019000014C0DBFF0B0EDB6A38D0070EDB50020879
:1019100009E1030EDBAE04D059DB16AE10D00ED0B9
:1019200055DB0DD0030EDBAE12D079DA020E3DDAB4
:10193000F9DA166A176A15AE02D016681768E2DA85
:101940000C0E16C0DBFF0D0E17C0DBFF1AD0F70E12
:10195000DBCF16F0F80EDBCF17F0020E165E000E8E
:10196000175AF70E16C0DBFFF80E17C0DBFF16C0C4
:10197000E9FF17C0EAFFD6DAC5DA0C0EDB6A0D0EF6
:10198000DB6A060EDB5005E1010EF36E050EF3CFA8
:10199000DBFF150EDB6A160EDB6AD950370F146EAB
:1019A000000EDA20156E390E14C0DBFF3A0E15C09A
:1019B000DBFF380EDB6A080EDB6A0A0EAEDADF5098
:1019C000780A12E0200A10E0280A0CE0200A0AE057
:1019D0003F0A06E00D0A02E0200A08E1020E05D0E7
:1019E000080E03D0080EDF26100E97DA030EDBBEBA
:1019F00002D0DB92DB94DB50800B24E08ADAD890B3
:101A0000030EEB50000A08E6000EEE5C000EEE58E6
:101A1000000EEE58000EEE5815E213DA0B680C6853
:101A20000D680E689BEC12F00A0E02C0DBFF0B0E75
:101A300003C0DBFF0C0E04C0DBFF0D0E05C0DBFF97
:101A40002D0E08D0030EDBA202D02B0E03D0DBA498
:101A500008D0200EF36E170EF3CFDBFF150EDB2A36
:101A600002D0170EDB6A050EDB5003E1B7D901E1A6
:101A700089D0740E146E280E156E000E166E070EA9
:101A8000DBCF17F0186A196A1A6A17C00BF018C072
:101A90000CF019C00DF01AC00EF0D3D998EC13F069
:101AA00014500224F36E15500320F46E16500420D7
:101AB000F86EF4CFF7FFF3CFF6FF0800090EF5CF6D
:101AC000DBFF580EDF5C0FE1610EF36E090E7BD970
:101AD0000AE3200E146E090EDBCFE7FF1450E75E19
:101AE000090EE7CFDBFF070EDBCF14F0156A166A8D
:101AF000176A0FDA14C00BF015C00CF016C00DF009
:101B000017C00EF0EECF06F0EECF07F0EECF08F0E4
:101B1000EFCF09F098EC13F009C0EDFF08C0EDFF1E
:101B200007C0EDFF06C0EFFF390EDBCFE9FFDB0694
:101B30003A0EDBCFEAFF01E2DB06090EDBCFEFFF57
:101B4000150EDB2A4BD995E1030EDBA61DD06F0ED7
:101B5000DF5C06E1C1D918E3150EDB285BDA14D08F
:101B6000780EDF5C09E0580EDF5C06E0620EDF5C99
:101B700003E0420EDF5C08E1020EF36E160EF3CFB7
:101B8000DBFF02D0150EDB6A030EDB50100B0EE0FC
:101B9000040EDBCF14F0050EDB50D880145406E29F
:101BA000060EDB5003E1040EDB5034DA95D90AE26D
:101BB000050EDBCFE7FF150EDB50E75E050EE7CF26
:101BC000DBFF02D0050EDB6A040EDBCF14F0160E2D
:101BD00045D9D880145414E2160EDBCFE6FF150E5B
:101BE000DBCFE6FF040EDBCFE6FF050EDB50E55250
:101BF000E75CE552D880E754E552D880E7545FD9D6
:101C0000030EDB50010B0BE1080EDB5008E0B2D8ED
:101C100001E08DD0080EDB50BED8080EDB6A170E2F
:101C2000DB5007E088D9170EF1D903E1151C01E15B
:101C30007ED0160EDB5016E07ED9300EE66E9FD8B1
:101C400002E1151C74E077D9DFCFE6FF59EC12F002
:101C5000E552E552E552F4CF15F00001F31C02E124
:101C6000151C65E0050EDBCF14F0160EDB50D88096
:101C7000145409E2050EDBCFE7FF160EDB50E75EDA
:101C8000050EE7CFDBFF300EE66E050ECBD94FE138
:101C9000390EDB2ADBCFE9FF3A0E01E3DB2ADBCF8B
:101CA000EAFF090EEFCFDBFFDB500EE044D9090E4F
:101CB000ADD902E1151C3BE0390EDB2ADBCFE9FF91
:101CC0003A0EEDE3DB2AEBD755D831E1160EDBCF28
:101CD000E6FF080EC3D8E552E7245DD82ED0070EE4
:101CE000DB50030A1CE0010A14E0030A07E07BD979
:101CF000DBCFEEFF020EDBCFEDFF1FD0F5D8196A68
:101D000017AE02D0186819682CD8BCD819C0EEFFDD
:101D100014D0EAD817BE186824D8B4D80ED063D926
:101D2000DBCFEFFF0AD07BD905E1151C03E1F36897
:101D3000F46810D0FCD801E3DB2A79D93CEF0AF033
:101D4000010EDBCF14F0020EDBCF15F014C0F3FF51
:101D500015C0F4FF3B0EE15C02E2E16AE552E16E80
:101D6000CBD029D9020EA2EF0FF061D90800F550AF
:101D7000DF6E1200200EE66E080E12EF10F059EC26
:101D800012F0E552E552E552F3CF14F0F4CF15F01E
:101D90000001F31C1200146E156AD950010F4DD9C1
:101DA0001450EE261550ED221200185E000E195A3E
:101DB000F70E18C0DBFFF80E19C0DBFF18C0E9FFF3
:101DC00019C0EAFF1200DBCFF4FFF350F45C1200FD
:101DD000DB50E76E040EE7CFDBFF12000A0EDBCF0D
:101DE00014F00B0EDBCF15F00C0EDBCF16F00D0E42
:101DF000DBCF17F014501510161017101200130E29
:101E0000EECFDBFF140EEDCFDBFF130EDBCF14F0B4
:101E1000140EDBCF15F00001800E15141200F70E22
:101E2000DBCF18F0F80EDBCF19F01200050EDB50F7
:101E3000E66ED950130F01D9E552E750EE6EED6A08
:101E400012000A0EDBCF06F00B0EDBCF07F00C0EF4
:101E5000DBCF08F00D0EDBCF09F01200DBCFE6FF81
:101E6000150EDBCFE6FF050EDB50E552E724E55209
:101E7000E7241200DB50CED8010EF36E060EF3CF2E
:101E8000DBFF1200EE50EFCFEAFFE96E16C0EEFF67
:101E900017C0EEFF18C0EEFF1200D9CFE6FFDACF71
:101EA000E6FFE1CFD9FFE2CFDAFF1200DFCFE6FF96
:101EB000E66AF2EC13F0E552E552F3501200E76ED9
:101EC000080EE7CFDBFF1200EECF14F0EECF15F0D7
:101ED000EFCF16F0176A1200050EDBCF14F0150EC7
:101EE000DB50D88014541200010EDBCF16F0020E26
:101EF000DBCF17F0186A1200E552E5CFDAFFE7CF23
:101F0000D9FF12000A0E14C0DBFF0B0E15C0DBFF59
:101F10001200D9500A0F1DEF10F0F36E070EF3CF29
:101F2000DBFF1200EECF14F0EFCF15F01200010E20
:101F3000DB2A020E1200FC0EDBCFE6FFFD0EDBCF2C
:101F4000E6FF1200145E000E155AF70E14C0DBFFF8
:101F5000F80E15C0DBFF14C0E9FF15C0EAFF120040
:101F6000DA20EA6EEF2AEECFF6FF000EEF22EECF78
:101F7000F7FFEF22EECFF8FF1200040EDBCFE6FFF3
:101F8000130EDB50E552E75C9ADFDB5004DF060EF0
:101F9000DB501200090EDB500A0DF350DF24D00F86
:101FA000E76E090EE7CFDBFFB5EF0EF0DB50F36E07
:101FB000050EE3EF0EF0F70EDBCF14F0F80EDBCFDB
:101FC00015F01200DFCFE6FFBFEF0EF028DF030EA3
:101FD000ECDE64EF0FF011EC0AF0E552E552E55249
:101FE000E55200091200BDDEEE50EFCFEAFFE96EC8
:101FF000010E1200130EDB50F36E040EE3EF0EF031
:10200000040EDB50F36E090EE3EF0EF0DBCFE6FFBC
:10201000BFEF0EF0E76E050EE7CFDBFF12008BDFA0
:10202000E2EF0FF0DBCFE6FF86DFEBEF0FF0D950EA
:10203000F90FE96EFF0EB0EF0FF0E96E000EDA2037
:04204000EA6E120032
:0C204400D9CFE6FFE1CFD9FF030EE12663
:102050008CD8B5D89EAA7ED0BCEC13F0DF6E010EF2
:10206000E66EE66EE66AD9CFE6FFDACFE6FF01EC70
:1020700004F0146E050EE15E14504CEC08F00009FB
:1020800004E058EC08F0000901E1F7D760EC08F033
:10209000010EE66E24EC03F0E552010EDB6A020E3F
:1020A000DB6A010EDBCF14F0020EDBCF15F0200E41
:1020B000145C4E0E155829E24CEC08F0000912E0B1
:1020C00054EC08F000090EE0010EE66EE66AD9CF86
:1020D000E6FFDACFE6FF27EC04F0E552E552E552E1
:1020E000E55213D0D950010FE96EDACFEAFF1F0E87
:1020F000EE1802E14E0EED1802E13F0EDF6E010E0A
:10210000DB2A020E01E3DB2ACCD760EC08F0DFCF3C
:10211000E6FFE66A850E146E280E156E166A14C068
:10212000E6FF15C0E6FF16C0E6FF0DEC12F0176ED5
:10213000050EE15E1750820EE66EE66AE66AE66A12
:10214000F5EC10F0E552E552E552E5527CEC03F077
:1021500034D880D77ED7030EE15C02E2E16AE55213
:10216000E16EE552E7CFD9FF12001DD8400EE66EB2
:10217000E66A2C0EE66E39EC13F0E552E552E552B4
:10218000E66AE66A010EE66E06EC13F0E552E552E9
:10219000E552E66A010EE66EE66AF8EC01F0E552F9
:1021A000E552E5521200070EC16E92908080938036
:1021B000910E946E040E826E120080701200D9CFC0
:1021C000E6FFE1CFD9FFE652ABA205D0AB98AB88D2
:1021D000BCEC13F0DF6EABA403D0BCEC13F0DF6EED
:0A21E000E552E552E7CFD9FF1200E7
:0621EA00D9CFE6FFE1CFB2
:1021F000D9FF040EE126DE6ADE6ADE6ADD6ADD52A0
:10220000DD52FB0EDBCF14F0FC0EDBCF15F0FD0E24
:10221000DBCF16F0FE0EDBCF17F0D9CFE9FFDACF18
:10222000EAFF1450EE5C1550EE581650EE58175059
:10223000EE580FE2010EE66E2FEC14F0E552D9CF06
:10224000E9FFDACFEAFFEE2A000EEE22EE22EE22BE
:10225000D8D7040EE15C02E2E16AE552E16EE55294
:10226000E7CFD9FF1200D9CFE6FFE1CFD9FF040EA7
:10227000E126DE6ADE6ADE6ADD6ADD52DD52FB0ED1
:10228000DBCF14F0FC0EDBCF15F0FD0EDBCF16F02C
:10229000FE0EDBCF17F0D9CFE9FFDACFEAFF1450FB
:1022A000EE5C1550EE581650EE581750EE580FE2EF
:1022B000010EE66EDBEC13F0E552D9CFE9FFDACF81
:1022C000EAFFEE2A000EEE22EE22EE22D8D7040E0E
:1022D000E15C02E2E16AE552E16EE552E7CFD9FF47
:1022E0001200D9CFE6FFE1CFD9FF040EE126DE6A66
:1022F000DE6ADE6ADD6ADD52DD52FB0EDBCF14F0F2
:10230000FC0EDBCF15F0FD0EDBCF16F0FE0EDBCFA3
:1023100017F0D9CFE9FFDACFEAFF1450EE5C155081
:10232000EE581650EE581750EE581EE2FA0EE66EB2
:10233000DBEC13F0E552FA0EE66EDBEC13F0E5523F
:10234000FA0EE66EDBEC13F0E552FA0EE66EDBEC0D
:1023500013F0E552D9CFE9FFDACFEAFFEE2A000EFB
:10236000EE22EE22EE22C9D7040EE15C02E2E16A1F
:0C237000E552E16EE552E7CFD9FF120004
:04237C002A0EF66EC1
:10238000000EF76E000EF86E00010900F550856F23
:102390000900F550866F03E1856701D03DD0090043
:1023A000F550806F0900F550816F0900F550826F7C
:1023B00009000900F550E96E0900F550EA6E0900C0
:1023C00009000900F550836F0900F550846F09007A
:1023D0000900F6CF87F0F7CF88F0F8CF89F080C0FA
:1023E000F6FF81C0F7FF82C0F8FF0001835302E1CE
:1023F000845307E00900F550EE6E8307F8E2840786
:10240000F9D787C0F6FF88C0F7FF89C0F8FF000141
:0A2410008507000E865BBFD712009F
:06241A00D9CFE6FFDACF86
:10242000E6FFE1CFD9FFE2CFDAFFE652E652E6520D
:10243000E652D950FB0F146EFF0EDA20156E14C051
:10244000DEFFDD6EDECFE6FFDDCFE6FFFB0EDBCF8E
:10245000E6FFFC0EDBCFE6FFFD0EDBCFE6FF8AC01A
:10246000E6FF8BC0E6FF27EC0AF0146E070EE15C76
:1024700002E2E16AE552E16E1450020EF3CFDBFF97
:10248000030EF4CFDBFF020EDBCF14F0030EDBCF25
:1024900015F014C0F3FF15C0F4FF040EE15C02E276
:1024A000E16AE552E16EE552E5CFDAFFE7CFD9FF09
:0224B000120018
:0E24B200D9CFE6FFDACFE6FFE1CFD9FFE2CFC8
:1024C000DAFFFB0EDBCF14F0FC0EDBCF15F00001C2
:1024D000800E15141AE1FB0EDBCFE9FFFC0EDBCFFB
:1024E000EAFFEECFF3FFEDCFF4FFEE2A000EEF226E
:1024F000F3CFE9FFF4CFEAFFFD0EDBCFEFFFEF50A4
:10250000156AF36E15C0F4FF10D0FB0EDB50FE0809
:1025100006E1FD0EDBCFE6FF21EC14F005D0FD0E49
:10252000DBCFE6FF44EC14F0E552E552E5CFDAFFED
:06253000E7CFD9FF120005
:0A25360006500B02F3CF02F0F4CFC1
:1025400003F00C02F3500326000EF420046E065034
:102550000D02F3500426000EF420056E06500E0204
:10256000F350052607500B02F3500326F4500422C3
:10257000000E052207500C02F3500426F4500522E9
:1025800007500D02F350052608500B02F3500426A5
:10259000F450052208500C02F350052609500B0296
:0625A000F35005261200B5
:0A25A600FE0EE3CFE9FFFF0EE3CFC6
:1025B000EAFFF36AF46AEE5203E0F34AF42AFBD727
:1025C0001200FF0EE3CFF8FFE552FF0EE3CFF7FF57
:1025D000E552FF0EE3CFF6FFE552E66AE66AE66AE9
:1025E0000900F55209E0FD0EE32A05E1FE0EE32A9B
:1025F00002E1FF0EE32AF4D7FD0EE3CF07F0FE0E53
:0C260000E3CF08F0FF0EE3CF09F012005A
:04260C00D9CFE6FF3D
:10261000DACFE6FFE1CFD9FFE2CFDAFF3F0EC716F0
:10262000C66AFD0EDB50C612FB0EDB50C712FC0E55
:10263000DB50030A09E0010A04E0020A06E1C78C44
:1026400004D0C78CC68801D0C688FD0EDB50050AB1
:1026500003E0010A04E1928A9486C79E01D0949611
:10266000949A9488C68AE552E5CFDAFFE7CFD9FF7E
:02267000120056
:0E267200D9CFE6FFDACFE6FFE1CFD9FFE2CF06
:10268000DAFFAC6AAB6AFD0EDBA005D0AC88DBA438
:1026900004D0AC8E02D0DBB8AC84DBA202D0AC8C10
:1026A000AB8CDBA602D0AB8801D0AB8ADBAC02D00E
:1026B0009D8A01D09D9ADBAE02D09D8801D09D9865
:1026C000FB0EDB50AF6EAC8AAB8EE552E5CFDAFF86
:0626D000E7CFD9FF120064
:0A26D60009C013F008C012F008500C
:1026E0000D02F4CF07F0F3CF06F009500E02F4CF3D
:1026F00009F0F3CF08F00D02F3500726F45008223A
:10270000E86A092212500E02F3500726F4500822FC
:10271000E86A09220EAE91EF13F01250085E1350D2
:10272000095A13AE000C0D50085E0E50095A000CE9
:10273000056A046A036A026A200EE76ED8900636BC
:1027400007360836093602360336043605360B508E
:10275000025C0C5003580D5004580E50055809E304
:102760000B50025E0C50035A0D50045A0E50055A7D
:08277000062AE72EE4D712004F
:08277800D9CFE6FFDACFE6FF3E
:10278000E1CFD9FFE2CFDAFFE652F20E00018C175B
:10279000ABAC03D08C91ABB08C81ABB48C85ABB2BD
:1027A0008C87AE50DF6EDF50E552E552E5CFDAFFA1
:0627B000E7CFD9FF120083
:0A27B600FF0EE3501C6EEF0E01D081
:1027C000F30EE76EE72EE2EF13F00C0E1B6EE76AD6
:1027D000E72EE8EF13F01B2EE7EF13F01C2EE0EFCF
:0427E00013F01200E0
:0C27E400F36AF46AFF0EE124E96EFF0EB8
:1027F000E220EA6EED6607D02F0EEF6404D03A0EA9
:08280000EF6001D0F32A120081
:08280800D9CFE6FFE1CFD9FFB3
:10281000FE0EDB50C96EC7A0FED7C95000D0E552EE
:06282000E7CFD9FF120012
:0A28260015EE00F025EE00F0F86A50
:10283000019CBEEC11F045EC14F022EC10F0FBD73B
:02284000120084
:0E284200FF0EE350ACBA04D0AF6AAB8EAC8A86
:0E285000949CACA2FED7AD6EF36EF46A12003B
:02285E00FF0E6B
:10286000E350E84E1200000000D000D000D0E82E67
:04287000FAD7120081
:0C28740030313233343536373839616288
:052880006364656600C1
:03288500256300C8
:0228880012003C
:02288A0012003A
:02288C00FEFF4D
:00000001FF
