:020000040000FA
:06000000ECEF0BF0120012
:02002A000000D4
:04002C00D9CFE6FF43
:10003000E1CFD9FF050EE126FC0EDB50DF6E010E8D
:10004000E66EE66AD9CFE6FFDACFE6FFE66E91DB31
:10005000006E050EE15E0050FB0EDB50DF6E010E00
:10006000E66EE66AD9CFE6FFDACFE6FF020EE66E6D
:1000700080DB006E050EE15E0050FA0EDB50DF6E95
:10008000010EE66EE66AD9CFE6FFDACFE6FF030E91
:10009000E66E6FDB006E050EE15E0050F90EDB5080
:1000A000DF6E010EE66EE66AD9CFE6FFDACFE6FF35
:1000B000040EE66E5EDB006E050EE15E0050F80E8B
:1000C000DB50DF6E010EE66EE66AD9CFE6FFDACFCF
:1000D000E6FF050EE66E4DDB006E050EE15E00509C
:1000E000F70EDB50DF6E010EE66EE66AD9CFE6FF53
:1000F000DACFE6FF060EE66E3CDB006E050EE15E33
:100100000050D950F50FE96EFF0EDA20EA6EEE507E
:10011000ED1011E0E66A050EE66EE66AF50EDBCF3D
:10012000E6FFF60EDBCFE6FFCAEC04F0006E050E2C
:10013000E15E005020D0E70EDF6EDE52DD6EF36E22
:10014000020EF3CFDBFFE70EF36E030EF3CFDBFF00
:10015000E70EF36E040EF3CFDBFFE66A050EE66EE4
:10016000E66AD9CFE6FFDACFE6FFCAEC04F0006E0C
:10017000050EE15E0050D950F30FE96EFF0EDA2054
:10018000EA6EEE50ED1012E0010EE66E050EE66E20
:10019000E66AF30EDBCFE6FFF40EDBCFE6FFCAEC38
:1001A00004F0006E050EE15E005020D0C20EDF6E3E
:1001B000DE52DD6EF36E020EF3CFDBFFC20EF36E86
:1001C000030EF3CFDBFFC20EF36E040EF3CFDBFFA3
:1001D000010EE66E050EE66EE66AD9CFE6FFDACFCF
:1001E000E6FFD8DB006E050EE15E0050F20EDB503C
:1001F000DF6E020EE66E010EE66EE66AD9CFE6FF0E
:10020000DACFE6FFC7DB006E050EE15E0050F10EAF
:10021000DB50DF6E030EE66E010EE66EE66AD9CFA6
:10022000E6FFDACFE6FFB6DB006E050EE15E0050BA
:10023000F00EDB50DF6E040EE66E010EE66EE66A2F
:10024000D9CFE6FFDACFE6FFA5DB006E050EE15E53
:100250000050EF0EDB50DF6E050EE66E010EE66E0F
:10026000E66AD9CFE6FFDACFE6FF94DB006E050E33
:10027000E15E0050D950ED0FE96EFF0EDA20EA6E14
:10028000EE50ED100FE0050EE66EE66AED0EDBCFE8
:10029000E6FFEE0EDBCFE6FF62DBE552E552E5520C
:1002A000E5521ED0E70EDF6EDE52DD6EF36E020EFB
:1002B000F3CFDBFFE70EF36E030EF3CFDBFFE70EAA
:1002C000F36E040EF3CFDBFF050EE66EE66AD9CFC0
:1002D000E6FFDACFE6FF43DBE552E552E552E552B1
:1002E000EC0EDB50DF6E010EE66EE66AD9CFE6FF5C
:1002F000DACFE6FF110EE66E3CDA006E050EE15E27
:100300000050EB0EDB50DF6E010EE66EE66AD9CFD1
:10031000E6FFDACFE6FF120EE66E2BDA006E050E70
:10032000E15E0050EA0EDB50DF6E010EE66EE66A1B
:10033000D9CFE6FFDACFE6FF130EE66E1ADA006ECB
:10034000050EE15E0050E90EDB50DF6E010EE66E39
:10035000E66AD9CFE6FFDACFE6FF140EE66E09DAD9
:10036000006E050EE15E0050E80EDB50DF6E010E00
:10037000E66EE66AD9CFE6FFDACFE6FF150EE66E47
:10038000F8D9006E050EE15E0050E70EDB50DF6E1F
:10039000010EE66EE66AD9CFE6FFDACFE6FF160E6B
:1003A000E66EE7D9006E050EE15E0050FE0EDBA2A0
:1003B0000AD0FE0EDBCFE6FFFD0EDBCFE6FFC3D893
:1003C000E552E55205D0FE0EDBCFE6FF1DD9E55222
:1003D000050EE15C02E2E16AE552E16EE552E7CF2B
:1003E000D9FF1200D9CFE6FFE1CFD9FF020EE126F7
:1003F0000A0EDF6EFC0EDB5004E0DE52010EDD6EF5
:1004000002D0010EDB6AFE0EDB0403E1010EDF10F9
:10041000DF6EE66AE66AE66AE66AE66AFD0EDBCF4A
:10042000E6FF000EE66EE66AC60EE66EC50EE66EE6
:10043000C40EE66EC30EE66E000EE66EE66AE66E6B
:10044000E66A0F0EE66E020EE66E030EE66EE66ECE
:10045000E66E010EDBCFE6FFE66EDFCFE6FFE6DD00
:10046000006E180EE15E0050020EE15C02E2E16AED
:10047000E552E16EE552E7CFD9FF1200D9CFE6FF92
:10048000E1CFD9FFE652080EDF6EFE0EDB5002E030
:10049000000EDF80010EE66EE66AD950FD0FE66EB3
:1004A000FF0EDA20E66E110EE66E63D9006E050EC1
:1004B000E15E0050DFCFE6FF010EE66E44D8E55264
:1004C000E552E552E552E7CFD9FF1200D9CFE6FF5A
:1004D000E1CFD9FFE652010EE66EE66AD9CFE6FF1C
:1004E000DACFE6FFE66A66D9006E050EE15E0050DF
:1004F000DFB224D0DF82010EE66EE66AD9CFE6FFD6
:10050000DACFE6FFE66A35D9006E050EE15E0050EF
:10051000DC0EE66E050EE66EE66AE66A0BEC0AF0A5
:10052000E552E552E552E552DFB002D000DA06D0DE
:10053000FE0EDB5002E0FDD901D0F9D9E552E552BB
:10054000E7CFD9FF1200D9CFE6FFE1CFD9FF020EE6
:10055000E126FD0EDB82010EE66EE66AD950FD0F44
:10056000E66EFF0EDA20E66EE66A03D9006E050E2F
:10057000E15E0050DC0EE66E050EE66EE66AE66AA7
:100580000BEC0AF0E552E552E552E552FD0EDBB008
:1005900002D0CDD906D0FE0EDB5002E0CAD901D080
:1005A000C6D9020EE15C02E2E16AE552E16EE55273
:1005B000E7CFD9FF1200D9CFE6FFE1CFD9FFE6524E
:1005C000010EE66EE66AD9CFE6FFDACFE6FFE66A0D
:1005D000F1D8006E050EE15E0050DFA210D0000ED3
:1005E000DF92010EE66EE66AD9CFE6FFDACFE6FFCC
:1005F000E66ABFD8006E050EE15E005098D9E5525C
:10060000E552E7CFD9FF1200D9CFE6FFE1CFD9FFFE
:10061000FE0EDB92010EE66EE66AD950FE0FE66E24
:10062000FF0EDA20E66EE66AA4D8006E050EE15EE3
:1006300000507DD9E552E7CFD9FF1200D9CFE6FFB0
:10064000E1CFD9FF020EE126010EE66EE66AD9CFB0
:10065000E6FFDACFE6FFE66AADD8006E050EE15E92
:100660000050E76E010EE7CFDBFFDFB015D0000EC4
:10067000DF80010EE66EE66AD9CFE6FFDACFE6FF4D
:10068000E66A77D8006E050EE15E0050FE0EDB5084
:1006900002E04FD901D04BD9020EE15C02E2E16ADF
:1006A000E552E16EE552E7CFD9FF1200D9CFE6FF60
:1006B000E1CFD9FFFD0EDB80FD0EDBA20AD0FD0EDF
:1006C000DBCFE6FFFE0EDBCFE6FF3DDFE552E55276
:1006D00005D0FD0EDBCFE6FF97DFE552E552E7CF11
:1006E000D9FF120099EF04F097EF04F0D9CFE6FF9D
:1006F000E1CFD9FFE652010EE66EE66AD9CFE6FFFA
:10070000DACFE6FFE66A56D8006E050EE15E0050CD
:10071000DFA010D0000EDF90010EE66EE66AD9CFA2
:10072000E6FFDACFE6FFE66A24D8006E050EE15E4A
:100730000050FDD8E552E552E7CFD9FF1200D9CFDE
:10074000E6FFE1CFD9FFFE0EDB90FE0EDBA208D064
:10075000FE0EDBCFE6FFE66AF6DEE552E55205D097
:10076000FE0EDBCFE6FF50DFE552E552E7CFD9FFC3
:100770001200D9CFE6FFE1CFD9FFE66AFA0EDBCF50
:10078000E6FFFB0EDBCFE6FFFC0EDBCFE6FFFD0E48
:10079000DBCFE6FFFE0EDB501F0B2009E66E78EC88
:1007A00009F0006E060EE15E005000D0E552E7CF82
:1007B000D9FF1200D9CFE6FFE1CFD9FF010EE66ED7
:1007C000FA0EDBCFE6FFFB0EDBCFE6FFFC0EDBCF46
:1007D000E6FFFD0EDBCFE6FFFE0EDB501F0BE66EE5
:1007E00078EC09F0006E060EE15E005000D0E55294
:1007F000E7CFD9FF1200D9CFE6FFE1CFD9FFE6520C
:10080000E66AFB0EDBCFE6FFFC0EDBCFE6FFFD0E5C
:10081000DBCFE6FFFE0EDBCFE6FFA00EE66E78EC48
:1008200009F0006E060EE15E0050DF6EFA0EDB048A
:1008300001E16FD8DF5000D0E552E552E7CFD9FF94
:100840001200D9CFE6FFE1CFD9FFE65270D8010EF2
:10085000E66EFB0EDBCFE6FFFC0EDBCFE6FFFD0E08
:10086000DBCFE6FFFE0EDBCFE6FF610EE66E78EC37
:1008700009F0006E060EE15E0050DF6E5AD8DF50C0
:1008800000D0E552E552E7CFD9FF1200010EE66E27
:10089000000EE66EE66AE66EE66AE10EE66E78EC5B
:1008A00009F0006E060EE15E005000D01200010E4D
:1008B000E66E000EE66EE66AE66EE66AE20EE66E4A
:1008C00078EC09F0006E060EE15E005000D01200D8
:1008D000010EE66E000EE66EE66AE66EE66AE30E6E
:1008E000E66E78EC09F0006E060EE15E005000D076
:1008F0001200010EE66E000EE66EE66AE66EE66A2D
:10090000E66878EC09F0006E060EE15E005000D05B
:1009100012000FD80A0EE66EE66AE66AE66A0BEC8B
:100920000AF0E552E552E552E55297EF04F0829263
:1009300012008282120082A203D0010E03D002D0E4
:10094000000E00D01200829412008284120082A451
:1009500003D0010E03D002D0000E00D01200D9CF78
:10096000E6FFE1CFD9FFFB0EDBCFE6FFFC0EDBCFCE
:10097000E6FFFD0EDBCFE6FFFE0EDBCFE6FF100E3F
:10098000E66EF7DE006E050EE15E0050E552E7CF41
:10099000D9FF1200D9CFE6FFE1CFD9FFFA0EDB5025
:1009A000050801E215D0FB0EDBCFE6FFFC0EDBCF26
:1009B000E6FFFD0EDBCFE6FFFE0EDBCFE6FFFA0E15
:1009C000DB500A0FE66ED5DE006E050EE15E0050CC
:1009D000E552E7CFD9FF1200D9CFE6FFE1CFD9FF2B
:1009E000FD0EDB50050804E3FE0EDB50200801E29B
:1009F00012D0010EE66EE66AD950FE0FE66EFF0ECB
:100A0000DA20E66EFD0EDB50110FE66EB2DE006EF0
:100A1000050EE15E0050E552E7CFD9FF1200D9CFB5
:100A2000E6FFE1CFD9FFE652FE0EDB50050802E2F9
:100A3000000E12D0010EE66EE66AD9CFE6FFDACFDD
:100A4000E6FFFE0EDB50110FE66EB4DE006E050E03
:100A5000E15E0050DF5000D0E552E552E7CFD9FF0C
:100A60001200D9CFE6FFE1CFD9FFE652010EE66EC4
:100A7000E66AD9CFE6FFDACFE6FFE66A9BDE006ED4
:100A8000050EE15E0050DF5000D0E552E552E7CFA1
:100A9000D9FF1200D9CFE6FFE1CFD9FF010EE66EF4
:100AA000E66AD950FE0FE66EFF0EDA20E66EE66AC1
:100AB00060DE006E050EE15E0050E552E7CFD9FF23
:100AC0001200D9CFE6FFE1CFD9FFE652010EE66E64
:100AD000E66AD9CFE6FFDACFE6FF050EE66E6ADEFC
:100AE000006E050EE15E0050DF5000D0E552E55289
:100AF000E7CFD9FF1200D9CFE6FFE1CFD9FFE65209
:100B0000FE0EDB507F0BDF6E010EE66EE66AD9CF7C
:100B1000E6FFDACFE6FF050EE66E2BDE006E050E71
:100B2000E15E0050E552E552E7CFD9FF1200D9CF80
:100B3000E6FFE1CFD9FFE652010EE66EE66AD9CFB5
:100B4000E6FFDACFE6FF080EE66E34DE006E050E35
:100B5000E15E0050DF5000D0E552E552E7CFD9FF0B
:100B60001200D9CFE6FFE1CFD9FFE652010EE66EC3
:100B7000E66AD9CFE6FFDACFE6FF080EE66E1ADEA8
:100B8000006E050EE15E0050F00EDF14E8380F0B2A
:100B900000D0E552E552E7CFD9FF1200D9CFE6FFEA
:100BA000E1CFD9FFE652010EE66EE66AD9CFE6FF45
:100BB000DACFE6FF050EE66EFDDD006E050EE15EA6
:100BC0000050010EE66EE66AD9CFE6FFDACFE6FF07
:100BD000050EE66ECEDD006E050EE15E0050E552BC
:100BE000E552E7CFD9FF1200D9CFE6FFE1CFD9FF19
:100BF000010EE66EE66AD950FE0FE66EFF0EDA20B1
:100C0000E66E050EE66EB5DD006E050EE15E005087
:100C1000E552E7CFD9FF1200D9CFE6FFE1CFD9FFE8
:100C2000E652010EE66EE66AD9CFE6FFDACFE6FFBE
:100C3000080EE66EBFDD006E050EE15E00500F0E81
:100C4000DF1400D0E552E552E7CFD9FF1200D9CF2B
:100C5000E6FFE1CFD9FFE652FE0EDB50050802E2C7
:100C6000000E19D0010EE66EE66AD9CFE6FFDACFA4
:100C7000E6FFE66E9FDD006E050EE15E0050010EA0
:100C8000F36EFE0EDB5004E0D890F336E806FCE18C
:100C9000F350DF1400D0E552E552E7CFD9FF120040
:100CA000D9CFE6FFE1CFD9FFE652FE0EDB500508B3
:100CB00001E232D0010EE66EE66AD9CFE6FFDACF66
:100CC000E6FFE66E77DD006E050EE15E0050010E78
:100CD000F36EFE0EDB5004E0D890F336E806FCE13C
:100CE000F350DF1401E018D0010EF36EFE0EDB505E
:100CF00004E0D890F336E806FCE1F350DF12010E71
:100D0000E66EE66AD9CFE6FFDACFE6FFE66E31DDC2
:100D1000006E050EE15E0050E552E552E7CFD9FFC7
:100D20001200D9CFE6FFE1CFD9FFE652FE0EDB502D
:100D3000050801E233D0010EE66EE66AD9CFE6FF80
:100D4000DACFE6FFE66E36DD006E050EE15E00509E
:100D5000010EF36EFE0EDB5004E0D890F336E80689
:100D6000FCE1F350DF1401E119D0010EF36EFE0E29
:100D7000DB5004E0D890F336E806FCE1F350E81CC1
:100D8000DF16010EE66EE66AD9CFE6FFDACFE6FFA0
:100D9000E66EEFDC006E050EE15E0050E552E552B6
:100DA000E7CFD9FF1200D9CFE6FFE1CFD9FFE65256
:100DB000FE0EDB50050802E2000E1AD0010EE66EB0
:100DC000E66AD9CFE6FFDACFE6FF020EE66EF2DC86
:100DD000006E050EE15E0050010EF36EFE0EDB505C
:100DE00004E0D890F336E806FCE1F350DF1400D0BD
:100DF000E552E552E7CFD9FF1200D9CFE6FFE1CFA8
:100E0000D9FFE652FE0EDB50050801E234D0010E98
:100E1000E66EE66AD9CFE6FFDACFE6FF020EE66EAF
:100E2000C9DC006E050EE15E0050010EF36EFE0E91
:100E3000DB5004E0D890F336E806FCE1F350DF1411
:100E400001E019D0010EF36EFE0EDB5004E0D890E5
:100E5000F336E806FCE1F350DF12010EE66EE66AB7
:100E6000D9CFE6FFDACFE6FF020EE66E82DC006E37
:100E7000050EE15E0050E552E552E7CFD9FF1200C2
:100E8000D9CFE6FFE1CFD9FFE652FE0EDB500508D1
:100E900001E235D0010EE66EE66AD9CFE6FFDACF81
:100EA000E6FF020EE66E86DC006E050EE15E005087
:100EB000010EF36EFE0EDB5004E0D890F336E80628
:100EC000FCE1F350DF1401E11AD0010EF36EFE0EC7
:100ED000DB5004E0D890F336E806FCE1F350E81C60
:100EE000DF16010EE66EE66AD9CFE6FFDACFE6FF3F
:100EF000020EE66E3EDC006E050EE15E0050E5522D
:100F0000E552E7CFD9FF1200D9CFE6FFE1CFD9FFF5
:100F1000E652010EE66EE66AD9CFE6FFDACFE6FFCB
:100F2000090EE66E47DC006E050EE15E0050DF50F4
:100F300000D0E552E552E7CFD9FF1200D9CFE6FF46
:100F4000E1CFD9FFE652010EE66EE66AD9CFE6FFA1
:100F5000DACFE6FF170EE66E2DDC006E050EE15EC1
:100F60000050DF5000D0E552E552E7CFD9FF120024
:100F7000C0DC00D01200D9CFE6FFE1CFD9FFE652A6
:100F8000010EE66EE66AD9CFE6FFDACFE6FF170E6E
:100F9000E66E10DC006E050EE15E0050400EDF14C0
:100FA00000D0E552E552E7CFD9FF1200D9CFE6FFD6
:100FB000E1CFD9FFE652010EE66EE66AD9CFE6FF31
:100FC000DACFE6FF170EE66EDAEC03F0006E050EE0
:100FD000E15E0050200EDF1400D0E552E552E7CF6D
:100FE000D9FF1200D9CFE6FFE1CFD9FFE652010EBB
:100FF000E66EE66AD9CFE6FFDACFE6FF170EE66EB9
:10100000DAEC03F0006E050EE15E0050100EDF1406
:1010100000D0E552E552E7CFD9FF1200D9CFE6FF65
:10102000E1CFD9FFE652010EE66EE66AD9CFE6FFC0
:10103000DACFE6FF170EE66EDAEC03F0006E050E6F
:10104000E15E0050020EDF1400D0E552E552E7CF1A
:10105000D9FF1200D9CFE6FFE1CFD9FFE652010E4A
:10106000E66EE66AD9CFE6FFDACFE6FF170EE66E48
:10107000DAEC03F0006E050EE15E0050010EDF14A5
:1010800000D0E552E552E7CFD9FF120081A003D08E
:10109000000E03D002D0010E00D0120069DF400B19
:1010A00000D0120065DF200B00D0120061DF100BB2
:1010B00000D01200D9CFE6FFE1CFD9FFE652700E83
:1010C000DF6E010EE66EE66AD9CFE6FFDACFE6FF05
:1010D000070EE66EB9EC03F0006E050EE15E0050FF
:1010E000E552E552E7CFD9FF1200D9CFE6FFE1CFB5
:1010F000D9FFE652400EDF6E010EE66EE66AD9CFEA
:10110000E6FFDACFE6FF070EE66EB9EC03F0006EFD
:10111000050EE15E0050E552E552E7CFD9FF12001F
:10112000D9CFE6FFE1CFD9FFE652200EDF6E010EE8
:10113000E66EE66AD9CFE6FFDACFE6FF070EE66E87
:10114000B9EC03F0006E050EE15E0050E552E55289
:10115000E7CFD9FF1200D9CFE6FFE1CFD9FFE652A2
:10116000100EDF6E010EE66EE66AD9CFE6FFDACF2B
:10117000E6FF070EE66EB9EC03F0006E050EE15EC9
:101180000050E552E552E7CFD9FF1200F1DEE66EDE
:1011900003D8E55200D01200D9CFE6FFE1CFD9FF46
:1011A000FE0EDB500E0BE8407F0B00D0E552E7CF80
:1011B000D9FF120057EC04F046EC04F05AEF08F0A7
:1011C000D9CFE6FFE1CFD9FF0B0EE126040EDB6A93
:1011D000050EDB6ADE6ADD6AD9CFE9FFDACFEAFF06
:1011E000170ED880EE54000EED5401E277D0050EB4
:1011F000E66EE66AD950060FE66E000EDA20E66E5D
:10120000DFCFE6FFDAEC03F0006E050EE15E005082
:10121000020EDB6A030EDB6A020EDBCF00F0030E68
:10122000DBCF01F0050E005C000E015852E2020E09
:10123000DBCF00F0030EDBCF01F0010E005C000EEF
:1012400001581CE3D9CFE9FFDACFEAFF0A0EEE1806
:1012500001E1ED5013E0D9CFE9FFDACFEAFF0B0E41
:10126000EE1801E1ED500AE0D9CFE9FFDACFEAFF4D
:10127000100EEE1801E1ED5001E02BD0D950060F11
:10128000026EDACF03F0020EDB500224E96E030E89
:10129000DB500320EA6EEF50E66E040EDBCF00F069
:1012A000050EDBCF01F0FD0EDB500024E96EFE0ED3
:1012B000DB500120EA6EE552E750EF6E040EDB2AA8
:1012C000050E01E3DB2A020EDB2A030E01E3DB2A13
:1012D000A3D7DF2A010E01E3DB2A7ED70B0EE15CE8
:1012E00002E2E16AE552E16EE552E7CFD9FF120072
:1012F000D9CFE6FFE1CFD9FFE652A3EC04F0FE0E12
:10130000DB50DF6E010EE66EE66EE66AD9CFE6FFD1
:10131000DACFE6FF21D8006E050EE15E0050F90E2F
:10132000DBCFE6FFFA0EDBCFE6FFFB0EDBCFE6FFFF
:10133000FC0EDBCFE6FFFD0EDBCFE6FF0DD8006E27
:10134000050EE15E0050A5EC04F0DF5000D0E55240
:10135000E552E7CFD9FF1200D9CFE6FFE1CFD9FFA1
:10136000030EE126DE6ADD6ADECF00F0DDCF01F09C
:10137000FB0EDBCF02F0FC0EDBCF03F00250005C73
:10138000035001583EE2FA0EDB5022E0FD0EDBCFA7
:1013900002F0FE0EDBCF03F0DE500224E96EDD50DA
:1013A0000320EA6EEF50E66EDDEC0BF0E552E66EE0
:1013B000FD0EDBCF00F0FE0EDBCF01F0DE5000248F
:1013C000E96EDD500120EA6EE552E750EF6E14D071
:1013D000FD0EDBCF00F0FE0EDBCF01F0DE5000246F
:1013E000E96EDD500120EA6E020EEFCFDBFFDBCFAE
:1013F000E6FFDDEC0BF0E552DF2A010E01E3DB2A0C
:10140000B3D7030EE15C02E2E16AE552E16EE55218
:06141000E7CFD9FF120036
:0A141600D9CFE6FFE1CFD9FF040EA5
:10142000E126DE6ADE6ADE6ADD6ADD52DD52FB0E2F
:10143000DBCF00F0FC0EDBCF01F0FD0EDBCF02F0C6
:10144000FE0EDBCF03F0D9CFE9FFDACFEAFF005081
:10145000EE5C0150EE580250EE580350EE580FE289
:10146000010EE66EFAEC0BF0E552D9CFE9FFDACFC8
:10147000EAFFEE2A000EEE22EE22EE22D8D7040E6C
:10148000E15C02E2E16AE552E16EE552E7CFD9FFA5
:101490001200D9CFE6FFE1CFD9FF040EE126DE6AC4
:1014A000DE6ADE6ADD6ADD52DD52FB0EDBCF00F064
:1014B000FC0EDBCF01F0FD0EDBCF02F0FE0EDBCF2A
:1014C00003F0D9CFE9FFDACFEAFF0050EE5C01501C
:1014D000EE580250EE580350EE580FE2010EE66E41
:1014E000C6EC0BF0E552D9CFE9FFDACFEAFFEE2ADE
:1014F000000EEE22EE22EE22D8D7040EE15C02E2CC
:10150000E16AE552E16EE552E7CFD9FF1200D9CF8B
:10151000E6FFE1CFD9FF040EE126DE6ADE6ADE6A6D
:10152000DD6ADD52DD52FB0EDBCF00F0FC0EDBCFBF
:1015300001F0FD0EDBCF02F0FE0EDBCF03F0D9CFC2
:10154000E9FFDACFEAFF0050EE5C0150EE5802509E
:10155000EE580350EE581EE2FA0EE66EC6EC0BF0A3
:10156000E552FA0EE66EC6EC0BF0E552FA0EE66EA8
:10157000C6EC0BF0E552FA0EE66EC6EC0BF0E55247
:10158000D9CFE9FFDACFEAFFEE2A000EEE22EE22F3
:10159000EE22C9D7040EE15C02E2E16AE552E16E97
:0815A000E552E7CFD9FF12006C
:0815A800D9CFE6FFE1CFD9FF26
:1015B000E6524AD846EC08F0000904E04EEC08F088
:1015C000000901E1F7D7010EE66EE66AD9CFE6FF22
:1015D000DACFE6FF21EC04F0E552E552E552E552A0
:1015E0005AEC08F0820EE66EE66AE66AE66A0BECF2
:1015F0000AF0E552E552E552E55276EC03F0010EB1
:10160000E66EE66EE66AD9CFE6FFDACFE6FFFBECE0
:1016100003F0006E050EE15E005046EC08F0000994
:1016200004E052EC08F0000901E1F7D75AEC08F0A9
:10163000010EE66E1EEC03F0E55224D8BBD7E5524E
:10164000E552E7CFD9FF120013D8E66AE66A010E29
:10165000E66E93EC0BF0E552E552E552E66A010EB8
:10166000E66EE66EF2EC01F0E552E552E55212004C
:10167000070EC16E929080809380D10E946E040EFE
:08168000826E1200807012005E
:081688002A0EF66E000EF76E4B
:10169000000EF86E00010900F550856F0900F55045
:1016A000866F03E1856701D03DD00900F550806F5A
:1016B0000900F550816F0900F550826F090009009B
:1016C000F550E96E0900F550EA6E090009000900BD
:1016D000F550836F0900F550846F09000900F6CFBB
:1016E00087F0F7CF88F0F8CF89F080C0F6FF81C08F
:1016F000F7FF82C0F8FF0001835302E1845307E043
:101700000900F550EE6E8307F8E28407F9D787C029
:10171000F6FF88C0F7FF89C0F8FF00018507000EBB
:06172000865BBFD712003A
:0A172600D9CFE6FFDACFE6FFE1CFEE
:10173000D9FFE2CFDAFF3F0EC716C66AFD0EDB50B7
:10174000C612FB0EDB50C712FC0EDB50030A09E089
:10175000010A04E0020A06E1C78C04D0C78CC688DF
:1017600001D0C688FD0EDB50050A03E0010A04E142
:10177000928A9486C79E01D09496949A9488C68A39
:0C178000E552E5CFDAFFE7CFD9FF1200F9
:04178C00FF0EE35019
:10179000076EEF0E01D0F30EE76EE72ECDEF0BF0E4
:1017A0000C0E066EE76AE72ED3EF0BF0062ED2EF93
:0A17B0000BF0072ECBEF0BF0120038
:0617BA00D9CFE6FFE1CFEC
:1017C000D9FFFE0EDB50C96EC7A0FED7C95000D0AE
:0817D000E552E7CFD9FF12003A
:0817D80015EE00F025EE00F013
:1017E000F86A059C44EC0BF005EC0CF0D4EC0AF024
:0417F000FBD7120011
:0C17F400FF0EE350E84E1200000000D091
:0A18000000D000D0E82EFAD7120045
:02180A001200CA
:00000001FF
