:020000040000fa
:080000000002040000000000f2
:020000040000fa
:100008006003000068030000a00300007003000004
:1000180078030000a0030000a0030000a003000074
:10002800a0030000a0030000a0030000d00e010000
:10003800a0030000a0030000a0030000a00300002c
:10004800180e0100a003000048e60000aafd000009
:1000580022fd0000a0030000a0030000a003000090
:10006800a003000078e10000a0030000a003000046
:10007800a0030000a0030000a0030000a0030000ec
:10008800a0030000a0030000a0030000a0030000dc
:10009800a0030000dcad0000a0030000a0030000e6
:1000a800a0030000a0030000a003000046eb00002e
:1000b80016ad0000a003000028e80000a00300001f
:1000c800a0030000a0030000a0030000a00300009c
:1000d800a0030000a0030000a0030000a00300008c
:1000e800a0030000a0030000a0030000a00300007c
:1000f800a0030000a0030000a0030000a00300006c
:10010800a0030000a0030000a0030000a00300005b
:10011800a0030000a0030000a0030000a00300004b
:10012800a0030000fcfc0000a0030000a0030000e6
:10013800a0030000a0030000a0030000a00300002b
:10014800a0030000a0030000a0030000a00300001b
:10015800a0030000a0030000a0030000a00300000b
:10016800a0030000a0030000a0030000a0030000fb
:10017800a0030000a0030000a0030000a0030000eb
:10018800a0030000a0030000a0030000a0030000db
:10019800a0030000a0030000a0030000a0030000cb
:1001a800a0030000a0030000a0030000a0030000bb
:1001b800a0030000a0030000a0030000a0030000ab
:1001c800a0030000a0030000a0030000a00300009b
:1001d800a0030000a0030000a0030000a00300008b
:1001e800a0030000a0030000a0030000a00300007b
:1001f800a0030000a0030000a0030000a00300006b
:10020800a0030000a0030000a0030000a00300005a
:10021800a0030000a0030000a0030000a00300004a
:10022800a0030000a0030000a0030000a00300003a
:10023800a0030000a0030000a0030000a00300002a
:10024800a0030000a0030000a0030000a00300001a
:10025800a0030000a0030000a0030000a00300000a
:10026800a0030000a0030000a0030000a0030000fa
:0c027800a0030000a0030000a003000091
:020000040000fa
:10040000cf9e24000eff24000e0188000000000093
:1004100000012000200288000c000700c0ae2b0065
:10042000010020000f000700000020000000e00095
:100430000200320000000200000000008a030200f7
:10044000010000000040da000000fe00a0e42000ef
:100450000000e0000200320000202000900188002f
:1004600000000600a1028800800078000000eb0078
:100470001a003700e280400054a0b4009101ba0095
:10048000e280400054a0b4009102ba00e280400033
:1004900054a0b4000002eb00472bde00f507b200c9
:1004a000a6018800602ce10008003a000049eb003a
:1004b0000201e800020039003420ec0002f0a00044
:1004c0008301e900f9ff3e00040037006128e100e4
:1004d000010032000082eb00040007001101ba00a5
:1004e0000200e000e3ff3a000000060004d0a30091
:1004f000e20f49001c003900810278003549ba003a
:100500000201e800020039003420ec0002f0a000f3
:100510008301e9000f0032002549ba000201e8001a
:10052000020039003420ec0002f0a0008301e90051
:10053000080032000400e0000600320015c9ba00cd
:100540000201e800020039003420ec0002f0a000b3
:100550008301e9008180e80054a0b4000300e000ba
:10056000e2ff3a00000006009102ba000559780047
:100570008301e900f7ff3200c82ade000559780040
:100580008301e900f3ff32000400e000f1ff3200d4
:1005900011d9ba00eeff370024b7040000000000b4
:1005a000bcfe040000000000bcd5040000000000f8
:1005b000c4d5040000000000e0d5040000000000e5
:1005c000e8d5040000000000baca040000000000e2
:1005d000daca040000000000c406040001000000a4
:1005e000cc06040001000000c4ca040000000000a2
:1005f000ceca040000000000e4fe04000000000079
:1006000082f0040000000000cafb040000000000ab
:100610000af7040000000000a4f604000000000037
:10062000a4f5040000000000acd0040000000000ad
:10063000a6cb040000000000becb040000000000b8
:10064000ac0b04000100000028e8040000000000da
:100650002e9e040000000000bcdb0400000000002f
:100660005cf8040000000000e6c404000000000084
:1006700058c804000000000024c704000000000067
:1006800040c80400000000009cc7040000000000f7
:10069000b2b6040000000000e4b604000000000050
:1006a00020b9040000000000d8320400000000005f
:1006b0005205040001000000420504000100000092
:1006c0000000fa0034aea900c028a900ffff3700df
:1006d0000000fa0034aea900c068a900ffff37008f
:1006e0000000fa0034aea900c048a900ffff37009f
:1006f0000000fa0034aea900c088a900ffff37004f
:100700000000fa0034aea900c028a900ffff37009e
:100710000000fa0034aea900c068a900ffff37004e
:100720000000fa0034aea900c048a900ffff37005e
:100730000000fa0034aea900c088a900ffff37000e
:100740000040da000000fe001004b1000700350090
:100750009001b100040034007000b10003003500c6
:100760009001b10001003c001000050000000500f0
:100770006900e100040035006d00e1000300340071
:100780000002b10001003200000005001000050069
:10079000800078001106b100030035009101b1001e
:1007a00001003c000050a100000006000000fa001b
:1007b000115888002258880033588800445888000f
:1007c0005558880066588800775888000058880077
:1007d00001eba8000080fa00000006000000fa000b
:1007e00091588800a2588800b3588800c4588800df
:1007f000d5588800e6588800f75888008058880047
:1008000011eba8000080fa00000006000000fa00ca
:1008100011598800225988003359880044598800aa
:100820005559880066598800775988000059880012
:1008300021eba8000080fa00000006000000fa008a
:1008400091598800a2598800b3598800c45988007a
:10085000d5598800e6598800f759880080598800e2
:1008600031eba8000080fa00000006000000fa004a
:100870002024ef000080fa00000006000000fa00cb
:100880002224ef000080fa00000006000000fa00b9
:100890002824ef000080fa00000006000000fa00a3
:1008a0002a24ef000080fa00000006000000fa0091
:1008b0000a24ef000468a90060208800e782600035
:1008c000cc2add00f4ff2800864280000602620088
:1008d0000502720084428800e880600074ff2f00e7
:1008e00025418000050262008100720021418800dc
:1008f0000080fa00000006002d0007000400be0082
:10090000000006000000fa00889fbe008a9fbe001b
:100910008c1f78000006eb00e00f5000e08f5800bd
:10092000e00f5900e08f590007003d006044b80017
:100930006055b8000000540081805c0002015d0039
:1009400083815d001c002000e00f5200e08f5a0000
:10095000e00f5b00e08f5b0007003d006044b800e3
:100960006055b8000402540085825c0006035d00f7
:1009700087835d000c00a2001d000700e00f5600f9
:10098000060032006022b8006033b8000000520058
:1009900081805a0002015b0083815b004f06780072
:1009a0004f05be004f04be000080fa0000000600a4
:1009b0006022b800060220000000d0008180d20032
:1009c0000482d2008582d2000000a0000202520000
:1009d00083825a00030031000202420083824a00ef
:1009e0000000a1000603e900f3ff3a000000060042
:1009f000889fbe008a9fbe008c9fbe000404b80082
:100a00000506b8008904460060854e000606b80059
:100a10000a054600e0854e000706b8008b05460033
:100a2000040eb800890446000a854e00e0854d009a
:100a3000050eb8000a0546008b854e00060eb8006c
:100a40008b0546000416b8000a0546008b854e004b
:100a50000516b8008b054600041eb8008b0546003d
:100a60000800be000a01be004f06be004f05be00d2
:100a70004f04be00000006000000fa00241b210005
:100a8000e08f510002003a00f31b210003027800be
:100a9000831f7800841f7800801f7800811f7800f2
:100aa000821f7800041c2100841f7800804f2300df
:100ab00001000700310207000000fa00680157003a
:100ac000ceb89700eb0207000080fa000000060095
:100ad0000400fa00889fbe008a9fbe008c9fbe0063
:100ae000041f2100858f8000e08f52000b003a0028
:100af000e4024200858f8800d58f88002402980088
:100b0000c48f8800a44290000504a00025429800ec
:100b1000e44290000504a00065429800670440008c
:100b20004244de004244dd00c28f80004466230060
:100b3000c99e24008484540025002000110009006f
:100b40008504d800000f78008502440085824200a9
:100b5000150798000003eb00e4054400fc9e240008
:100b60000406560008064600020037001600200062
:100b70000d01780022429000610262000200320002
:100b80000a0037001509780092027800254290008b
:100b900061026200fbff320008024100848f5200b4
:100ba00002003900e00f54003e003d00920678003c
:100bb0000d00a100828f5600edff3e00e10f5300b3
:100bc000eaff3a001e027800840f5400020036004b
:100bd000890f54000f0039006143b800614ab90021
:100be000b0ff2f0001002000040250008582580051
:100bf000840f5300858f5b00020035000b057800e1
:100c000005003700110009000986d8008905b800e1
:100c1000010037001e0590000a007800cb0a07008b
:100c2000e10f400005003a000b0578000b0078004a
:100c3000c60a0700e10f40002b003200d48f80006d
:100c4000000a7800d48f800064034200a442900020
:100c5000860f5000020032000504a000010037009a
:100c60000504a10025429800640555000a054000ce
:100c70000a087800da8f8800041f2100040d78002c
:100c8000d58f8000254290000404a000a442980063
:100c9000204290000404a100244098000003eb00cf
:100ca000b3ff3700c48f8800848f520007003600de
:100cb0001403be00e68f8800f78f8800120a7800c0
:100cc0008042eb00c48f800025429800c78f8000cf
:100cd00007097800224290000404a00024419800f3
:100ce00064004100010037000000eb004f06be0029
:100cf0004f05be004f04be000080fa000000060051
:100d00000000fa00e00f50000800320064005000bc
:100d1000c48f8000840f500001003100c08f880014
:100d2000204290000404a100244098000080fa00b2
:100d3000000006000000fa00889fbe008a9fbe00e7
:100d40000004be00e08f540005003a00e00f54009c
:100d50003200320008007800e9ff07003000370059
:100d6000e00f540004003a000900780058ff070023
:100d7000800478002a00370064025400940578004b
:100d800068fa9700610262000200320008007800f1
:100d9000dbff0700090078004dff070080047800a2
:100da000e08f54001e003200888f54001b00320078
:100db00069bd97000905550042d5de0088855500bc
:100dc000c2ddde000a0178008b0f550001003600fd
:100dd0000b0178004211dd008800780009007800de
:100de0002b000700888f54000d0031004255dd00b4
:100df0000a854400880f5500090036000804550094
:100e000042c4de004244dd0008844400e48f8000d8
:100e1000f58f8000048cbe00010037008804780044
:100e2000090078004f05be004f04be000080fa00a4
:100e3000000006000400fa00000f78000e0278009f
:100e4000012a78000d0037009e03780017407800d3
:100e50001e039000964278000201e900854f500081
:100e6000040032000080fb008582fb00050050007a
:100e700005003700070fe800060ae800e00f510000
:100e8000f1ff3a00020078000080fa00000006003e
:100e90000000fa000002780002003700315a7800a2
:100ea0000201e900e00f5100fcff3a000080fa0067
:100eb000000006000000fa0000027800020037007f
:100ec000015a78000201e900e00f5100fcff3a00ee
:100ed0000080fa00000006000c00fa00889fbe00a7
:100ee00000047800f4ff2700540798008004eb000a
:100ef00019079800080f780028079800240c200094
:100f00003407980068015700ceb897000e007800ab
:100f1000d80107001e027800094a78001e0014005c
:100f20004f04be000080fa00000006000000fa0036
:100f3000000278008042eb00b4cf1200fdff3a00bf
:100f40000080ea00000042000080fa000000060075
:100f50000000fa000b00370030427800e04f5200ea
:100f6000030032000201e900b14f520005003200d7
:100f70000480fb00954278008582fb00050050004c
:100f80000400370081027800e00f5100f2ff3a00c0
:100f9000020078000080fa00000006000a00fa0053
:100fa000889fbe008a9fbe008c9fbe0011079800dc
:100fb000820478000002eb0044aa89000102780054
:100fc000e00f520001003200000a780000057800ae
:100fd0003a4678000a0478000c00fb00e4fd0700a4
:100fe000e00f5000faff3a000c427800d5c2b3007f
:100ff000854f520004003a003842780015c0b30013
:10100000054f780005003700004f7800b5c2b300e7
:10101000854f520001003a003842780005c3b30002
:10102000854f520012003a0038427800e08f540099
:1010300002003200f08f54005c003a0085c7b30014
:10104000854f52000300320085c5b300854f520022
:1010500003003a00384278000901200053003700ad
:10106000e08f540051003a00890020004f00370003
:101070008042eb00e08f54004d003a004947980051
:10108000a90020006055b800614eb9008402fb0041
:10109000050078004407980035079800aafd07006e
:1010a0004e029000be029000e00f5000050032009a
:1010b00005007800b6fd070095ccb300054240005e
:1010c000050037000503b100e98f520020003e0003
:1010d00005cdb300054242008402fb00898f520017
:1010e0001a003d000402fb00cfa2de000c01be008e
:1010f0000a00be0044079800350798005b0c070003
:101100004e029000be029000040340008583480018
:101110008802e800860f5500878f5d0005003600c5
:101120002402200044aa89000504780010c0b300fe
:101130000700370018427800050478000605be0055
:1011400015c0b30045479800d0ff37000040eb00c2
:101150004e429000e04f5200040032009e02900088
:10116000e08f520001003200880ae900e14f500090
:10117000060032001e427800e04f520005003200a7
:1011800060051500e0851d00020037000085eb00ba
:101190008085eb000a00be004f06be004f05be0072
:1011a0004f04be000080fa000000060015c0b30026
:1011b00045479800b3ff37000200fa00889fbe0041
:1011c0008a9fbe008c1f780080057800810478001b
:1011d0000002eb0044aa89000b0678000c05780099
:1011e0000a0678003c4478000800fb00020f7800f3
:1011f0005ffd07001e017800e00f5000f7ff3a0086
:10120000d4c2b300844f54000300320004c2e9008a
:10121000844f540002003a000a05e800010037003c
:1012200004447800890078000a0078005bff07001a
:10123000e08f540007003200990f550025003a0056
:101240008b0c780023003700e00f5000e08f58002f
:101250000f003a00b4c2b300844f540004003a00b7
:10126000e00f5000e08f580015003d0008003700e7
:10127000d4c2b300844f540011003a00040020008f
:1012800005002800840f5000858f58000a003600a2
:101290002402200044aa8900f0ff2f00f1ff27005c
:1012a0006b424200844f540005003a0000002000c9
:1012b000010028000200370060001000e0801800e4
:1012c0004f0678004f05be004f04be000080fa00b4
:1012d00000000600998f5500deff3a00daff370064
:1012e0000000fa000002e9000080eb00e50f520068
:1012f00005003e0004024200805123000402400029
:1013000014007800010a78000080fa00000006004e
:101310000000fa00881f78000002e900e50f520083
:101320000f003e0004024200855123000482420067
:1013300014027800e00f520002003a001000200072
:1013400013000700e10f4200070032000004eb0029
:10135000e10f5200050032000400010003003700d5
:101360000084eb00010037000404780008007800d6
:101370004f0478000080fa00000006000000fa0028
:1013800010002000e2ff070010002000000007000e
:101390000200fa00000f7800020007001e0078002b
:1013a000a90807000000fa000080fa00000006000b
:1013b0000800fa00889fbe008a9fbe000084fb00e0
:1013c000d4c6b300844f50002c0036004b062000da
:1013d000110009000b84d8008105780072004000dc
:1013e0004300dd0029102100008044006022b80085
:1013f0000600200007fe23005001be004000be0092
:10140000f80a07000002be000203be00049fbe00ef
:101410000697be00aa002000110009008a85d800a6
:1014200080057800e9854500c35ddd008b854400bb
:101430003b02be002b03be003e00be002e01be00dc
:10144000e80a07000002be000203be00049fbe00bf
:101450000697be00110009000a84d8000104780034
:101460004344dd00888444003902be002903be00e5
:101470003e00be002e01be001d003700ea4f5000a6
:1014800013003600aa002000110009000a84d800c9
:1014900001057800690440004344dd002910210063
:1014a000088444006022b8000600200007fe2300e4
:1014b0003800be002801be00ca0a07004355dd00ff
:1014c0008a8444003902be002903be0008003700a8
:1014d0004344dd0024102100080442006022b800cb
:1014e0000600200007fe23003800be002801be00d1
:1014f000bc0a07004f05be004f04be000080fa0082
:10150000000006000800fa00889fbe008a9fbe0007
:10151000d4c6b300e04f500022003d000040ea0076
:101520000004fb00844f50000a00340044062000f1
:10153000110009000404d800a900200011000900ce
:101540008900d800e9004000c308dd002a1021000e
:1015500020003700ea4f50000f003400a4002000a4
:10156000110009000404d800690040004300dd00b8
:101570002410210000004200430cdd00080242005c
:101580005403be004402be005001be004000be0035
:10159000940a0700330037004344dd002410210083
:1015a0002d0037000004fb00844f50001f00340062
:1015b00044062000110009000404d800a9002000fe
:1015c000110009008900d800e9004000c308dd00cf
:1015d0002a052100810045003102be002103be0022
:1015e0008b0920008a8545003b00be002b01be0010
:1015f0007c0a07000002be000203be00049fbe007a
:101600000697be00110009000904d8000104780003
:101610004344dd00080545003a02be002a03be002f
:101620003e00be002e01be00d9ff3700ea4f500039
:1016300007003400a4002000110009000404d800b1
:10164000690040004300dd0024052100c9ff370088
:101650004344dd0024052100080442003800be0098
:101660002801be004f05be004f04be000080fa00f6
:10167000000006006800fa00889fbe008a9fbe0036
:101680008c9fbe0020279800410f980012279800d9
:101690006000b8006011b800101f9800211f98006a
:1016a000321f9800431f98000006eb0055073700d3
:1016b000ce0890008100e800410f980054c2b300aa
:1016c000844f500007003a00010278000003eb004d
:1016d000d0c2b30001c3b30002c2b30033c2b3002f
:1016e000070037000000fb00ae2090005007070005
:1016f000e10f4000430732000c06e80041073700c5
:1017000084037800b4427800b8c2b30088cf520096
:101710000f00320005003c0082cf52000a00320068
:1017200083cf520010003a000b00370080cf5200e8
:101730000300320081cf52000b003a00080037004e
:101740000630a000eeff37000600a000ecff3700d7
:101750000610a000eaff370006b0a000e8ff37003f
:101760000620a000e6ff370062026300010032009d
:101770000600a10068026300010032000620a100fb
:101780000502fb000403b100e90f52000d003e000a
:101790008702780004002000ea22b800b503fb00ad
:1017a0000703b10004824300850378001500fb00a5
:1017b0000003b100e90f5000f7ff3600342798000e
:1017c0000a0037000005eb003a279800a4c2b300d6
:1017d00084cf520005003a009e2590004b0078000f
:1017e0001b279800302798008703e800e4c2b30065
:1017f000974f12001b003a00860678000de0a0000b
:1018000064425200d74f1200030032008702780072
:10181000060020000c0037001e219000c201780055
:1018200012279800432798008703e80007007800f4
:1018300076c6b30007c7b300c1c6b3000e003700b9
:10184000ea33b80006034200850378003502fb0046
:101850000403b100e90f5200f9ff36004627980053
:10186000f2ff3700860678000dc0a0000002eb00f2
:1018700044279800edff3700b0427800400f9800f1
:1018800086cf52003000320017003c0034c6b3004f
:1018900084cf5200920032000e003c007c42520085
:1018a00084cf52003b00320006003c00e0cf5200e3
:1018b000d906320004c2e90084cf5200a6003a00e3
:1018c0003000370084c5b30084cf5200a2003a0034
:1018d0003700370054c6b30084cf52001c003200da
:1018e00025003c001c00370087cf5200300032003a
:1018f00009003c0081cf520019003200f4c6b30049
:1019000084cf5200270032006642520084cf52003a
:1019100091003a001000370054c7b30084cf520042
:10192000920032006342420084cf52000400320031
:101930006542520084cf520087003a0020003700f1
:10194000054f78001c003700064f78001300370061
:10195000054f78000d003700054f780085003700ef
:10196000f08266000401200001003200040028001b
:1019700084867600c0ff3700054f78000da0a000d8
:101980007c003700054f78000d50a0000d80a000ae
:1019900078003700054f78000d50a0000d90a00092
:1019a00074003700054f78000d60a000710037000b
:1019b000054f78000d50a0000d70a0006d0037009d
:1019c000054f78009e24900049027800192798005e
:1019d000042f9800e00f520002003a008b4d2300c4
:1019e0000b2f98000e2b90008002eb0001003700b7
:1019f0008502e800050243000040eb00944f100010
:101a0000fbff3a00152f9800ce209000e08f500089
:101a1000050032001e299000828f50000200310024
:101a200081017800132f98001e2a90000004eb001b
:101a3000be229000848f52000100360004845200c0
:101a4000e886660014003a0007003700ae209000d8
:101a50000002200076060700e10f4000010032007e
:101a60000c06e8000804e900e00f5400f7ff3a0014
:101a70000084eb00080037000e2a90003400fb00c1
:101a8000042f9800ae20900069060700e10f400087
:101a9000010032000c06e8001e2a90000403e90051
:101aa000162f9800e00f5200f3ff3a00e08f560027
:101ab0005406320007003700ae20900000022000dc
:101ac0005b060700e10f4000010032000c06e80051
:101ad0000804e900e00f5400f7ff3a004906370018
:101ae0009e2390004702780017279800040478008e
:101af000cfc4de00090578008a0578000800be0022
:101b00000a01be004800de00480add000000720045
:101b1000004f78007082660009003200e04f5000ec
:101b200007003200e14f40000500320010479800e6
:101b30002847980025002000152f98000300370043
:101b40001847980016002000162f98008e03e80012
:101b5000072f9800acff3700054f78000e2f980034
:101b600019002000192f9800a7ff3700054f7800b3
:101b70000d0cb3000470200004826600560432008d
:101b80000400210004826600020032006a00200086
:101b90004a27980070826600050032001e209000df
:101ba0004005be004004be00102798000600370024
:101bb0001e2190004200be00122798003408070042
:101bc0000004be000205be006022b8006033b80009
:101bd0000800be000a01be007f070700e00f5000aa
:101be00002003d000bf0a2003d00b3000002eb003c
:101bf000240798006022b8006033b8000800be00d7
:101c00000a01be00d8070700e00f50003300320081
:101c10000800be000a01be00690907006401470010
:101c2000be0807002e0090000000e900e300b800a5
:101c3000a4002000110009000400d800200798002b
:101c4000e00f500002003d000000e900200798006e
:101c5000ae019000032f98000340ea0029fe070020
:101c60000802be000a03be00de0807000002be0034
:101c70000203be00141f9800251f9800361f98000d
:101c8000471f98006022b8000600200007ff2300cd
:101c900051070700e00f500003003d008e2a90001e
:101ca0000502e9000c0037006022b80006002000a1
:101cb000470224001e189000ae1890003e199000b4
:101cc000ce19900049070700e00f500003003500cf
:101cd0000e2b90000602e80024079800ae03900047
:101ce000072f98000d0278000410b20009003a0096
:101cf0000d0278000420b200700232000700780064
:101d0000e40f400003003500ce209000810f50000a
:101d1000f50135004e219000e00f51000500320022
:101d20000d0278000420b200020032000201e90036
:101d300042279800ce21900024c1b300f28f5100b9
:101d400001003e000eca9000044f78006022b800e7
:101d50006033b8000800be000a01be008207070019
:101d6000e00f5000620032009e427800257f98000c
:101d70000ed3900005405300e2fd07000002be00b4
:101d80000203be000800be000a01be001c070700d7
:101d90000004be000205be000d0807005d08070034
:101da0000002be000203be000800be000a01be0021
:101db000010907006022b8000600200007fe23008a
:101dc0000a070700e00f5000080035006022b80045
:101dd0000600200007fe23000800be000a01be0026
:101de000800607000004be000205be000800be0019
:101df0000a01be00f6070700501798006117980007
:101e00008001eb00731798000002eb00041f98009c
:101e1000ae7a90008502fb00350798000502e800c5
:101e20004322dd0086242300040043003002be006c
:101e30002003be005e109000ee1090007e11900016
:101e40008e1990000400e1000588e1000690e10091
:101e50000798e1000c0039000400200005002a006a
:101e60009699290097fb23000800be000a01be00d6
:101e70005c0807000004be000205be008e2890002a
:101e80000102e800190037003e0190004312dd0016
:101e900083242300048241005403be004402be0098
:101ea0005e109000ee1090007e1190008e19900050
:101eb0000400e1000588e1000690e1000798e100d8
:101ec0000b0031006022b800060020004702240009
:101ed0000800be000a01be00420807000004be0060
:101ee0000205be008e2890000102e9002407980038
:101ef00004a020008482660004202000848f520009
:101f00004c003a004e219000f40f510002003400c2
:101f100043012000432798000800be000a01be00cc
:101f2000ab070700500f9800610f98008002eb008c
:101f3000750f98000003eb00061798000800be001c
:101f40000a01be00002f9800112f9800222f980040
:101f5000332f98005e0c9000ee0c90007e0d9000e8
:101f60008e1590000b003700ce2090008100e90014
:101f700041279800a4002000050020006033b8002d
:101f80000800be000a01be005d0907000205be0090
:101f90000004be00e00f5400e08f5c00e00f5d0025
:101fa000e08f5d000b003200a4002000050020003f
:101fb0006033b8000800be000a01be0059090700de
:101fc000e00f5000e08f5800e00f5900e08f5900fb
:101fd000e5ff3200580f9800690f98007a0f9800bb
:101fe0000b1798000e2c90009e2c90002e2d900028
:101ff000be2d90001e4078000002fb00ce22900013
:10200000848f52000b003d00054050003dfd07004d
:102010000002be000203be000800be000a01be00ae
:10202000770607000004be000205be000ecb90003c
:10203000064f7800be239000658253004e2090002a
:102040000002520034279800e00f500003003a00cd
:10205000048020000482660003003200be2090004d
:102060008100e90031279800638266000300320096
:102070003e2190000201e900322798006482660048
:102080002c003200e282660061826600e08f52001e
:1020900006003200b0022000e00f520001003200c2
:1020a0000080e800ae20900004003700e00f5200ee
:1020b00017003200ae20900000022000dc04070070
:1020c000e10f4000120032000c06e800100037005b
:1020d000ae20900000032000442f9800552f980058
:1020e000662f9800772f9800d10407004e2a9000a1
:1020f000de2a90006e2b9000fe2b9000e10f400036
:10210000010032000c06e8008904e90003003700f2
:102110000802be000a03be00be249000e08f5400f7
:10212000ebff3c00392798000404be000605be0002
:102130002c0037006882660018003a000802be00d2
:102140000a03be00be2490000f003700ae209000ae
:1021500000022000442f9800552f9800662f980009
:10216000772f9800b20407004e2a9000de2a9000d4
:102170006e2b9000fe2b9000e10f4000010032001a
:102180000c06e8008904e900e08f5400efff3c00f2
:10219000392798000404be000605be00e2826600ee
:1021a00061826600e08f520006003200b00220001b
:1021b000e00f5200010032000080e800ae209000e5
:1021c00004003700e00f520006003200ae209000fd
:1021d0000002200096040700e10f400001003200d9
:1021e0000c06e8000800be000a01be00f806070061
:1021f00010179800211798008002eb0035179800ff
:102200000003eb00461798009e03fb00571f980041
:10221000c33add0084242300050242003404be00da
:102220002405be000802be000a03be001e10900076
:10223000ae1090003e119000ce119000b008070043
:102240000403200000024200ae2090000400780049
:1022500077040700e10f4000010032000c06e8009f
:102260000802be000a03be001e109000ae109000cf
:102270003e119000ce119000aa080700002f980090
:10228000112f9800222f9800332f9800ce24900011
:10229000e08f540003003a000480200004826600ae
:1022a00054003200ae209000e002200060040700dd
:1022b000e10f4000320032000c06e8003000370029
:1022c0003e009000e00f50000c003200e00f540080
:1022d000e08f5c00e00f5d00e08f5d0007003a00da
:1022e000082f9800192f98002a2f98003b2f98004c
:1022f000004feb000004eb003c0037008502fb00c0
:10230000c32add0086242300850243003500be0079
:102310002501be00002f9800112f9800222f980051
:10232000332f98000203be000002be000800be006a
:102330000a01be00720807000403200000024200e8
:10234000ae2090000400780039040700e10f40003f
:10235000010032000c06e8000e2a90009e2a900030
:102360002e2b9000be2b90000800be000a01be007c
:102370006c0807000205be000004be00070037001d
:102380008d0078000120b200310798000e2c9000db
:102390009e2c90002e2d9000be2d90001e427800a5
:1023a0008442e900054f7800e04f5200c4ff3a0034
:1023b000082f9800192f98002a2f98003b2f98007b
:1023c000ce2290005e1b900006845200070037006a
:1023d000ae2090000003200015040700e10f40002c
:1023e000010032000c06e8000804e900e00f540088
:1023f000f7ff3a000d0278000402b2000300320039
:10240000ae2090005004200002003700ae20900063
:102410005006200006040700e10f400001003200d2
:102420000c06e8002e029000e00f520005003d006f
:102430000402ea0024079800ae209000d002200099
:1024400002003700ae209000b0022000f803070021
:10245000e10f4000010032000c06e8002e0490005d
:10246000a4002000110009000404d8000003b000fb
:10247000ae209000ee030700e10f400001003200a3
:102480000c06e800a4002000110009000404d80094
:102490000003200001004000ae209000e40307008c
:1024a000e10f4000010032000c06e800688266007f
:1024b000d4033200be239000e08f5300d1033400d8
:1024c00007047800ae20900000022000d803070027
:1024d000e10f4000010032000c06e8000804e900aa
:1024e000f8ff3a00c70337000e289000e00f5000b5
:1024f00004003d000082ea00ce209000848040006d
:10250000412798000800be000a01be00ff05070031
:10251000002f9800112f9800222f9800332f980039
:10252000812423000040eb000802be000a03be0025
:10253000541f9800651f9800761f98000727980081
:102540000c0037003102be003103be000e2c90009b
:102550009e2c90002e2d9000be2d90000440e10096
:1025600005c8e10006d0e10007d8e100030039000a
:102570000040e800f44f5000f2ff3a005e1c90006b
:10258000ee1c90007e1d90008e2590000002fb0046
:102590004e2090000400500040279800f80f500093
:1025a00009003c000ec8900081fb07000002be003d
:1025b0000203be000800be000a01be008904070035
:1025c0000004be000205be000ec89000cdfb07004f
:1025d0000002be000203be00541f9800651f980051
:1025e000761f9800072798000e2890009e289000dc
:1025f0002e299000be2990001b0607000002be0095
:102600000203be000800be000a01be00ea06070081
:102610000002be000203be005e189000ee1890009b
:102620007e1990008e2190006e060700b705070006
:102630000802be000a03be00042f9800152f980060
:10264000262f9800372f98000205be000004be0018
:102650000b003700a4002000050020006033b80004
:102660000800be000a01be00a50707000205be0063
:102670000004be00ce2290008502e90045279800a4
:102680004e239000e00f530019003200a4002000f8
:10269000050020006033b8000800be000a01be003b
:1026a000a0070700e00f5000e08f5800e00f59002e
:1026b000e08f5900e7ff32000d003700ce23900075
:1026c000f88f53000e003c000740780038fb0700ed
:1026d0000002be000203be000800be000a01be00e8
:1026e000400407000004be000205be0004003700dd
:1026f0000e2c90009e2c90002e2d9000be2d900050
:102700002e009000002f9800e90f500012003c00ae
:102710006022b8006033b8000800be000a01be00a5
:1027200011050700e00f50002f0032000800be0026
:102730000a01be0075050700e00f5000e08f580049
:10274000e00f5900e08f590027003a008e289000d2
:10275000e18f5000240034000400200005002e000a
:10276000b6e02200170124001e189000ae18900059
:102770003e199000ce19900097040700e00f50001a
:1027800003003d000e299000730251000200370043
:102790008e29900072825100240798004e409000cc
:1027a00058fb07000002be000203be00141f980081
:1027b000251f9800361f9800471f98000800be008c
:1027c0000a01be008e04070050050700002f980084
:1027d000112f9800222f9800332f98006044b800e2
:1027e0006055b800110037000800be000a01be00a5
:1027f00046050700002f9800112f9800222f9800ff
:10280000332f9800980507000002be000203be00a7
:102810000800be000a01be00670607000004be00f3
:102820000205be000002eb002407980001252300ea
:1028300010c0b3000802be000a03be0004379800af
:102840001537980026379800373798000c00370066
:102850003104be003105be000e2a90009e2a900071
:102860002e2b9000be2b90000820e10009a8e1006b
:102870000ab0e1000bb8e100030039000040e800b5
:10288000f44f5000f2ff3a000e3490009e34900056
:102890002e359000be359000004f78002e0290003b
:1028a000be229000048252004e2390008602520005
:1028b0000002fb00048252003427980004802000ac
:1028c00004826600541f980002003a00e00f530093
:1028d00003003200be2390008703e90037279800e9
:1028e00063826600030032003e2090000000e90091
:1028f00030279800648266002c003200e282660075
:1029000061826600e08f520006003200b0022000b3
:10291000e00f5200010032000080e800ae2090007d
:1029200004003700e00f520017003200ae20900084
:1029300000022000be020700e10f4000120032003a
:102940000c06e80010003700ae20900000032000c5
:10295000442f9800552f9800662f9800772f9800e5
:10296000b30207004e2a9000de2a90006e2b9000e2
:10297000fe2b9000e10f4000010032000c06e80041
:102980008904e900030037000802be000a03be0004
:10299000be249000e08f5400ebff3c0039279800e4
:1029a0000404be000605be004000370068826600d1
:1029b00018003a000802be000a03be00be249000c0
:1029c0000f003700ae20900000022000442f980036
:1029d000552f9800662f9800772f980094020700d3
:1029e0004e2a9000de2a90006e2b9000fe2b900065
:1029f000e10f4000010032000c06e8008904e90004
:102a0000e08f5400efff3c00392798000404be001b
:102a10000605be00e282660061826600e08f520019
:102a200006003200b0022000e00f52000100320028
:102a30000080e800ae20900018003700e00f520040
:102a40001a003200ae209000000220001300370070
:102a50008502fb00c32add0081242300858240001b
:102a60005503be004502be000e2890009e2890002f
:102a70002e299000be299000a1060700a400200086
:102a8000050020006033b800a606070004032000fc
:102a900000024200ae2090000400780064020700ab
:102aa000e10f4000010032000c06e8001e427800f1
:102ab0008442e900054f7800e04f5200e4ff3a00fd
:102ac0000802be000a03be0010003700ae209000ce
:102ad00000032000442f9800552f9800662f98007f
:102ae000772f9800520207004e2a9000de2a9000ad
:102af0006e2b9000fe2b9000e10f40000100320091
:102b00000c06e8008904e90029079800ae0490004b
:102b1000e08f5400edff3c000404be000605be003b
:102b20004e219000f20f51000300340024c1b30085
:102b3000044f7800020037008ec99000034f7800e0
:102b40009e4278000502fb004e23900004025300d1
:102b500034079800e0cf520003003a00de1b9000db
:102b6000e08f530006003200ae209000e00220000b
:102b70002f020700e10f4000010032000c06e800c0
:102b80001e4078005ffa07000002be000203be008c
:102b90000800be000a01be00120507005b04070022
:102ba0000205be000004be00002f9800112f9800ff
:102bb000222f9800332f9800240037008502fb0055
:102bc000c32add0080242300850240003500be00ba
:102bd0002501be00402798005127980062279800e1
:102be000732798000203be000002be000800be006a
:102bf0000a01be0042060700a400200005002000d4
:102c00006033b800470607000403200000024200ba
:102c1000ae2090000400780005020700e10f40009c
:102c2000010032000c06e8004e229000de229000e7
:102c30006e239000fe2390000800be000a01be0033
:102c4000380607000205be000004be001e427800e0
:102c50008442e900054f7800e04f5200d7ff3a0068
:102c6000082f9800192f98002a2f98003b2f9800c2
:102c70003e04900007003700ae20900000032000c3
:102c8000eb010700e10f4000010032000c06e800f4
:102c90000804e900e00f5400f7ff3a00688266007c
:102ca000d8013200be229000e08f5200d5013400de
:102cb00005047800ae20900000022000dc0107002f
:102cc000e10f4000010032000c06e8000804e900b2
:102cd000f8ff3a00cb0137008d027800050cb200f6
:102ce0003b003a00e08f560005003d001e2090009a
:102cf0004005be004004be00102798000f003700ba
:102d000070826600120032001e2290004401be0054
:102d100014279800020f9800130f980014029000d7
:102d20004fa2de00240f9800340f98000e0c900084
:102d30009e0c90002e0d9000be0d9000082f980064
:102d4000192f98002a2f98003b2f98000b0037006e
:102d50009e2490004902780019279800040078000a
:102d6000cf80de000101780082017800002f9800fa
:102d7000112f9800222f9800332f98000e2a9000d0
:102d80009e2a90002e2b9000be2b9000e00f520048
:102d9000e08f5a00e00f5b00e08f5b0030003d00e9
:102da0003d00b3006022b8006033b8000e2c9000e4
:102db0009e2c90002e2d9000be2d900008045200f5
:102dc00089845a000a055b008b855b002000370070
:102dd000e08f560005003d001e2290004401be0019
:102de0004400be00142798000d003700f0826600f2
:102df000100032001e2490004803be0018279800df
:102e000046079800570798006407980074079800d1
:102e10004e009000de0090006e019000fe019000d8
:102e2000002f9800112f9800222f9800332f980020
:102e30000b0037009e209000410278001127980077
:102e400004047800090020000a0020000b00200084
:102e5000082f9800192f98002a2f98003b2f9800d0
:102e6000ce249000e08f54000d003a001a0020009c
:102e70004a2798000e2890009e2890002e29900046
:102e8000be299000e00f5000e08f5800e00f59007d
:102e9000e08f5900020032008000eb0041279800cb
:102ea0008d047800090cb20004042000848f5400c3
:102eb0003500320003003c00e08f54000700320070
:102ec0004b00370004082000848f540015003200a6
:102ed000040c2000848f540045003a000125230093
:102ee00010c0b300090178003102be003103be00fa
:102ef0000e2c90009e2c90002e2d9000be2d900048
:102f00000440e10005c8e10006d0e10007d8e10077
:102f1000350039000040e800f44f5000f2ff3a005d
:102f20003100370010c0b30004012000050020006c
:102f30006033b800090178000e2c90009e2c9000a0
:102f40002e2d9000be2d90000440e10005c8e10048
:102f500006d0e10007d8e100230039004900200035
:102f60000402d0008582d2000683d2008783d2007b
:102f70008904e900faff3a000040e800f04f5000f1
:102f8000edff3a001800370010c0b30084002000a5
:102f9000050020006033b800090178000e2c900075
:102fa0009e2c90002e2d9000be2d90000440e1003c
:102fb00005c8e10006d0e10007d8e1000a003900a9
:102fc000390020000402d0008582d2000683d2009e
:102fd0008783d2008904e900faff3a000040e80044
:102fe000f54f5000edff3a0082047800004f780062
:102ff0001e02fb004e2590008a0f520002003d0089
:103000000a4f780004003700ce259000848f5500c9
:1030100001003d00442798003e209000e00f500042
:103020000400320063826600020032000000e90002
:103030003027980004002400048266000900320052
:10304000be2090004e219000828f5000030034007b
:103050008280500031279800020037008001eb0089
:1030600033279800448c2000848266004408b10015
:10307000848f520006003a003e229000e00f52007a
:10308000100032000402e900342798000d003700d8
:10309000048c2000848266000404b100848f5200f6
:1030a00008003a00be229000e28f52000300340074
:1030b0008582e90035279800020037000003eb0005
:1030c000362798001e02fb000004eb00be23900090
:1030d000848f53000100340004845300648266002e
:1030e0002d003200e282660061826600e08f5200ad
:1030f00005003200b0022000e00f5200170032003d
:103100000080e80015003700e00f52000300320095
:10311000ae2090000002200011003700048c200037
:10312000848266000404b100848f520010003a00cb
:10313000ae20900000032000bd000700e10f40001a
:10314000010032000c06e8000d0278000402b20013
:10315000800720000100320080052000ae20900092
:10316000b3000700e10f4000010032000c06e80048
:10317000e00f540090003200ae20900000032000c9
:10318000ab000700e10f4000010032000c06e80030
:103190000804e900f6ff3700e00f54000a0032008f
:1031a0006882660008003a00ae209000000220000d
:1031b0009f000700e10f4000010032000c06e8000c
:1031c0000804e900f8ff3a00e282660061826600c6
:1031d000e08f520006003200b0022000e00f5200e3
:1031e000010032000080e800ae20900004003700ab
:1031f000e00f520006003200ae20900000022000d6
:103200008b000700e10f4000010032000c06e800cf
:10321000048c2000848266000408b100848f520070
:1032200003003a00ae209000000320000f0037009a
:1032300004882000848f52005f003a00ae20900086
:10324000000320007a000700e10f40000100320077
:103250000c06e8000d0278000402b200800720008e
:103260000100320080052000ae20900070000700b1
:10327000e10f4000500032000c06e8004e0037001d
:10328000ce2590008b05e9004b2798008a8f5400cb
:103290003100320003003c00e08f54000700320090
:1032a0003e00370004082000848f540014003200d0
:1032b000040c2000848f540038003a004e20900007
:1032c0004302dd0081242300010242005403be00ba
:1032d0004402be000e2890009e2890002e299000e7
:1032e000be29900086040700a400200005002000ed
:1032f0006033b8008b04070004c3b3002600370016
:10330000744c2300be229000e08f52000100320076
:10331000644b23004e239000c232dd000e28900043
:103320009e2890002e299000be2990008502e90079
:10333000050033008301d1000281d3008180d300d6
:103340000080d300f9ff37006f00600000004200ea
:10335000104f780011003700ce239000e33ab800f8
:103360000e2890009e2890002e299000be299000e3
:10337000840578008b05e900050033008301d10046
:103380000281d3008180d3000080d300f9ff370091
:103390006742600000c3b300004f42001e00fb0004
:1033a000ae20900022000700e10f4000060032002e
:1033b0000c06e800040037000a0420008d007800a5
:1033c0000102b200312798004e219000e00f510019
:1033d000abff3a00688266000a003200e00f54003a
:1033e00008003400ae20900000022000100007000a
:1033f000e10f4000010032000c06e8000804e9007b
:10340000f8ff3a00ce09900013407800004f780092
:10341000e04f5000a6f83a000c0078004f06be00be
:103420004f05be004f04be000080fa0000000600f9
:103430000000fa00889fbe00010478003802900066
:10344000e20262008084eb003b003200040378005b
:103450000620b2009802900002003a00e08f52006d
:1034600035003a000490a0003404980080047800ed
:10347000f90fb200e08f520002003a00a80290005b
:10348000050c7800ea8f540005003a000408b200e9
:1034900003003a0088007800d0002000e4ff070015
:1034a00018029000d8029000850f52000b003200e5
:1034b0000402e8001404980018027800094a780011
:1034c000040ce80015c0b300e4532300054a78005b
:1034d000ea8f540018003a00050037008800780091
:1034e00009407800180007008004780012003700b7
:1034f000380290000410b2000f0032001801900052
:10350000a80090004800900060000700180290009a
:10351000840f500004003200380290000403b3000e
:10352000340498008084eb000002eb00140498003f
:1035300028029000040c7800090078004f04be00b7
:103540000080fa00000006000200fa00889fbe001a
:10355000004f78000104780038029000840278005f
:103560000504b200020032000000fb003300370007
:10357000e202620005003a000403b300340498003c
:10358000150498000080eb002c003700d804900050
:10359000e08f540006003a00120020008e007800f0
:1035a00048009000390007001904980022003700f5
:1035b000a8029000e08f520008003a001554230042
:1035c00025049800050c780025002000550498007b
:1035d000150498000430a0003404980018019000ed
:1035e000a8009000480090002800070028029000e2
:1035f0008082eb00150498001e4a7800040ce80055
:10360000a4c0b3009e4f12000b003a003802900095
:103610000410b2000800320018019000a8009000c9
:1036200048009000190007000002eb001404980005
:1036300028029000040c78001e00fb004f04be001e
:103640000080fa00000006000000fa00041180006b
:10365000e00f520007003d000440200015118000db
:1036600005026200e00f5200020032002302ab00ac
:10367000feff32000040da00feff37000000fa00d3
:1036800000c0da000080fa00000006000a00fa001c
:10369000e20f500022003e0064aa8100e10f5200b8
:1036a0000600320087232000462320002423200028
:1036b00005232000e08f530004003a0087222000f9
:1036c000462220002422200005222000000028009d
:1036d0001500600003003a00800b78000700280006
:1036e000958a7300054020009482620001003a0030
:1036f00014a0a0008202780006003700940378002e
:103700000710b200fdff3200b103fb00070b780089
:103710008502e900e08f5200f8ff3a000800370008
:1037200034002000040f780010079800210798004b
:10373000320798000e007800d0ff07003e0190008d
:10374000020078000080fa00000006000000fa0085
:10375000889fbe008004780070aa8100e00f5000ae
:1037600004003a000f0007000084eb00e00f500057
:103770000800350078aa8100e08f5400050032006f
:103780000900440007000700e00f500001003d0061
:103790000084eb00080078004f04be000080fa00af
:1037a000000006000000fa00e00f500004003a009c
:1037b0004466230074aa89000002780006003700de
:1037c0000082eb00c59e2400850f500002003e00e1
:1037d00070aa89000002eb00040078000080fa0063
:1037e000000006002800fa00889fbe008a9fbe00e5
:1037f0008c9fbe0007067800878669000c003b009e
:10380000030478008704780008f0a10009f0a10003
:10381000840f5000858f5800860f5900890f5c0077
:10382000030033000cf0a20001003a000cf0a100ec
:10383000fe0007006400e1005f00320078014700ed
:103840006408e100610032006c0147007485570094
:103850003200be001201be003a04be001a05be00ce
:103860001e039000be0a90008503530006003d0031
:103870000004fd008104fd000205fd008305fd003c
:103880008703ea00050378000df8a3000400320066
:1038900060041400e0841c0060051d00e0851d002c
:1038a0006022b8007d0320000d38e1008006eb00a7
:1038b0000b0039004433dd00f300b20083017300d4
:1038c00039003700848272000d027800e10664003e
:1038d0008b85d1000a85d3008984d3000884d30066
:1038e0008703e900f7ff3b0008004000898048009b
:1038f0000a0149008b81490004003b006000100070
:10390000e080180060011900e08119000358a3004d
:10391000090032008d8272008482720061026000b0
:103920008301d1000281d3008180d3000080d300c5
:103930000603e8001b0037000348a30017003a0005
:103940000600e000170034000603e9000d00a300a4
:10395000000048008180480002014900838149003d
:103960000348a3000f003a000600e00009003400fd
:103970000603e90000004000818048000201490080
:103980008381490001003a000003eb000348a300d3
:10399000f5ff32006022b800020037008482720016
:1039a000618266007500070003f0a1000cf0a7001b
:1039b00003f0a000b1003700640147006408e10093
:1039c00002003a000df8a300a9003a003200be0040
:1039d0001201be00a90037008f1fd1003903070074
:1039e0008f87e9000000e00000000600809feb00e8
:1039f000340307008f87e9000000e00000000600a4
:103a00002800fa00889fbe008a9fbe008c9fbe00df
:103a100003866b00850007006400e100440032006b
:103a20006408e1004a0032006100e1004600320013
:103a30006108e10049003200ec0647006000b80070
:103a40003d02be003d03be00f48657006011b80081
:103a50003d04be003d05be007d0320000b00370085
:103a60000000a0008d06e9001300320004024200ad
:103a700085824a0006034b0087834b00000040000c
:103a800081804800020149008381490008025200f8
:103a900089825a000a035b008b835b00f0ff3b00c6
:103aa0000802420089824a000a034b008b834b00c4
:103ab0008d06e900edff3a00848272008682720072
:103ac000f707b20087827200010032001500200063
:103ad0001e0490003e0b900006035400e63fb00029
:103ae0000368a300070032000000a7000500a00043
:103af0008301d1000281d3008180d3000080d300f4
:103b00000603e8008301d1000281d3008180d30045
:103b10000080d3000002eb000482d20017000700ef
:103b200003f0a1000cf0a70003f0a0005300370041
:103b3000640247006408e1004d0032003400be001a
:103b40003401be00f6ff37006108e1004800320092
:103b50006011b8006000b800f1ff370003ff2700d4
:103b600002002000fbff3700801feb00d50207009a
:103b70008f87e9000000e000000006001800200028
:103b800057002000080453000d003d0006002000ef
:103b900097fc2f000740e1001e0034008482720071
:103ba000610260008301d1000281d3008180d300d3
:103bb0000080d3000804e800f8ff3a004700200026
:103bc0006104600005047400040464000d00320008
:103bd00061004000e080480060014900e081490048
:103be00003b8a500070032000603e8006538e100cd
:103bf00004003a008301d1000281d3008180d30008
:103c00000080d300f87f20000830e1000300350079
:103c1000080378006000b8006011b8004433dd008c
:103c2000f300b2008301730000000600680447003f
:103c30000294be000094be00fc0447008694be00bf
:103c40008494be0009007800e702070008007800ad
:103c5000e502070099007800814f70000b003b00df
:103c60000800be00c00207004f00b100030037008b
:103c7000f3ff2700f2ff2f006110b9004f06be00ce
:103c80004f05be004f04be000080fa000000060091
:103c900081037800be0007000001be006000b8008c
:103ca0000478a30013003a006220e10015003e00f2
:103cb0000d0039008301d1000281d3008180d3003f
:103cc0008301d1000281d3008180d3008301d10020
:103cd0000281d3008180d3000538b000c42add0002
:103ce000f300b2008381720007f0a70003f0a00088
:103cf00000000600f3ff2700f2ff2f006110b9005b
:103d0000fbff370003ff2700f7ff37001400fa001e
:103d1000889fbe008a9fbe008c9fbe000004be002c
:103d20000205be00680047000a90be000890be0071
:103d3000ad0207000070a7000bf0a1000bf8a30074
:103d400020003a009e0990000e099000fe009000ad
:103d50006e0090009e029000344320008482520046
:103d6000c6ff32000a003c00b4fc2f000428e1002a
:103d7000140034008301d1000281d3008180d3007c
:103d80000080d3008502e800faff3a00bbff37004d
:103d9000b40020000428e10007003c0000004000bf
:103da0008180480002014900838149008502e900c1
:103db000faff3a00b1ff370003002800020020009c
:103dc000010037006011b8006000b800abff370099
:103dd0001400fa00889fbe008a9fbe008c9fbe0020
:103de0000004be000205be00680047000a90be0045
:103df0000890be007c0207000070a7000bf0a10035
:103e00000bf8a30016003a009e02900030432000f9
:103e100080825200b0fe2f000028e1000d003c001f
:103e2000b0fc2f000028e1000d0034001e099000b6
:103e30008e0890007e0090000501b0000201d100c4
:103e40008180d3000080d3008502e800fbff3a00a8
:103e50008aff3700010028000000200087ff37009c
:103e60006000b80085ff3700889fbe0000827000a8
:103e700004027100048271002400320036432000e5
:103e8000c50020008383cf000a0039000541b1003e
:103e90008283cf00070039000541b1008183cf0044
:103ea000040039000541b1008083cf0001003900d2
:103eb0000541b10085c353006022b80012003200f2
:103ec0000a003b0084827200610260008301d1001d
:103ed0000281d3008180d3000080d3000603e80074
:103ee0008743e800f7ff3a00070037000000400072
:103ef0008180480002014900838149000603e900ee
:103f00008743e900f9ff3a001cff07004f04be0099
:103f1000000006006011b800d3ff37001400fa005b
:103f2000889fbe008a9fbe008c9fbe00040678005a
:103f30000004be000205be00680047000a90be00f3
:103f40000890be00280207006200e1000800be00e1
:103f50000a01be00040020000b003a001e0290007f
:103f6000e43fb1006e009000fe0090000e0990004a
:103f70009e099000f300b20005fe230085817100c8
:103f80000bf0a70003f0a000040e78003bff370001
:103f9000c70ade00f107b200f50fb20008003200d8
:103fa000e1cf4200020032000170a00024000500b1
:103fb000810f700001003200040805004400050074
:103fc000810f700002003a00140005008502e9002c
:103fd0000000400081c04800fcff3b000170a000d1
:103fe000240005002800fa00889fbe008a9fbe00ba
:103ff0008c9fbe0003866b000cff07000028a30007
:1040000064003a000128a30067003a000008a300fa
:1040100062003a000108a30065003a001e0090000b
:10402000be08900081064000ed3fb100f4805700cb
:10403000ee019000111ab8008e099000311bb800f3
:104040009e099000311cb800511db800f48557003e
:1040500046000700fe0190003a0007008b85e8004b
:104060003e0007008e09900040000700ee0190001e
:10407000340007008b85e800380007008e099000a7
:10408000400007009e0990001b18b80089044000fa
:104090000a854800fe019000340007008b85e80087
:1040a00038000700ee019000300007008e099000f4
:1040b0001b18b800890440000a8548000a98a3002c
:1040c00008003a000402420085824a0006034b00c1
:1040d00087834b0008044c0089844c000a054d007e
:1040e0008d06e90084827200850273004c3add007f
:1040f000850272000100320015002000443ade0003
:104100001400b2004538de00cb45dd000b00700026
:10411000c540de00cb4ddd008b8070004549de00e0
:10412000cb55dd000b017100c551de000d03780099
:1041300092fe070003f0a1000cf0a70003f0a0001e
:10414000cefe37001b18b8008502400006834800e9
:10415000e0834b0060044c00070037001b18b800d8
:104160000603400087834800faff37001b18b80099
:104170008703400008844800e0844c0060054d003f
:10418000000006001b18b80008044000898448009d
:10419000faff37000108a300b5fe3a005800be0040
:1041a0005801be00e3ff37000008a300b0fe3a004c
:1041b00009047800f9ff370007f0a20089fd3700f5
:1041c0001400fa00889fbe008a9fbe008c9fbe002c
:1041d0000005be000206be00680047000c90be004d
:1041e0000a90be00800107006400e1001a0032005e
:1041f00016003e006100e1001a0032006e049000db
:10420000fe0490000e0b90009e0b90006011b80011
:104210009e0590000b38b100d5012000828171000d
:10422000610164008703d1000683d3008984d30031
:104230000884d3008502e900f8ff3a0091010700e5
:104240000df0a70001f0a0008cfe3700f1ff270061
:10425000f0ff2f0089fe370001f827000000200042
:10426000f7ff37006000b800f5ff3700020ab90019
:10427000001bb9000200b800810042008100430029
:10428000000006000000fa00889fbe008a9fbe0062
:104290003004be002005be000404440085844c00a8
:1042a00006054d0087854d000898be000a90be00a7
:1042b0000440e10005c8e10006d0e10007d8e100b4
:1042c00002003100680040001008e8004f05be0001
:1042d0004f04be000080fa00000006001000fa0043
:1042e000889fbe008a9fbe000605be000404be0073
:1042f0003002be002003be00049fbe000697be0031
:104300000802520089825a000a035b008b835b001b
:1043100044079800550798006607980077079800ab
:104320000498be000698be00110020003e02be00a8
:104330002e03be000820e10009a8e1000ab0e10058
:104340000bb8e100010039008000eb00108810007c
:104350004f05be004f04be000080fa0000000600ba
:104360001400fa00889fbe008a9fbe008c9fbe008a
:10437000590007000605be000404be000006eb005d
:104380004c0798003c0798002c0798001c079800e1
:104390000c0f78000d0420004e039000be02900028
:1043a000860343002e029000e00f530003003d00ff
:1043b0002a000700b3ff07000200370027000700ac
:1043c000c6ff0700ce029000150f9800e08f520044
:1043d00009003500450007001400200005002000fa
:1043e0006033b80000007200818072000201730027
:1043f00083817300380007000c06e8008d0f56001b
:10440000e5ff3a001e0a9000e00f520004003d0054
:104410000802be000a03be000e00780099ff0700e4
:104420004eba9700e00f520006003a003e04be006c
:104430002e05be0058079800690798007a07980073
:104440000b0f9800290007004f06be004f05be0065
:104450004f04be000080fa00000006004f2bde0073
:1044600087037300470798004f23de0085824200d0
:1044700085027300350798009e0290004f2bde00e6
:104480000402420004027300240798001e02780010
:104490004f23de00858242008502730015079800d5
:1044a000120007004f18de0004024200000f7200e5
:1044b0000e00070000004000818048000201490012
:1044c00083814900040007000802be000a03be0001
:1044d0000e00780000000600500798006107980061
:1044e00072079800030f9800000006005e0090001d
:1044f000ee0090007e0190008e0990000000060002
:104500000000fa00881f780018002000881f78003b
:1045100093ff07008f87e9004f0478000080fa00be
:10452000000006000000fa00801feb008cff07006f
:104530008f87e9000080fa00000006000000fa0002
:10454000889fbe008a9fbe00e00f5000e08f580099
:10455000e00f5900e08f59000c003d006044b800a6
:104560006055b8000000540081805c0002015d00cd
:1045700083815d00180020001600070008003d0040
:10458000190007000004eb00050037000004eb00f1
:104590001000070002003d00130007001800200073
:1045a000d7ff0700e00f5400060032006022b80079
:1045b0006033b8000000520081805a0002015b00a5
:1045c00083815b004f05be004f04be000080fa00ef
:1045d00000000600e00f5200e08f5a00e00f5b0081
:1045e000e08f5b00000006006044b8006055b80032
:1045f0000402540085825c0006035d0087835d0031
:10460000000006000000fa00889fbe008a9fbe00de
:104610008c1f7800e00f5000e08f5800e00f590029
:10462000e08f59000d003d006044b8006055b800af
:104630000000540081805c0002015d0083815d0008
:104640001c0020000820e10009a8e1000ab0e100f8
:104650000bb8e1000d003d00080037000006eb003c
:10466000e00f5200e08f5a00e00f5b00e08f5b002c
:1046700006003d006044b8006055b80004025400d4
:1046800085825c0006035d0087835d00a5ff07004f
:10469000e00f5600060032006022b8006033b80018
:1046a0000000520081805a0002015b0083815b00a0
:1046b0004f0678004f05be004f04be000080fa0090
:1046c00000000600889fbe008a9fbe008c9fbe002f
:1046d0000404be000605be00809fbe00829fbe008f
:1046e0002f000700040678000800be000a01be0083
:1046f0002b000700840678004f03be004f02be0067
:104700008d4f76007fb0970013003300f0ff2f002d
:104710008b8f6b0006003b000d0666000c00a700a7
:104720000a00370007f0a600100020000a0037003a
:10473000880f5200898f5a008a0f5b008b8f5b00b5
:10474000030039001000200001003e00000020009e
:1047500007f0a7000000ea004f06be004f05be00ac
:104760004f04be0000000600e48240001078a30061
:1047700007003200640240001178a3003400be003c
:104780001401be00040032000330a7000000060040
:104790003500be001501be000330a0000000060079
:1047a00005ff270005826100070032000428e100b0
:1047b00001003200240005000600070001003a0055
:1047c000440005000408050002000700f9ff3a0054
:1047d000140005006f826100810270008502710083
:1047e0008502720000000600800078005002be00c2
:1047f0005003be004439de00f700b200f37f200012
:1048000003016100090032000218e10016003a00bd
:10481000850172008301730083817300000820000a
:1048200015003a0040002000130037008501720097
:10483000830173008381730005003a0004a8be0061
:1048400006a8be00100020000b0037000201e9009e
:104850000402420085824a0006034b0087834b0016
:104860000748a300f9ff32000740a00004a8be00db
:1048700006a8be002000200080009800920098004a
:104880000000060081002000618055000b003d0003
:104890000b00200061fe2f000100e1001d0034002c
:1048a00082817100610164008904d1000884d30011
:1048b0000000e800faff3a00710020006100640087
:1048c000030070000200600009003200610444002f
:1048d000e0844c000988a500050032008b05e80043
:1048e0006808e10002003a008904d1000884d3007e
:1048f000f20f20000258e10005003d00c75ddd0019
:10490000f907b200898075000800780000000600f1
:0c4910000bf827008b0078000000050069
:020000040000fa
:10491c00444500004c450000544500000047000091
:10492c0045540000004800004541000044000000d0
:10493c00504f00005354000000500000555400002c
:10494c00004300004f4e00004e4500004354000051
:10495c00004f000050540000494f00004e5300001f
:10496c000054000052410000434500000043000089
:10497c004f500000590000004c4f0000434b00000a
:10498c00004d00004b4300004f4c0000004d000058
:10499c004f56000045000000505200004f500000e0
:1049ac00464900004e44000000500000524f0000e9
:1049bc0050500000415400004348000000530000d8
:1049cc00454100005243000048000000554e0000d5
:1049dc004c4f0000434b00000052000045500000bb
:1049ec004f520000540000004d4b000041430000aa
:1049fc00544900005649000054590000004300007f
:104a0c0048450000434b00004f5500005400000087
:104a1c004d45000052470000450000004d2d0000a0
:104a2c00534500004152000043480000004e000076
:104a3c004f54000049460000590000005355000037
:104a4c004253000043520000494200004500000060
:104a5c00554e0000535500004253000043520000d5
:104a6c004942000045000000504100005443000042
:104a7c00480000005055000052470000450000005f
:104a8c00000000000000000000000000000000001a
:104a9c00000000000000000000000000000000000a
:104aac0000000000000000000000000000000000fa
:104abc0000000000000000000000000000000000ea
:104acc000021000000230000242500002627000000
:104adc00000000002a2b0000002d00002e0000001a
:104aec00303100003233000034350000363700001e
:104afc003839000000000000000000000000000039
:104b0c0000610000626300006465000066670000dd
:104b1c00686900006a6b00006c6d00006e6f00002d
:104b2c0070710000727300007475000076770000dd
:104b3c00787900007a000000000000005e5f000041
:104b4c00606100006263000064650000666700003d
:104b5c00686900006a6b00006c6d00006e6f0000ed
:104b6c00707100007273000074750000767700009d
:104b7c00787900007a0000007c0000007e000000c4
:104b8c000000000000000000000000000000000019
:104b9c000000000000000000000000000000000009
:104bac0000000000000000000000000000000000f9
:104bbc0000000000000000000000000000000000e9
:104bcc0000000000000000000000000000000000d9
:104bdc0000000000000000000000000000000000c9
:104bec0000000000000000000000000000000000b9
:104bfc0000000000000000000000000000000000a9
:104c0c000000000000000000000000000000000098
:104c1c000000000000000000000000000000000088
:104c2c000000000000000000000000000000000078
:104c3c000000000000000000000000000000000068
:104c4c000000000000000000000000000000000058
:104c5c000000000000000000000000000000000048
:104c6c000000000000000000000000000000000038
:104c7c000000000000000000000000000000000028
:104c8c00ffff0000ffff0000ffff0000ffff000020
:104c9c00ffff0000ffff0000ffff0000ffff000010
:104cac00ffff0000ffff0000ffff0000ffff000000
:104cbc00ffff0000ffff0000ffff0000ffff0000f0
:104ccc00ffff0000ffff0000ffff0000ffff0000e0
:104cdc00ffff0000ffff0000ffff0000ffff0000d0
:104cec00000100000203000004050000060700009c
:104cfc0008090000ffff0000ffff0000ffff00009d
:104d0c00ff0a00000b0c00000d0e00000fff00004e
:104d1c00ffff0000ffff0000ffff0000ffff00008f
:104d2c00ffff0000ffff0000ffff0000ffff00007f
:104d3c00ffff0000ffff0000ffff0000ffff00006f
:104d4c00ff0a00000b0c00000d0e00000fff00000e
:104d5c00ffff0000ffff0000ffff0000ffff00004f
:104d6c00ffff0000ffff0000ffff0000ffff00003f
:104d7c00ffff0000ffff0000ffff0000ffff00002f
:104d8c000000000000000000000000000000000017
:104d9c000000000000000000000000000000000007
:104dac0000000000000000000000000000000000f7
:104dbc0000000000000000000000000000000000e7
:104dcc0000000000000000000000000000000000d7
:104ddc0000000000000000000000000000000000c7
:104dec0000000000000000000000000000000000b7
:104dfc0000000000000000000000000000000000a7
:104e0c000000000000000000000000000000000096
:104e1c000000000000000000000000000000000086
:104e2c000000000000000000000000000000000076
:104e3c000000000000000000000000000000000066
:104e4c000000000000000000000000000000000056
:104e5c000000000000000000000000000000000046
:104e6c000000000000000000000000000000000036
:104e7c000000000000000000000000000000000026
:104e8c000000000000000000f6ff0000ff7f0000a3
:104e9c00ffff0000ffff0000ffff0000ff7f00008e
:104eac0000000000000000000000000000000000f6
:104ebc0000000000000000000000000000000000e6
:104ecc0048500000455f00004f4b0000007300008d
:104edc0075630000636500007373000000480000f8
:104eec00504500005f430000425f00006d6500000c
:104efc007373000061670000655f0000626500006d
:104f0c00676900006e0000007468000065200000f6
:104f1c006f6e00005f6d0000657300007361000030
:104f2c00676500005f62000065670000696e000045
:104f3c0020630000616c00006c6200006163000083
:104f4c006b20000066610000696c00006564000065
:104f5c0000480000504500005f430000425f000025
:104f6c007374000061740000757300005f630000cf
:104f7c006f6d0000706c000065740000650000002f
:104f8c0074680000652000006f6e00005f73000005
:104f9c007461000074750000735f0000636f0000a3
:104fac006d7000006c6500007465000020630000eb
:104fbc00616c00006c620000616300006b200000fb
:104fcc0066610000696c0000656400000048000028
:104fdc00504500005f430000425f00007572000006
:104fec006c00000074680000652000006f6e00000b
:104ffc005f750000726c000020630000616c0000a3
:10500c006c620000616300006b20000066610000b0
:10501c00696c000065640000004800005045000009
:10502c005f430000425f000068650000616400009f
:10503c00657200005f660000696500006c6400002a
:10504c000074000068650000206f00006e5f0000b7
:10505c006865000061640000657200005f66000016
:10506c00696500006c64000020630000616c000046
:10507c006c620000616300006b2000006661000040
:10508c00696c000065640000004800005045000099
:10509c005f430000425f000068650000616400002f
:1050ac00657200005f760000616c000075650000a1
:1050bc000074000068650000206f00006e5f000047
:1050cc006865000061640000657200005f76000096
:1050dc00616c00007565000020630000616c0000cd
:1050ec006c620000616300006b20000066610000d0
:1050fc00696c000065640000004800005045000029
:10510c005f430000425f00006865000061640000be
:10511c0065720000735f0000636f00006d7000002b
:10512c006c65000074650000007400006865000088
:10513c00206f00006e5f0000686500006164000075
:10514c0065720000735f0000636f00006d700000fb
:10515c006c6500007465000020630000616c000049
:10516c006c620000616300006b200000666100004f
:10517c00696c0000656400000048000050450000a8
:10518c005f430000425f0000626f00006479000022
:10519c000074000068650000206f00006e5f000066
:1051ac00626f00006479000020630000616c0000f5
:1051bc006c620000616300006b20000066610000ff
:1051cc00696c000065640000004800005045000058
:1051dc005f430000425f00006d65000073730000c8
:1051ec0061670000655f0000636f00006d70000078
:1051fc006c650000746500000074000068650000b8
:10520c00206f00006e5f00006d650000737300007e
:10521c0061670000655f0000636f00006d70000047
:10522c006c6500007465000020630000616c000078
:10523c006c620000616300006b200000666100007e
:10524c00696c0000656400000048000050450000d7
:10525c005f4900004e560000414c000049440000dc
:10526c005f4500004f4600005f53000054410000b2
:10527c00544500000073000074720000656100006a
:10528c006d200000656e0000646500006420000065
:10529c0061740000206100006e200000756e00003b
:1052ac0065780000706500006374000065640000a0
:1052bc0020740000696d000065000000485000007b
:1052cc00455f000048450000414400004552000085
:1052dc005f4f000056450000524600004c4f000046
:1052ec0057000000746f00006f2000006d6100001b
:1052fc006e790000206800006561000064650000a4
:10530c0072200000627900007465000073200000b8
:10531c0073650000656e00003b2000006f76000096
:10532c0065720000666c00006f770000206400005e
:10533c006574000065630000746500006400000083
:10534c0048500000455f0000434c00004f530000e4
:10535c00454400005f4300004f4e00004e450000e6
:10536c0043540000494f00004e00000064610000ef
:10537c007461000020720000656300006569000024
:10538c007665000064200000616600007465000012
:10539c0072200000636f00006d7000006c650000ef
:1053ac007465000064200000636f00006e6e0000e6
:1053bc0065630000746900006f6e00003a20000005
:1053cc00636c00006f730000652000006d650000c9
:1053dc007373000061670000650000004850000016
:1053ec00455f0000494e0000564100004c4900004a
:1053fc00445f00005645000052530000494f000026
:10540c004e000000696e0000766100006c690000bf
:10541c006420000048540000545000002076000026
:10542c0065720000736900006f6e00000048000098
:10543c00504500005f4900004e560000414c0000f2
:10544c00494400005f5300005441000054550000d3
:10545c0053000000696e0000766100006c6900006a
:10546c0064200000485400005450000020730000d9
:10547c00746100007475000073200000636f0000fd
:10548c006465000000480000504500005f490000c2
:10549c004e560000414c0000494400005f4d000096
:1054ac0045540000484f000044000000696e0000a5
:1054bc00766100006c690000642000004854000014
:1054cc0054500000206d000065740000686f0000ef
:1054dc006400000048500000455f0000494e000089
:1054ec00564100004c490000445f0000555200003a
:1054fc004c000000696e0000766100006c690000d1
:10550c0064200000555200004c0000004850000080
:10551c00455f0000494e0000564100004c49000018
:10552c00445f0000484f0000535400000069000025
:10553c006e760000616c0000696400002068000059
:10554c006f7300007400000048500000455f0000bd
:10555c00494e0000564100004c490000445f0000d9
:10556c00504f000052540000006900006e7600009d
:10557c00616c000069640000207000006f72000014
:10558c007400000048500000455f0000494e0000c8
:10559c00564100004c490000445f0000504100009f
:1055ac0054480000006900006e760000616c000039
:1055bc006964000020700000617400006800000045
:1055cc0048500000455f0000494e00005641000065
:1055dc004c490000445f000051550000455200004a
:1055ec00595f000053540000524900004e47000020
:1055fc00006900006e760000616c000069640000b8
:10560c0020710000756500007279000020730000a5
:10561c0074720000696e00006700000048500000c2
:10562c00455f0000494e0000564100004c49000007
:10563c00445f000046520000414700004d45000009
:10564c004e540000006900006e760000616c000092
:10565c00696400002066000072610000676d000044
:10566c00656e00007400000048500000455f0000ab
:10567c004c4600005f4500005850000045430000b8
:10568c0054450000440000004c460000206300001c
:10569c0068610000726100006374000065720000b4
:1056ac0020650000787000006563000074650000e0
:1056bc006400000048500000455f0000494e0000a7
:1056cc00564100004c490000445f00004845000072
:1056dc0041440000455200005f5400004f4b000055
:1056ec00454e0000006900006e760000616c000001
:1056fc0069640000206300006861000072610000b2
:10570c006374000065720000206900006e200000c8
:10571c0068650000616400006572000000480000cc
:10572c00504500005f4900004e560000414c0000ff
:10573c00494400005f4300004f4e000054450000f8
:10574c004e5400005f4c0000454e000047540000d2
:10575c0048000000696e0000766100006c69000072
:10576c006420000063680000617200006163000047
:10577c007465000072200000696e00002063000058
:10578c006f6e0000746500006e7400002d6c0000dc
:10579c00656e0000677400006820000068650000fa
:1057ac006164000065720000004800005045000074
:1057bc005f4900004e560000414c00004944000077
:1057cc005f430000485500004e4b00005f53000043
:1057dc00495a000045000000696e00007661000027
:1057ec006c690000642000006368000061720000b6
:1057fc00616300007465000072200000696e000097
:10580c0020630000687500006e6b000020730000c0
:10581c00697a000065200000686500006164000082
:10582c006572000000480000504500005f49000010
:10583c004e560000414c0000494400005f430000fc
:10584c004f4e000053540000414e00005400000025
:10585c00696e0000766100006c6900006420000035
:10586c00636f00006e730000746100006e740000c2
:10587c002073000074720000696e00006700000065
:10588c0048500000455f0000494e000056410000a2
:10589c004c490000445f0000494e00005445000094
:1058ac00524e0000414c00005f5300005441000078
:1058bc0054450000006500006e6300006f75000029
:1058cc006e740000657200006564000020750000b5
:1058dc006e65000078700000656300007465000060
:1058ec0064200000696e000074650000726e000098
:1058fc00616c00002073000074610000746500008e
:10590c0000480000504500005f5300005452000056
:10591c0049430000540000007374000072690000d9
:10592c0063740000206d00006f64000065200000af
:10593c00617300007365000072740000696f0000f1
:10594c006e20000066610000696c00006564000058
:10595c0000480000504500005f5000004155000019
:10596c005345000044000000706100007273000099
:10597c006572000020690000732000007061000057
:10598c00757300006564000000480000504500007d
:10599c005f5500004e4b00004e4f0000574e00006c
:1059ac00006100006e200000756e00006b6e000040
:1059bc006f7700006e20000065720000726f0000af
:1059cc00722000006f6300006375000072720000ab
:1059dc00656400000048000054540000505f000053
:1059ec005041000052530000455200005f4500003a
:1059fc00525200004e4f00002870000061720000ef
:105a0c007365000072290000203d00003d2000005d
:105a1c0048500000455f00004f4b0000002e000076
:105a2c002e2f00006c690000627300002f640000d0
:105a3c0073700000696300005f68000074740000fc
:105a4c00702d000070610000727300006572000020
:105a5c002f68000074740000705f0000706100001b
:105a6c0072730000657200002e63000000300000ad
:105a7c002026000026200000225500006e6b00003e
:105a8c006e6f0000776e00002068000065610000fa
:105a9c0064650000725f00007374000061740000a4
:105aac0065220000003000002026000026200000a7
:105abc0022530000686f0000756c0000646e0000db
:105acc002774000020670000657400002068000047
:105adc0065720000652e000022000000706100005d
:105aec0072730000657200002d3e0000636f0000b1
:105afc006e740000656e0000745f00006c65000041
:105b0c006e67000074680000202100003d2000003a
:105b1c00302000002626000020700000617200007a
:105b2c0073650000722d00003e6300006f6e000074
:105b3c00746500006e7400005f6c0000656e000000
:105b4c006774000068200000213d00002055000013
:105b5c004c4c00004f4e0000475f00004d410000d0
:105b6c005800000070610000727300006572000044
:105b7c002d3e00006e720000656100006420000084
:105b8c003d3d0000203100000070000061720000fb
:105b9c0073650000722d00003e6600006c61000011
:105bac006773000020260000204600005f430000c1
:105bbc00485500004e4b00004544000000700000aa
:105bcc006172000073650000722d00003e630000de
:105bdc006f6e0000746500006e7400005f6c000056
:105bec00656e000067740000682000003d3d0000f9
:105bfc00203000000030000020260000262000008d
:105c0c00227500006e680000616e0000646c00007c
:105c1c00656400002073000074610000746500006e
:105c2c002200000028280000686500006164000064
