:020000040000fa
:080000000002040000000000f2
:020000040000fa
:10000800440300004c030000840300005403000074
:100018005c030000840300008403000084030000e4
:100028008403000084030000840300007a97000022
:10003800840300008403000084030000840300009c
:10004800c296000084030000ce7100001a840000ec
:1000580092830000840300008403000084030000ee
:1000680084030000fe6c0000840300008403000089
:10007800840300008403000084030000840300005c
:10008800840300008403000084030000840300004c
:10009800840300008403000084030000840300003c
:1000a800840300008403000084030000406500000e
:1000b8008403000084030000ae7300008403000082
:1000c800840300008403000084030000840300000c
:1000d80084030000840300008403000084030000fc
:1000e80084030000840300008403000084030000ec
:1000f80084030000840300008403000084030000dc
:1001080084030000840300008403000084030000cb
:1001180084030000840300008403000084030000bb
:10012800840300006c830000840300008403000043
:10013800840300008403000084030000840300009b
:10014800840300008403000084030000840300008b
:10015800840300008403000084030000840300007b
:10016800840300008403000084030000840300006b
:10017800840300008403000084030000840300005b
:10018800840300008403000084030000840300004b
:10019800840300008403000084030000840300003b
:1001a800840300008403000084030000840300002b
:1001b800840300008403000084030000840300001b
:1001c800840300008403000084030000840300000b
:1001d80084030000840300008403000084030000fb
:1001e80084030000840300008403000084030000eb
:1001f80084030000840300008403000084030000db
:1002080084030000840300008403000084030000ca
:1002180084030000840300008403000084030000ba
:1002280084030000840300008403000084030000aa
:10023800840300008403000084030000840300009a
:10024800840300008403000084030000840300008a
:10025800840300008403000084030000840300007a
:10026800840300008403000084030000840300006a
:0c027800840300008403000084030000e5
:020000040000fa
:10040000af6523000eff24000e01880000000000ed
:1004100000012000200288000c00070020dd2400dd
:10042000010020000f000700000020000000e00095
:10043000020032000000020000000000a88c020050
:10044000000000000040da000000fe00c0122000a2
:100450000000e0000200320000202000900188002f
:1004600000000600a1028800800078000000eb0078
:100470001a003700e280400054a0b4009101ba0095
:10048000e280400054a0b4009102ba00e280400033
:1004900054a0b4000002eb00472bde00f507b200c9
:1004a000a6018800602ce10008003a000049eb003a
:1004b0000201e800020039003420ec0002f0a00044
:1004c0008301e900f9ff3e00040037006128e100e4
:1004d000010032000082eb00040007001101ba00a5
:1004e0000200e000e3ff3a000000060004d0a30091
:1004f000e20f49001c003900810278003549ba003a
:100500000201e800020039003420ec0002f0a000f3
:100510008301e9000f0032002549ba000201e8001a
:10052000020039003420ec0002f0a0008301e90051
:10053000080032000400e0000600320015c9ba00cd
:100540000201e800020039003420ec0002f0a000b3
:100550008301e9008180e80054a0b4000300e000ba
:10056000e2ff3a00000006009102ba000559780047
:100570008301e900f7ff3200c82ade000559780040
:100580008301e900f3ff32000400e000f1ff3200d4
:1005900011d9ba00eeff3700c88004000000000047
:1005a000ae73040000000000426704000000000079
:1005b000d07b040000000000a656040000000000ec
:1005c000185a040000000000e45804000000000075
:1005d000005a0400000000005c5904000000000004
:1005e0009849040000000000ca490400000000000f
:1005f000064c04000000000020060400000000007b
:10060000828e040000000000728e040000000000d2
:100610000a4a040000000000d68704000000000021
:1006200086610400000000008e61040000000000ec
:10063000aa61040000000000b26104000000000094
:100640007a5c0400000000009a5c040000000000d6
:10065000f48f040000000000fc8f04000000000084
:10066000845c0400000000008e5c040000000000b8
:10067000fe87040000000000d8770400000000009e
:100680003e7f0400000000000000fa0034aea90024
:10069000c028a900ffff37000000fa0034aea9000f
:1006a000c068a900ffff37000000fa0034aea900bf
:1006b000c048a900ffff37000000fa0034aea900cf
:1006c000c088a900ffff37000000fa0034aea9007f
:1006d000c028a900ffff37000000fa0034aea900cf
:1006e000c068a900ffff37000000fa0034aea9007f
:1006f000c048a900ffff37000000fa0034aea9008f
:10070000c088a900ffff37000040da000000fe00ab
:100710000000fa00115888002258880033588800d9
:1007200044588800555888006658880077588800d3
:100730000058880001eba8000080fa0000000600c5
:100740000000fa0091588800a2588800b358880029
:10075000c4588800d5588800e6588800f7588800a3
:100760008058880011eba8000080fa000000060005
:100770000000fa002024ef000080fa0000000600cc
:100780000000fa002224ef000080fa0000000600ba
:100790000000fa002824ef000080fa0000000600a4
:1007a0000000fa002a24ef000080fa000000060092
:1007b0000000fa000a24ef000468a9006020880005
:1007c000e7826000cc2add00f4ff2800864280002a
:1007d000060262000502720084428800e880600020
:1007e00074ff2f0025418000050262008100720025
:1007f000214188000080fa00000006000000fa0095
:10080000040024000602ab00feff3a000642ab00e3
:10081000fcff3a000662ab00faff3a000622ab008a
:10082000f8ff3a000682ab00f6ff3a00461080005f
:1008300086026200e08f5200f2ff3a000080fa0068
:10084000000006000000fa000662a8000662ab0085
:10085000feff3a0008c2a900001080000080fa00e4
:10086000000006000000fa000080fb001010880065
:10087000441080000408b20000c0eb000b003a00f6
:10088000040024004610800086026200e08f5200bf
:10089000fcff3a00d9ff0700000028000802b6005c
:1008a000e00f500001003200e0cfb3000080fa00fa
:1008b000000006000000fa0006a2a8000682a800b8
:1008c0000080fa00000006000000fa000622a800de
:1008d0000080fa00000006000000fa000602a800ee
:1008e0000080fa00000006000000fa000642a8009e
:1008f0000080fa0000000600020007000400be00ad
:10090000000006006022b800060220000000d000af
:100910008180d2000482d2008582d2000000a00033
:100920000202520083825a00030031000202420098
:1009300083824a000000a1000603e900f3ff3a00a9
:10094000000006000400fa00000f78000e02780094
:10095000012a78000d0037009e03780017407800c8
:100960001e039000964278000201e900854f500076
:10097000040032000080fb008582fb00050050006f
:1009800005003700070fe800060ae800e00f5100f5
:10099000f1ff3a00020078000080fa000000060033
:1009a0000000fa000002780002003700315a780097
:1009b0000201e900e00f5100fcff3a000080fa005c
:1009c000000006000000fa00000278000200370074
:1009d000015a78000201e900e00f5100fcff3a00e3
:0809e0000080fa00000006008f
:020000040000fa
:1009e800010000003a1000000100000000100000a3
:1009f8004410000001000000011000007c100000fd
:100a08000200000016100000901000000100000015
:100a180017100000aa1000000500000018100000c0
:100a2800dc100000030000000012000000110000ac
:100a380004000000801200002c11000004000000d7
:100a4800811200005c110000070000000014000083
:100a5800a41100000700000001140000ec110000c0
:100a68000700000002140000341200000700000014
:100a780003140000721200000200000000160000bb
:100a8800881200000200000001160000ba120000df
:100a980009000000021600002413000009000000ed
:100aa800031600008a130000070000000018000069
:100ab800e0130000070000000118000036140000d1
:100ac80007000000021800008c1400000700000056
:100ad80003180000ce14000003000000001a0000f4
:100ae800f014000003000000011a00002a1500009d
:100af80009000000021a0000941500000900000017
:100b0800031a0000dc1500000100000001200000ad
:100b1800e41500000100000002200000ec150000b0
:100b28000100000003200000f4150000010000008f
:100b380004200000fc150000010000000040000037
:100b48000416000001000000646000000c1600009c
:100b5800010000006c600000141600000100000095
:100b6800786000001c160000010000007a60000098
:100b78002416000001000000ff6000002e1600008f
:100b880006000000106400005e160000010000006e
:100b980002650000050000000600000008000000d3
:100ba8000c00000010000000140000000500000008
:100bb800070000000b0000000f00000013000000f9
:100bc80017000000240000000002000000000000e0
:100bd8000003000000000000000400000000000006
:100be8000005000000000000800100000000000077
:100bf80080020000000000008003000000000000e8
:100c08008004000000000000000100000101000055
:100c180001000000010000000001000001010000c7
:100c280001010000000000000000000000000000ba
:080c38000100000001000000b2
:020000040000fa
:100c40000a00fa002007980032079800430798002e
:100c50002e0290005402900014019000020f7800c0
:100c60001e027800e00f520084003200ae029000b5
:100c70003e039000040520008432b8007402420054
:100c800004824200144278000482fb009e0242006b
:100c90002e0290006402900014029000848f520093
:100ca00078003e002e029000940290002e039000e7
:100cb000be03900004052000843ab800740242008c
:100cc00004024300144278000482fb001e0242002a
:100cd000e622b80004824200140278007802420042
:100ce000340290001402be0024479800ae02900027
:100cf0003e039000040520008432b80004824200c4
:100d00000406b0008082eb00050a7800ae02900075
:100d10003e039000040520008432b80004824200a3
:100d2000f602420054c8b300844a7800ae02900034
:100d30003e039000040520008432b8007e02420089
:100d400004824200144278002e039000be039000fb
:100d5000050520008539b80082027800fc82420037
:100d600085024300950078002e039000be0390009a
:100d7000050520008539b80082027800f48242001f
:100d800085024300154078002e039000be039000ba
:100d9000050520008539b80082027800f4824200ff
:100da0008502430095429000060020004750200035
:100db0008101780000417800854078002e00900085
:100dc000a2040700ae0290003e039000040520003c
:100dd0008432b800048242007803420004002000fc
:100de00045502000048bbe00ae0290003e039000f0
:100df000040520008432b8002406b00004824200ba
:100e000014027800e00f52000a003200ae02900097
:100e10003e039000040520008432b8002406b00090
:100e20000482420014027800ae4090002e00900030
:100e300004000100ae0290003e0390000405200073
:100e40008432b80078024200048242001403be00db
:100e50000400200045502000840f5300858f5b0064
:100e600009003a003e029000044278008440780075
:100e70002e009000df010700030037000000000093
:100e800001003700000000000080fa0000000600aa
:100e90000400fa00100798000042eb00044f7800ad
:100ea000040037009e4078001e009000d10107002a
:100eb0001e4fe8001e427800e34f5200f9ff360053
:100ec0000080fa00000006000c00fa0040079800bd
:100ed000214f98002e4a90000483fb00ce02900020
:100ee000040520008432b8000402b00004824200ed
:100ef0001402be00e00f5200e08f5a0010003a00ca
:100f00002e4a90000480fb002e4a90000483fb00d0
:100f1000ce029000040520008432b8004402b000e4
:100f2000048242001402be00ce0390000605200099
:100f30008603b800068343000602b000048bbe009f
:100f40002e4a90000483fb00ce029000040520008e
:100f50008432b8000402b000048242001402be00d1
:100f600024079800350798002e4a90008482fb00e1
:100f700004052000842ab8008402b000ce0290004c
:100f8000848042002e4a90000483fb00ce02900031
:100f9000040520008432b8007e0242000482420030
:100fa000944378002e4a90000483fb00ce02900008
:100fb000040520008432b8007c0242000482420012
:100fc000140078006402470016c0b30015c0b300d7
:100fd0008101780007417800800078004e00900081
:100fe00088750200000000000002be00048fbe00f1
:100ff0001e02be00e00f5200e08f5a0002003200d5
:101000001e02be00010037006022b8000400be00ce
:101010000080fa00000006000e00fa005007980059
:10102000414f98000402200005002000240798008a
:10103000350798004e4a90008482fb00040520008a
:10104000842ab8008402b000de02900004814200cd
:101050004e4a90000483fb00de029000040520004d
:101060008432b8007e0242000482420014407800bc
:101070004e4a90000483fb00de029000040520002d
:101080008432b8007c02420004824200940078005e
:10109000e80247006402470017c0b30016c0b3005f
:1010a00082017800004178005e009000f673020033
:1010b000000000000002be00048fbe001e02be0041
:1010c000e00f5200e08f5a00020032001e02be0004
:1010d000150037004e4a90000480fb002e0290005d
:1010e000be029000de039000060520008603b800d3
:1010f000068343000602b000048bbe004e4a9000f7
:101100000483fb00de029000040520008432b80056
:101110000482420046022000040343006022b8001b
:10112000048bbe006022b8000400be000080fa00fc
:10113000000006001000fa0030079800014f9800e8
:101140005207980063079800740798000e4a9000b1
:101150000483fb00be029000040520008432b80026
:101160004402b000048242001403be005e029000fc
:10117000ee0290000603420087834a00040220002a
:1011800005002000840f5300858f5b0002003600ad
:1011900000c2eb005a0037000e4a90000483fb00a7
:1011a000be029000040520008432b8004402b00062
:1011b000048242001403be005e029000ee02900022
:1011c0000603420087834a000e4a90000480fb0019
:1011d000be029000040520008402b8000402b000a2
:1011e000048242001402be00840f5300858f5b000e
:1011f0000200360000c2eb00410037000e4a9000aa
:101200000483fb00be029000040520008432b80075
:101210004402b000048242001403be001607980086
:10122000270798000042eb00044f780017003700b2
:101230009e4378000782fb00fe029000048042007b
:101240000e4a90008480fb001e4278000483fb005d
:10125000070020001e029000ae029000060242002d
:1012600087824a003e039000070520008709b800e6
:1012700082037800048243008402b0000402430029
:1012800014427800044878001e4fe8001e4278009f
:101290000483fb00070020005e029000ee02900035
:1012a000840f5300858f5b00e1ff39000e4a9000e8
:1012b0000480fb000e4a90000483fb00be029000f5
:1012c000040520008432b8004402b00004824200c9
:1012d0001403be005e029000ee029000060242007f
:1012e00087824a00be039000060520008603b800ee
:1012f000068343004602b000048bbe000042eb00b0
:10130000044078000080fa00000006001000fa0097
:1013100030079800014f9800520798006307980023
:10132000740798000e4a90000483fb00be029000f0
:10133000040520008432b8004402b0000482420058
:101340001403be005e029000ee029000060342000d
:1013500087834a000402200005002000840f530008
:10136000858f5b000200360000c2eb0041003700b1
:101370000e4a90000483fb00be029000040520008a
:101380008432b8004402b000048242001403be005c
:1013900016079800270798000042eb00044f7800da
:1013a000170037000e4a90008480fb001e42780030
:1013b0000483fb00070020001e029000ae02900094
:1013c0000602420087824a009e4378000783fb00a2
:1013d000fe03900006834300164378003e00900011
:1013e000070520008709b8008203780087034000c2
:1013f000048243008402b000064a78001e4fe800d1
:101400001e4278000483fb00070020005e0290006b
:10141000ee029000840f5300858f5b00e1ff3900de
:101420000e4a90000480fb000e4a90000483fb00eb
:10143000be029000040520008432b8004402b000cf
:10144000048242001403be005e029000ee0290008f
:101450000602420087824a00be0390000605200073
:101460008603b800068343004602b000048bbe002a
:101470000042eb00044078000080fa000000060003
:101480000e00fa00881f7800100798004147980066
:101490005247980033079800044f98005607980069
:1014a000670798000e02e800840178005e41900012
:1014b000ce4090001e0090008e0107000042780090
:1014c000044f78001e427800e04f520007003a00b7
:1014d0005e429000e14f520004003a001e4290002c
:1014e000844078001e009000420007001e427800f1
:1014f000e04f52002b003a005e429000e24f520053
:1015000028003a001e4290000484fb001e42900016
:101510000483fb009e029000040520008432b80082
:101520000406b0000482420014027800040078002f
:10153000308b020000000000000278001e039000c3
:10154000050520008544b800880278008502430024
:101550000506b000840a78001e4290000483fb0058
:101560009e029000040520008432b80004824200ec
:10157000f602420054c8b300844a78001e4290002c
:101580000483fb009e029000040520008432b80012
:1015900004824200780242005e039000ee03900055
:1015a000068abe005e039000ee0390000e4a900093
:1015b000be0190004e419000de4090001e00900061
:1015c000a202070000427800044f78001e42780013
:1015d000e04f52000200320000c2eb000100370071
:1015e0000042eb00044078004f0478000080fa00cd
:1015f000000006000800fa002007980061479800e4
:101600008042eb000042eb008001eb000041eb0068
:10161000ee4090002e0090002c0007006022b800e1
:10162000048fbe000f0037006e4290000483fb0061
:10163000ae029000040520008432b800048242000b
:101640001e02420085022000848242000042eb001c
:10165000844a780014002000050020001e0f42007c
:101660005e974a001e03be00f40120000500200022
:10167000840f5300858f5b00ebff36006e429000b5
:101680000483fb00ae029000040520008432b80001
:1016900004824200f40242000042eb0094429800af
:1016a0006e4290000483fb00ae029000040520000f
:1016b0008432b80004824200780342006022b800fd
:1016c000048bbe000080fa00000006000800fa004b
:1016d000881f7800000f7800214798003247980053
:1016e0002307980064479800754798007e42900051
:1016f000e24f5200090032007e429000e34f520058
:10170000060032007e429000e44f52000300320097
:101710007e429000e54f520015003a002e429000a4
:101720000484fb002e4290000481fb000300200093
:101730006033b80004b128000519200001622000c0
:101740001e007800508a02000000000000027800ad
:101750001e037800050520008544b8008802780043
:10176000850243000506b000840a780015003700a2
:101770002e4290000484fb002e4290000483fb0064
:101780009e027800040520008432b8000406b000f0
:10179000048242001402780004007800308b0200ba
:1017a00000000000000278001e03780005052000fc
:1017b0008544b80088027800850243000506b00021
:1017c000840a78002e4290000483fb009e02780079
:1017d000040520008432b8000482420074024200f2
:1017e000be429000054a78002e4290000483fb0020
:1017f0009e027800040520008432b8000482420072
:101800007c024200ae029000050a78002e42900051
:101810000483fb009e027800040520008432b80097
:10182000048242007e024200ee429000054a7800a7
:101830002e4290000483fb009e02780004052000e5
:101840008432b8000482420076024200fe429000d8
:10185000054a78002e4290000483fb009e02780027
:10186000040520008432b80004824200f6024200df
:101870000042eb00944298002e4290000483fb004b
:101880009e027800040520008432b80004824200e1
:1018900006022000040343006022b800048bbe004f
:1018a0002e4290000483fb009e0278000405200075
:1018b0008432b80004824200460220000403430040
:1018c0006022b800048bbe002e4290000483fb000f
:1018d0009e027800040520008432b8000482420091
:1018e00085042000848242000042eb00844a780094
:1018f0002e4290000483fb009e0278000405200025
:101900008432b800048242008504200084824200b0
:101910000042eb00944298002e4290000483fb00aa
:101920009e027800040520008432b8000482420040
:10193000a5042000848242000042eb00844a780023
:101940002e4290000483fb009e02780004052000d4
:101950008432b80004824200c6042000040343001d
:101960006022b800048bbe002e4290000482fb006f
:101970009e0278000403e800040520008432b800c9
:10198000848242000042eb00844a78002e4290009c
:101990000482fb009e0278000403e8000405200096
:1019a0008432b800848242000042eb0094429800e6
:1019b0002e4290000483fb009e0278000405200064
:1019c0008432b8000482420025052000848242004f
:1019d0000042eb00844a78002e4290000483fb0012
:1019e0009e027800040520008432b8000482420080
:1019f0004405b0008002eb00050a78002e429000fa
:101a00000483fb009e027800040520008432b800a5
:101a100004824200e5052000848242000042eb007f
:101a2000844a78002e4290000483fb009e027800d6
:101a3000040520008432b800048242002406b0006d
:101a40008002eb00050a78000042eb0004407800b9
:101a50004f0478000080fa00000006000800fa0039
:101a60001007980041479800320798000042eb00a9
:101a7000044f7800180037001e4278000483fb00f2
:101a80009e029000040520008432b80076024200d5
:101a90000482420014427800e04f52000d003a00e8
:101aa0003e0290001e4a78009e4278000583fb00ab
:101ab0009e029000040520008432b8000482420097
:101ac00074024200ce429000154298000042eb00a2
:101ad000050037001e4fe8001e427800e34f520019
:101ae000e5ff360000c2eb00044078000080fa00f9
:101af000000006000800fa0010079800414798000f
:101b000052479800330798000042eb00044f7800da
:101b1000330037001e4278000483fb009e029000d1
:101b2000040520008432b80076024200048242009c
:101b300014427800e04f5200280032001e42780024
:101b40000483fb009e029000040520008432b8004c
:101b500076024200048242009442780054c8b300e6
:101b600084cf52001d0032001e4278000483fb0027
:101b70009e029000040520008432b80074024200e6
:101b800004824200944278004e42900084cf52007a
:101b900012003a001e4278000483fb009e0290006f
:101ba000040520008432b80074024200048242001e
:101bb000944290005e42900084cf520007003a00a9
:101bc0003e029000e00f5200020032003e02900000
:101bd0001e4a78000042eb00050037001e4fe80067
:101be0001e427800e34f5200caff360000c2eb00ed
:101bf000044078000080fa00000006000800fa00a7
:101c00001007980041479800524798003307980002
:101c10000042eb00044f7800280037001e42780095
:101c20000483fb009e029000040520008432b8006b
:101c3000760242000482420014427800e04f5200d3
:101c40001d0032001e4278000483fb009e029000bb
:101c5000040520008432b80074024200048242006d
:101c6000944278004e42900084cf520012003a0015
:101c70001e4278000483fb009e02900004052000b1
:101c80008432b80074024200048242009442900000
:101c90005e42900084cf520007003a003e0290005e
:101ca000e00f5200020032003e0290001e4a78000f
:101cb0000042eb00050037001e4fe8001e4278008e
:101cc000e34f5200d5ff360000c2eb00044078001d
:101cd0000080fa00000006000800fa0020079800c3
:101ce0006147980072479800ee4090002e009000e7
:101cf000d814070000427800044f78001e42780094
:101d0000e34f42000200360054c8b300120037000f
:101d10000e82e800840178007e4190009e407800a9
:101d20002e009000b5ff070000427800144798008d
:101d30001e429000e04f52000200320000c2eb0051
:101d4000050037002e429000844078002e0090005d
:101d500028fe07000042eb00044078000080fa00f3
:101d6000000006000600fa00000f780021479800e6
:101d7000220798002e4290000483fb009e02780008
:101d8000040520008432b8000402b000048242003e
:101d90001402be00e00f5200e08f5a0004003a0027
:101da0002e0390006022b800048bbe0014003700a0
:101db0002e4290000483fb009e0278000405200060
:101dc0008432b8000402b000048242001403be0052
:101dd0002e4290000480fb009e0278000405200043
:101de0008402b8004402b000048242001402be0023
:101df0000402530085825b002e039000048bbe001a
:101e00000042eb00044078000080fa000000060069
:101e10000800fa00000f7800214798002207980078
:101e2000330798002e039000be03900004022000a8
:101e300005002000840f5300858f5b0002003600f0
:101e400000c2eb000b0037002e4290000483fb0021
:101e50009e027800040520008432b800048242000b
:101e60000402b0002e039000be039000068abe005c
:101e70000042eb00044078000080fa0000000600f9
:101e80001600fa00000f980021579800325798006a
:101e9000230f98000e0a9000242a9100e50f5200ab
:101ea000070032000e0a9000a42a9100f4072000d7
:101eb000848f52000200320000c2eb006000370045
:101ec0002e529000e14f520021003a000e0a90007d
:101ed0005402900094027800150798001e029000aa
:101ee000e00f5200090032003e5290008482fb0055
:101ef0001e029000848242000e0a9000640290004c
:101f000014027800848f52000200360000c2eb00f9
:101f10004b0037000e0a9000940290003e52900051
:101f20000483fb001e02900004024300e622b80076
:101f300004824200140278007002420034029000d1
:101f40001402be0004027800240798002000370025
:101f50000e0a900054029000140390001607980097
:101f60001e029000e00f5200090032003e52900025
:101f70008482fb001e029000848242000e0a9000c0
:101f80006402900014029000848f52000200360018
:101f900000c2eb002a0037000e0a90009402900065
:101fa0003e5290000483fb001e0290000402430096
:101fb000e622b8000482420014027800680242005f
:101fc000340290001402be00040278002407980036
:101fd0000042eb006447980084c0b3007447980047
:101fe0000042eb00044f78000a0037001e427800e0
:101ff0008482fb001e4378000682fb002e0b9000bb
:102000000402430014427800e882420004f77a0098
:102010001e4fe8001e427800e74f5200f3ff3600e3
:102020000e0a9000040a9300e4024700850078003d
:10203000040078007a63020000000000004278008b
:10204000044078000080fa00000006001600fa0044
:1020500050079800414f9800524f9800730798001e
:1020600004579800160f9800270f980004c8b30073
:10207000144798007e02900004427800244798009c
:102080007e0290004822de00044278003447980027
:102090000e529000444798001e0a900004427800b7
:1020a000544798001e0a9000ae0a9000482bdd00ad
:1020b0004822de0004027300c82ade0004427800d1
:1020c000644798001e0a9000ae0a9000402ade0085
:1020d0000500200004427800744798001e0a900012
:1020e000ae0a9000482ade00050020000442780075
:1020f000044f98000e02e800840178005e499000c9
:10210000ce4890005e0090005dff0700004278001e
:10211000044f78001e427800044078000080fa00e6
:10212000000006003400fa00881f7800001f9800a5
:10213000111f98000042eb002447980034c0b30000
:10214000444798000002eb00240f980034c0b3000d
:10215000444798000e1a9000540290001401780031
:10216000020f98000e1a900064029000940278000a
:10217000350f98000042eb00644f98000e0a900063
:10218000e00f52002b003200260037000e1a90009c
:10219000940290000e0a9000e622b80004824200e9
:1021a00024429000e14f520002003e0000c2eb00ca
:1021b000a41337000e1a9000940290000e0a9000ab
:1021c000e622b8000482420014027800680242004d
:1021d00034029000240f98002e0a90001403be00d1
:1021e0001e1a90001402780005002000840f53008e
:1021f000858f5b0005003a0014c0b3004447980087
:102200006e4b9000364798000a0037006e4a9000e7
:102210000442e800644f98000e0a90000402e800af
:10222000040f98008e0a90003e0a9000848f52009e
:10223000d6ff36004e429000e34f520042003a0073
:102240000e1a90005402900094039000070f98001b
:102250000e1a90006402900014019000320f980052
:102260000042eb00644f98000e0a9000e00f52000d
:1022700035003200300037000e1a900094029000b2
:102280000e0a9000e622b800048242002442900028
:10229000e34f520002003e0000c2eb00691337001a
:1022a0000e1a9000940290000e0a9000e622b800e8
:1022b000048242001402780070024200340290004e
:1022c000240f98002e0a90001403be001e1a9000de
:1022d0001402780005002000840f5300858f5b00f6
:1022e0000f003a0024c0b300444798006e4a9000a3
:1022f000344798000e1a9000940290000e0a900045
:10230000e622b800048242001402780078024200fb
:102310003402900094427800254798000a00370064
:102320006e4a90000442e800644f98000e0a900044
:102330000402e800040f98008e0a90003e0a900004
:10234000848f5200ccff36004e429000e34f520083
:1023500002003a0000c2eb003a1337001e1a900048
:1023600034429000e84f52000a003200060020007c
:10237000078020000042eb008001eb004e419000fe
:10238000be4090000e1890003dfc070000c2eb001c
:102390002c133700340220000e0242008401780022
:1023a0004e419000be4090000e189000d1fd0700f5
:1023b00000427800044f780000c2eb0014479800f8
:1023c0001e427800e04f520024003a004e42900036
:1023d000e14f52000a003a003e6290000483fb0085
:1023e0008e1a9000040520008432b8007602420064
:1023f0000482420014427800e44f52000d00320083
:102400004e429000e24f520014003a003e629000ab
:102410000483fb008e1a9000040520008432b8006b
:10242000760242000482420014427800e54f5200d6
:102430000a003a001e1a9000c442900004c8b3007b
:1024400084cf520003003a0044c0b3001447980000
:102450000200370064c0b300144798001e42900089
:10246000e14f420005003a001e1a900044429000dd
:102470000482fb004522de00144798001e429000b3
:102480000482fb00cfa2de006600200007002000cf
:10249000860f5200878f5a00d0123e0004060100ba
:1024a000060037004a0237009e043700a3063700b3
:1024b000e00837004b093700b30d37004e4290005b
:1024c000e14f520015013a001e427800e04f5200e1
:1024d00010003a003e6290000483fb008e1a9000c8
:1024e000040520008432b8007602420004824200d3
:1024f00014427800044378000614a200064f7800c6
:102500009e4378000782fb000402ea004f22de00af
:10251000044f78001e427800e04f52000a0032005b
:1025200016022000078020000042eb008001eb0033
:102530004e419000be4090000e189000d0fb070066
:1025400000c2eb00bf1237003e6290000483fb0024
:102550008e1a9000040520008432b8000406b000f2
:102560000482420014027800e10f42002900320088
:102570003e6290000484fb003e6290000483fb00f6
:102580008e1a9000040520008432b8000406b000c2
:10259000048242001402780004007800308b0200ac
:1025a00000000000000278000e1b900005052000ce
:1025b0008544b80088027800850243000506b00013
:1025c000840a78003e6290000484fb003e62900022
:1025d0000481fb00030020006033b80004b1280030
:1025e00005192000016220000e189000508a020098
:1025f00000000000000278000e1b9000050520007e
:102600008544b80088027800850243000506b000c2
:10261000840a78003e6290000483fb008e1a9000ca
:10262000040520008432b8007c024200048242008b
:1026300014017800320798003e6290000483fb008a
:102640008e1a9000040520008432b8007e024200f9
:102650000482420094427800054f98003e62900048
:102660000483fb008e1a9000040520008432b80019
:102670007602420004824200144290008482fb00f1
:102680001e1a9000444290000482fb004422de00a7
:10269000044278000482fb0061026200848f5200d1
:1026a0000a00320006002000375020000e4a900039
:1026b000be0190004e419000be4090000e18900068
:1026c0006ffb070000c2eb005e1237001e1a90007d
:1026d000444290000482fb000402d10004427800ce
:1026e0000482fb000482ea006123b9007400200028
:1026f00005002000060078000703780084037800b6
:102700000502780007006000040263000500200055
:10271000c022dd00040020000403be006102b800f6
:1027200004037300858373002617980037179800f9
:102730001e1a9000650242002e139000be139000f6
:10274000be6290000601be00854078000e18900021
:10275000eefa070000427800044f78001e4278002d
:10276000e04f52000a0032000600200007802000df
:102770000e4a9000be0190004e419000be40900075
:102780000e1890003efb070000c2eb002d12370030
:102790003e6290000483fb008e1a90000405200026
:1027a0008432b80076024200048242001442900053
:1027b0000482fb004422dd008442780004c2b3009e
:1027c00004c27200046f980014002000050020006d
:1027d00054079800650798000b0037005e029000d0
:1027e00085022000848242000042eb0004f77a0058
:1027f0005e029000ee02900061024200e0824a0018
:1028000054079800650798005e039000ee0390005f
:102810007400200005002000840f5300858f5b00aa
:10282000eeff3600840220000e0242008401780090
:102830003e419000ce4090000e18900090fd0700a1
:102840003e6290008483fb003e6290000483fb00a4
:102850008e1a9000040520008432b80076024200ef
:1028600004824200144290000482fb000402e9004a
:102870004f22de00044278000e1b90000505200068
:102880008539b8008202780085024300f682420052
:10289000944298001e1a9000444290000482fb006b
:1028a0006102620004427800e04f5200cd11320014
:1028b0003e629000844078000e18900082f9070074
:1028c0000002be00440f9800550f98004e0a900079
:1028d000de0a9000e00f5200e08f5a000a0032003a
:1028e0004e0b9000de0b90000e4a9000be0190004f
:1028f0004e419000be4090000e189000e0fa070094
:1029000000c2eb00cf1137003e6290008440780097
:102910000e18900037fb0700c91137001e427800df
:10292000e04f52000e003a003e6290000483fb002c
:102930008e1a9000040520008432b800760242000e
:102940000482420014427800634f6a009e4278007d
:102950000582fb000402ea004f22de00044f7800eb
:102960001e427800e04f52000a003200160220009a
:10297000078020000042eb008001eb004e419000f8
:10298000be4090000e189000bdfa070000c2eb0098
:10299000ac1137003e6290000483fb008e1a900059
:1029a000040520008432b8000406b000048242000e
:1029b00014027800e10f4200290032003e629000cc
:1029c0000484fb003e6290000483fb008e1a90009a
:1029d000040520008432b8000406b00004824200de
:1029e0001402780004007800308b02000000000020
:1029f000000278000e1b9000050520008544b800f9
:102a000088027800850243000506b000840a780039
:102a10003e6290000484fb003e6290000481fb0053
:102a2000030020006033b80004b12800051920001d
:102a3000016220000e189000508a02000000000081
:102a4000000278000e1b9000050520008544b800a8
:102a500088027800850243000506b000840a7800e9
:102a60003e6290000483fb008e1a90000405200053
:102a70008432b8007c0242000482420014037800d1
:102a8000360798003e6290000483fb008e1a900087
:102a9000040520008432b8007e0242000482420015
:102aa00094437800074f98003e6290000483fb0037
:102ab0008e1a9000040520008432b800760242008d
:102ac00004824200144290008482fb001e1a90008f
:102ad000444290000482fb004422de00044278005d
:102ae0000482fb0061026200848f52000a003200ff
:102af00006002000375020000e4a9000be019000d2
:102b00004e419000be4090000e1890005cfa070005
:102b100000c2eb004b1137001e1a90004442900097
:102b20000482fb000402d100044278000482fb000e
:102b30000482ea006123b90074002000050020002f
:102b40000600780007037800840378000502780007
:102b5000070060000402630005002000c022dd00c1
:102b6000040020000403be006102b80004037300e7
:102b70008583730026179800371798001e1a900057
:102b8000650242002e139000be139000be629000ba
:102b90000601be00854078000e189000dbf90700a2
:102ba00000427800044f78001e427800e04f520047
:102bb0000a00320006002000078020000e4a900024
:102bc000be0190004e419000be4090000e18900053
:102bd0002bfa070000c2eb001a1137003e6290008a
:102be0008483fb003e6290000483fb008e1a9000f9
:102bf000040520008432b8007602420004824200bc
:102c0000144290000482fb000402e9004f22de001f
:102c1000044278000e1b9000050520008539b8009d
:102c20008202780085024300f682420094429800b6
:102c30001e1a9000444290000482fb006102620070
:102c400004427800e04f5200340032003e629000af
:102c50000484fb003e6290000483fb008e1a900007
:102c6000040520008432b8000406b000048242004b
:102c70001402780004007800308b0200000000008d
:102c8000000278000e1b9000050520008544b80066
:102c900088027800850243000506b000840a7800a7
:102ca0003e6290000483fb008e1a90000405200011
:102cb0008432b80004824200f602420014c0b3001d
:102cc000844a78003e6290000483fb008e1a9000d4
:102cd000040520008432b8002406b00004824200bb
:102ce00014027800e00f5200c01032003e629000e3
:102cf0000483fb008e1a9000040520008432b80083
:102d00002406b0000482420014027800ae40900015
:102d10000e18900004000100c91037003e629000b8
:102d20000483fb008e1a9000040520008432b80052
:102d30007602420004824200144290000482fb00aa
:102d40004422dd008442780004c6b30004c272004d
:102d5000046f98001400200005002000540798001c
:102d6000650798000b0037005e0290008502200086
:102d7000848242000042eb0004f77a005e02900079
:102d8000ee02900061024200e0824a00540798007f
:102d9000650798005e039000ee0390007400200029
:102da00005002000840f5300858f5b00eeff360086
:102db000840220000e024200840178003e4190000f
:102dc000ce4090000e1890002dfc07009c1037009c
:102dd0004e429000e14f5200ef003a001e1a900060
:102de000644290000482fb00c822dd001e1a90009d
:102df000544290000482fb00048272003407980061
:102e00001e1a9000f4429000054f98001e42780070
:102e1000e04f52000a003a0016022000078020000e
:102e20000e4a9000be0190004e419000be409000be
:102e30000e18900092f9070000c2eb0081103700d5
:102e4000340220000e02420004017800ce409000bf
:102e50000e18900001fb070000427800044f780034
:102e60001e427800e04f52000a0032001602200095
:102e7000078020000e4a9000be0190004e41900055
:102e8000be4090000e1890007df9070000c2eb00d4
:102e90006c1037003e63900025c0b3000e4a9000ce
:102ea000be0190003e419000864078000e189000d0
:102eb00006fa07001e1a9000444290000482fb00ac
:102ec0000402d100044278000482fb006102620027
:102ed00004427800e04f5200480032001e1a900071
:102ee000444290000482fb004222de00044278004b
:102ef0000482fb006302620064021200cfa2de00c3
:102f000024179800351798003e6290000480fb005b
:102f10002e129000be1290008e1b9000060520001d
:102f20008603b800068343000602b000048bbe008f
:102f30001e1a9000680242002e139000be139000eb
:102f4000be6290000601be00854078000e18900019
:102f5000eef8070000427800044f78001e42780027
:102f6000e04f52000a0032000600200007802000d7
:102f70000e4a9000be0190004e419000be4090006d
:102f80000e1890003ef9070000c2eb002d1037002c
:102f90003e629000844078000e189000caf7070047
:102fa0000002be00440f9800550f98004e0a900092
:102fb000de0a9000e00f5200e08f5a000a00320053
:102fc0004e0b9000de0b90000e4a9000be01900068
:102fd0004e419000be4090000e18900028f9070066
:102fe00000c2eb00171037003e629000844078006a
:102ff0000e1890007ff907003d0037001e1a900060
:10300000444290000482fb006102620004427800a6
:10301000e04f5200360032001e1a9000044a900021
:103020000483fb00070020001e1a9000144a900041
:103030000480fb0001002000480add00c802de0019
:10304000850272004802dd000603420087834a00c1
:103050001e1a9000244a90000482fb000500200004
:10306000c022dd00040020000603420087834a00de
:103070001e1a9000344a90000482fb0005002000d4
:10308000c822dd00040020000602420087824a00b8
:1030900024179800351798002e129000be12900049
:1030a0003e6390000401be00864078000e18900038
:1030b00057fb070000427800044f78001e4278005a
:1030c000e04f52000a003200060020000780200076
:1030d0000e4a9000be0190004e419000be4090000c
:1030e0000e189000e6f8070000c2eb00d50f37007d
:1030f00004c6b300046f98003e02900004427800ba
:10310000146f98003e0290004822de0004427800ce
:10311000246f98000e4b9000366f980044002000fa
:103120000500200054079800650798000b00370041
:103130005e02900085022000848242000042eb0083
:1031400004f77a005e029000ee02900061024200f5
:10315000e0824a0054079800650798005e039000db
:10316000ee0390007400200005002000840f53003f
:10317000858f5b00eeff3600840220000e024200c5
:10318000840178003e419000ce4090000e189000df
:103190003bfb0700aa0f37001e427800e04f5200a9
:1031a00010003a003e6290000483fb008e1a9000eb
:1031b000040520008432b8007602420004824200f6
:1031c00014427800844378000714a200074f780067
:1031d0001e4178000282fb000402ea004f22de005a
:1031e000044f78001e427800e04f52000a0032007f
:1031f00016022000078020000042eb008001eb0057
:103200004e419000be4090000e1890009cf80700c0
:1032100000c2eb008b0f37003e6290000483fb007e
:103220008e1a9000040520008432b8000406b00015
:103230000482420014027800e10f420029003200ab
:103240003e6290000484fb003e6290000483fb0019
:103250008e1a9000040520008432b8000406b000e5
:10326000048242001402780004007800308b0200cf
:1032700000000000000278000e1b900005052000f1
:103280008544b80088027800850243000506b00036
:10329000840a78003e6290000484fb003e62900045
:1032a0000481fb00030020006033b80004b1280053
:1032b00005192000016220000e189000508a0200bb
:1032c00000000000000278000e1b900005052000a1
:1032d0008544b80088027800850243000506b000e6
:1032e000840a78003e6290000483fb008e1a9000ee
:1032f000040520008432b8007c02420004824200af
:1033000094027800350798003e6290000483fb0029
:103310008e1a9000040520008432b8007e0242001c
:103320000482420014437800064f98003e629000e9
:103330000483fb008e1a9000040520008432b8003c
:103340007602420004824200144290008482fb0014
:103350001e1a9000444290000482fb004422de00ca
:10336000044278000482fb0061026200848f5200f4
:103370000a00320006002000375020000e4a90005c
:10338000be0190004e419000be4090000e1890008b
:103390003bf8070000c2eb002a0f37003e629000a6
:1033a000450220008e8242000501780084407800aa
:1033b0000e1890006bfa07002e129000be129000bb
:1033c000e00f5200e08f5a0035003a003e62900054
:1033d0000484fb003e6290000483fb008e1a900080
:1033e000040520008432b8000406b00004824200c4
:1033f0001402780004007800308b02000000000006
:10340000000278000e1b9000050520008544b800de
:1034100088027800850243000506b000840a78001f
:103420003e6290000483fb008e1a90000405200089
:103430008432b80004824200f602420014c0b30095
:10344000844a78003e6290000483fb008e1a90004c
:10345000040520008432b8002406b0000482420033
:1034600014027800e00f52000b0032003e62900020
:103470000483fb008e1a9000040520008432b800fb
:103480002406b0000482420014027800ae4090008e
:103490000e189000040001000042eb00e90e370016
:1034a0002e139000be139000740020000500200031
:1034b000840f5300858f5b00380036003e62900019
:1034c0008483fb003e6290000483fb008e1a900010
:1034d000040520008432b8007602420004824200d3
:1034e000144290000482fb000402e9004f22de0037
:1034f000044278000e1b9000050520008539b800b5
:103500008202780085024300f682420094429800cd
:103510003e6290000483fb008e1a90000405200098
:103520008432b800760242000482420014429000c5
:10353000450020000522dd00046f9800be62900067
:10354000840220000e0242000402e8007200200003
:1035500003002000854078000e189000f5f6070063
:1035600000427800044f78001e427800e04f52007d
:103570006400320006002000078020000e4a900000
:10358000be0190004e419000be4090000e18900089
:10359000bbf7070000c2eb00aa0e37003e629000a6
:1035a0008483fb003e6290000483fb008e1a90002f
:1035b000040520008432b8007602420004824200f2
:1035c000144290000482fb000402e9004f22de0056
:1035d000044278000e1b9000050520008539b800d4
:1035e0008202780085024300f682420094429800ed
:1035f0003e6290000483fb008e1a900004052000b8
:103600008432b800760242000482420014429000e4
:10361000450020000523dd002e129000be12900010
:103620000442780075c0b30004c252000442420054
:10363000044273000404a000046f98002e1390004d
:10364000be139000be629000840220000e02420071
:103650000402e8000601be00854078000e189000c4
:10366000b4f6070000427800044f78001e4278004c
:10367000e04f52000a0032000600200007802000c0
:103680000e4a9000be0190004e419000be40900056
:103690000e1890007af7070000c2eb00690e3700a1
:1036a0002e129000be12900061024200e0824a0099
:1036b00054079800650798000b0037005e029000e1
:1036c00085022000848242000042eb0004f77a0069
:1036d0005e029000ee02900061024200e0824a0029
:1036e00054079800650798005e039000ee03900071
:1036f0007400200005002000840f5300858f5b00bc
:10370000eeff3600840220000e02420084017800a1
:103710003e419000ce4090000e189000d8f907006e
:10372000470e37004e429000e14f5200d6003a005b
:103730001e1a9000644290000482fb00c822dd0043
:103740001e1a9000544290000482fb000482720012
:10375000340798001e1a9000f4429000054f98001c
:103760001e427800e04f52000a003a001602200084
:10377000078020000e4a9000be0190004e4190004c
:10378000be4090000e1890003df7070000c2eb000d
:103790002c0e3700340220000e0242000401780093
:1037a000ce4090000e189000acf807000042780060
:1037b000044f78001e427800e04f52000a003200a9
:1037c00016022000078020000e4a9000be019000e3
:1037d0004e419000be4090000e18900028f7070060
:1037e00000c2eb00170e37003e63900035c0b300f7
:1037f0000e4a9000be0190003e4190008640780045
:103800000e189000b1f707003e62900084407800e7
:103810000e18900000f607000002be00440f98004a
:10382000550f98004e0a9000de0a9000e00f5200fb
:10383000e08f5a000a0032004e0b9000de0b900021
:103840000e4a9000be0190004e419000be40900094
:103850000e1890000af7070000c2eb00f90d3700c0
:103860003e629000450220008e82420005017800f1
:10387000844078000e1890003af907002e1390004b
:10388000be1390004400200005002000840f530068
:10389000858f5b002b00360014c4b300046f9800c2
:1038a0003e02900004427800146f98003e0290009f
:1038b0004822de0004427800246f98000e4b9000ee
:1038c000366f98002e129000be12900004427800cd
:1038d000446f98002e129000be129000c82bdd009d
:1038e0004822de0004827300c82ade000442780009
:1038f000546f98002e129000be129000402ade00f5
:103900000500200004427800646f98002e12900099
:10391000be129000482ade00050020000442780014
:10392000746f9800840220000e0242008401780027
:103930003e419000ce4090000e18900050f90700d4
:10394000bf0d37002e129000be1290000442780086
:1039500045c0b30004c25200250020008522dd00ce
:1039600034c4b30004c27200046f98003e02900099
:1039700004427800146f98003e0290004822de0056
:1039800004427800246f98000e499000326f98002e
:103990002e139000be139000be629000840220009f
:1039a0000e024200640242000601be00854078001b
:1039b0000e189000dff5070000427800044f7800f1
:1039c0001e427800e04f52000a003200060020003c
:1039d000078020000e4a9000be0190004e419000ea
:1039e000be4090000e189000a5f6070000c2eb0044
:1039f000940d37002e129000be1290006402420017
:103a0000e0824a0054079800650798000b003700d1
:103a10005e02900085022000848242000042eb009a
:103a200004f77a005e029000ee029000610242000c
:103a3000e0824a0054079800650798005e039000f2
:103a4000ee0390007400200005002000840f530056
:103a5000858f5b00eeff3600840220000e024200dc
:103a6000840178003e419000ce4090000e189000f6
:103a700003f907003e629000844078000e18900021
:103a8000dcf607006e0d37001e427800e04f520052
:103a90000e003a003e6290000483fb008e1a9000f4
:103aa000040520008432b8007602420004824200fd
:103ab00014427800634f6a009e4278000582fb0042
:103ac0000402ea004f22de00044f78001e42780014
:103ad000e04f52000a00320016022000078020004a
:103ae0000042eb008001eb004e419000be40900090
:103af0000e18900062f6070000c2eb00510d37006f
:103b00003e6290000483fb008e1a900004052000a2
:103b10008432b8000406b000048242001402780027
:103b2000e10f4200290032003e6290000484fb0055
:103b30003e6290000483fb008e1a90000405200072
:103b40008432b8000406b0000482420014027800f7
:103b500004007800308b02000000000000027800b2
:103b60000e1b9000050520008544b80088027800ef
:103b7000850243000506b000840a78003e6290008a
:103b80000484fb003e6290000481fb0003002000df
:103b90006033b80004b1280005192000016220003c
:103ba0000e189000508a0200000000000002780009
:103bb0000e1b9000050520008544b800880278009f
:103bc000850243000506b000840a78003e6290003a
:103bd0000483fb008e1a9000040520008432b80094
:103be0007c024200048242001403780036079800e9
:103bf0003e6290000483fb008e1a900004052000b2
:103c00008432b8007e02420004824200944378006d
:103c1000074f98001e1a9000444290000482fb0057
:103c20000402d100044278000482fb0061026200b9
:103c300004427800e04f5200620032001e1a9000e9
:103c4000444290000482fb004222de0004427800dd
:103c50000482fb006302620064021200cfa2de0055
:103c600024179800351798001e1a90006802420029
:103c70002e139000be139000be6290000601be009d
:103c8000854078000e189000a0f5070000427800eb
:103c9000044f78001e427800e04f52000a003200c4
:103ca00006002000078020000e4a9000be01900010
:103cb0004e419000be4090000e189000f0f50700b5
:103cc00000c2eb00df0c37003e6290000484fb0072
:103cd0003e6290000483fb008e1a900004052000d1
:103ce0008432b8000406b000048242001402780056
:103cf00004007800308b0200000000000002780011
:103d00000e1b9000050520008544b800880278004d
:103d1000850243000506b000840a78003e629000e8
:103d20000480fb002e129000be1290008e1b9000ab
:103d3000060520008603b800068343000602b00093
:103d4000048bbe003e6290000483fb008e1a90003c
:103d5000040520008432b80004824200f6024200ca
:103d600014c0b300844a78003e6290000483fb00d4
:103d70008e1a9000040520008432b8002406b0009a
:103d80000482420014027800e00f52000b0032005f
:103d90003e6290000483fb008e1a90000405200010
:103da0008432b8002406b000048242001402780075
:103db000ae4090000e189000040001000042eb009d
:103dc000a00c37001e1a9000444290000482fb00b1
:103dd0006102620004427800e04f52003600320077
:103de0001e1a9000044a90000483fb000700200084
:103df0001e1a9000144a90000480fb00010020006d
:103e0000480add00c802de00850272004802dd00bb
:103e10000603420087834a001e1a9000244a90003d
:103e20000482fb0005002000c022dd000400200009
:103e30000603420087834a001e1a9000344a90000d
:103e40000482fb0005002000c822dd0004002000e1
:103e50000602420087824a0024179800351798000e
:103e60002e129000be1290003e6390000401be002e
:103e7000864078000e189000e5f7070000427800b1
:103e8000044f78001e427800e04f52000a003200d2
:103e900006002000078020000e4a9000be0190001e
:103ea0004e419000be4090000e18900074f507003f
:103eb00000c2eb00630c370004c6b300046f980027
:103ec00014002000050020005407980065079800a2
:103ed0000b0037005e0290008502200084824200c1
:103ee0000042eb0004f77a005e029000ee029000c0
:103ef00061024200e0824a0054079800650798007a
:103f00005e039000ee039000740020000500200086
:103f1000840f5300858f5b00eeff36008402200083
:103f20000e024200840178003e419000ce40900095
:103f30000e189000d2f70700410c37004e42900057
:103f4000e14f52001e013a001e427800e04f52003d
:103f50000e003a003e6290000483fb008e1a90002f
:103f6000040520008432b800760242000482420038
:103f700014427800634f6a001e4178000282fb0001
:103f80000402ea004f22de00044f78001e4278004f
:103f9000e04f52000a003200160220000780200085
:103fa0000042eb008001eb004e419000be409000cb
:103fb0000e18900032f5070000c2eb00210c37000c
:103fc0003e6290000483fb008e1a900004052000de
:103fd0008432b8000406b000048242001402780063
:103fe000e10f4200290032003e6290000484fb0091
:103ff0003e6290000483fb008e1a900004052000ae
:104000008432b8000406b000048242001402780032
:1040100004007800308b02000000000000027800ed
:104020000e1b9000050520008544b800880278002a
:10403000850243000506b000840a78003e629000c5
:104040000484fb003e6290000481fb00030020001a
:104050006033b80004b12800051920000162200077
:104060000e189000508a0200000000000002780044
:104070000e1b9000050520008544b80088027800da
:10408000850243000506b000840a78003e62900075
:104090000483fb008e1a9000040520008432b800cf
:1040a0007c024200048242009402780035079800a6
:1040b0003e6290000483fb008e1a900004052000ed
:1040c0008432b8007e024200048242001443780029
:1040d000064f98003e6290000483fb008e1a900009
:1040e000040520008432b8007602420004824200b7
:1040f000144290008482fb001e1a900044429000fb
:104100000482fb004422de00044278000482fb00ab
:1041100061026200848f52000a0032000600200013
:10412000375020000e4a9000be0190004e41900092
:10413000be4090000e189000d1f4070000c2eb00c2
:10414000c00b37003e629000450220008e82420084
:1041500005017800844078000e18900001f70700f0
:104160002e139000be139000740020000500200064
:10417000840f5300858f5b00400036003e62900044
:104180000483fb008e1a9000040520008432b800de
:104190007602420004824200144290004500200052
:1041a0000522dd00046f9800be62900084022000aa
:1041b0000e0242000402e80072002000030020000a
:1041c000854078000e189000daf30700004278006e
:1041d000044f78001e427800e04f52000a0032007f
:1041e00006002000078020000e4a9000be019000cb
:1041f0004e419000be4090000e189000a0f40700c1
:1042000000c2eb008f0b37003e6290008483fb00fe
:104210003e6290000483fb008e1a9000040520008b
:104220008432b800760242000482420014429000b8
:104230000482fb000402e9004f22de000442780001
:104240000e1b9000050520008539b8008202780019
:1042500085024300f68242009442980084022000c6
:104260000e024200840178003e419000ce40900052
:104270000e18900002f70700710b37003e629000a5
:104280000483fb008e1a9000040520008432b800dd
:104290007602420004824200144290004500200051
:1042a0000523dd002e129000be129000044278001b
:1042b00075c0b30004c252000442420004427300bd
:1042c0000404a000046f98002e139000be13900009
:1042d000be629000840220000e0242000402e80048
:1042e0000601be00854078000e18900091f307008b
:1042f00000427800044f78001e427800e04f5200e0
:104300000a00320006002000078020000e4a9000bc
:10431000be0190004e419000be4090000e189000eb
:1043200057f4070000c2eb00460b37002e12900036
:10433000be12900061024200e0824a0054079800d9
:10434000650798000b0037005e0290008502200090
:10435000848242000042eb0004f77a005e02900083
:10436000ee02900061024200e0824a005407980089
:10437000650798005e039000ee0390007400200033
:1043800005002000840f5300858f5b00eeff360090
:10439000840220000e024200840178003e41900019
:1043a000ce4090000e189000b5f607003e629000d7
:1043b000844078000e1890008ef40700200b370020
:1043c0001e427800e04f520010003a003e6290001a
:1043d0000483fb008e1a9000040520008432b8008c
:1043e000760242000482420014427800844278003f
:1043f0000514a200054f78001e4378000682fb00da
:104400000402ea004f22de00044f78001e427800ca
:10441000e04f52000a003200160220000780200000
:104420000042eb008001eb004e419000be40900046
:104430000e18900012f4070000c2eb00010b3700c9
:104440003e6290000483fb008e1a90000405200059
:104450008432b8000406b0000482420014027800de
:10446000e10f4200290032003e6290000484fb000c
:104470003e6290000483fb008e1a90000405200029
:104480008432b8000406b0000482420014027800ae
:1044900004007800308b0200000000000002780069
:1044a0000e1b9000050520008544b80088027800a6
:1044b000850243000506b000840a78003e62900041
:1044c0000484fb003e6290000481fb000300200096
:1044d0006033b80004b128000519200001622000f3
:1044e0000e189000508a02000000000000027800c0
:1044f0000e1b9000050520008544b8008802780056
:10450000850243000506b000840a78003e629000f0
:104510000483fb008e1a9000040520008432b8004a
:104520007c0242000482420094037800370798001e
:104530003e6290000483fb008e1a90000405200068
:104540008432b8007e0242000482420014417800a6
:10455000024f98003e629000450220008e82420089
:1045600005017800844078000e189000fdf50700e2
:104570002e129000be129000e00f5200e08f5a0001
:1045800035003a003e6290000484fb003e629000d9
:104590000483fb008e1a9000040520008432b800ca
:1045a0000406b0000482420014027800040078007f
:1045b000308b020000000000000278000e1b90000b
:1045c000050520008544b800880278008502430074
:1045d0000506b000840a78003e6290000483fb0068
:1045e0008e1a9000040520008432b8000482420034
:1045f000f602420014c0b300844a78003e62900084
:104600000483fb008e1a9000040520008432b80059
:104610002406b0000482420014027800e00f520029
:104620000b0032003e6290000483fb008e1a900063
:10463000040520008432b8002406b0000482420041
:1046400014027800ae4090000e18900004000100a3
:104650000042eb007b0a37002e139000be1390003f
:104660007400200005002000840f5300858f5b003c
:10467000230036003e6290000483fb008e1a9000f7
:10468000040520008432b800760242000482420011
:1046900014429000450020000522dd00046f9800c0
:1046a000be629000840220000e0242000402e80074
:1046b0007200200003002000854078000e18900052
:1046c0009cf2070000427800044f78001e427800f8
:1046d000e04f52004f00320006002000078020000b
:1046e0000e4a9000be0190004e419000be409000e6
:1046f0000e18900062f3070000c2eb00510a370069
:104700003e6290000483fb008e1a90000405200096
:104710008432b800760242000482420014429000c3
:10472000450020000523dd002e129000be129000ef
:104730000442780075c0b30004c252000442420033
:10474000044273000404a000046f98002e1390002c
:10475000be139000be629000840220000e02420050
:104760000402e8000601be00854078000e189000a3
:1047700070f2070000427800044f78001e42780073
:10478000e04f52000a00320006002000078020009f
:104790000e4a9000be0190004e419000be40900035
:1047a0000e18900036f3070000c2eb00250a370010
:1047b0002e129000be12900061024200e0824a0078
:1047c00054079800650798000b0037005e029000c0
:1047d00085022000848242000042eb0004f77a0048
:1047e0005e029000ee02900061024200e0824a0008
:1047f00054079800650798005e039000ee03900050
:104800007400200005002000840f5300858f5b009a
:10481000eeff3600840220000e0242008401780080
:104820003e419000ce4090000e18900094f5070095
:10483000030a37001e1a9000044a90000483fb000c
:10484000070020001e1a9000144a90000480fb000c
:1048500001002000480add00c802de008502720067
:104860004802dd0004037300858373001e1a900064
:10487000244a90000482fb0005002000c022dd00d5
:104880000400200004037300858373001e1a900047
:10489000344a90000482fb0005002000c822dd009d
:1048a000040020000402730085827300640f9800e6
:1048b000750f98004e429000e14f520008003a00f8
:1048c0001e427800e04f5200ca093a003e62900052
:1048d000844078000e18900046f30700d80937008e
:1048e0001e427800e04f5200c4093a003e62900038
:1048f0000484fb003e6290000483fb008e1a90004b
:10490000040520008432b8000406b000048242008e
:104910001402780004007800308b020000000000d0
:10492000000278000e1b9000050520008544b800a9
:1049300088027800850243000506b000840a7800ea
:104940003e6290000483fb008e1a90000405200054
:104950008432b80004824200f602420004c8b30068
:10496000844a78003e6290000483fb008e1a900017
:10497000040520008432b80004824200780242001c
:104980006e0b9000fe0b9000068abe003e62900007
:104990000483fb008e1a9000040520008432b800c6
:1049a0002406b0000482420014027800e00f520096
:1049b000940932003e6290000483fb008e1a90003e
:1049c000040520008432b8002406b00004824200ae
:1049d00014027800ae4090000e1890000400010010
:1049e000970937001e1a900044429000634262000b
:1049f000046798004e429000e14f520067023a006f
:104a00000e629000e04f5200a2003a001e1a900081
:104a1000644290000482fb00c822dd001e1a900050
:104a2000544290000482fb00048272003407980014
:104a30001e1a9000f4439000074f98001e42780021
:104a4000e04f52000a003a001602200007802000c2
:104a50000e4a9000be0190004e419000be40900072
:104a60000e18900086f2070000c2eb0075093700af
:104a7000340220000e02420004017800ce40900073
:104a80000e189000f5f3070000427800044f7800fc
:104a90001e427800e04f52000a0032001602200049
:104aa000078020000e4a9000be0190004e41900009
:104ab000be4090000e18900071f2070000c2eb009b
:104ac000600937003e63900055c0b3000e4a900065
:104ad000be0190003e419000864078000e18900084
:104ae000faf207003e6290008483fb001e1a9000d9
:104af000444290000482fb004222de00044278001f
:104b0000614262000e1b9000050520008539b80047
:104b100082027800850243008504b000844a780050
:104b20003e6290008483fb001e1a9000044a9000ad
:104b30000e1b9000050520008539b8008202780020
:104b4000850243008504b000944298003e629000c4
:104b5000844078000e1890002ff107000002be007c
:104b6000440f9800550f98004e0a9000de0a9000fe
:104b7000e00f5200e08f5a000a0032004e0b900006
:104b8000de0b90000e4a9000be0190004e41900056
:104b9000be4090000e18900039f2070000c2eb00f2
:104ba000280937003e629000450220008e824200b4
:104bb00005017800844078000e18900069f4070021
:104bc0003e6290000480fb002e129000be12900006
:104bd0008e1b9000060520008603b8000683430064
:104be000c604b000048bbe0024ccb300046f980050
:104bf0003e02900004427800146f98003e0290003c
:104c00004822de0004427800246f98000e4a90008b
:104c1000346f98002e129000be129000044278006b
:104c2000446f98002e129000be129000482bdd00b9
:104c30004822de0004027300c82ade000442780025
:104c4000546f98002e129000be129000402ade0091
:104c50000500200004427800646f98002e12900036
:104c6000be129000482ade000500200004427800b1
:104c7000746f9800840220000e02420084017800c4
:104c80003e419000ce4090000e1890007cf407004a
:104c9000eb0837000e629000e14f520023003a000b
:104ca0001e427800e04f52000e003a003e62900033
:104cb0000483fb008e1a9000040520008432b800a3
:104cc000760242000482420014427800654f6a0076
:104cd0009e4378000782fb000402ea004f22de00b8
:104ce000044f78001e427800e04f52000a00320064
:104cf00016022000078020000042eb008001eb003c
:104d00004e419000be4090000e189000dcf107006c
:104d100000c2eb00cb0837003e6290008440780070
:104d20000e18900033f20700c50837000e6290009d
:104d3000e24f5200030032000e629000e34f520037
:104d4000b2083a001e427800e04f52000e003a00ce
:104d50003e6290000483fb008e1a90000405200040
:104d60008432b80076024200048242001442780085
:104d7000654f6a001e4178000282fb000402ea00cf
:104d80004f22de00044f78001e427800e04f5200b0
:104d90000a00320016022000078020000042eb00cb
:104da0008001eb004e419000be4090000e18900034
:104db000b3f1070000c2eb00a20837003e6290008a
:104dc0000483fb008e1a9000040520008432b80092
:104dd0000406b0000482420014027800e10f420091
:104de000290032003e6290000484fb003e62900085
:104df0000483fb008e1a9000040520008432b80062
:104e00000406b00004824200140278000400780016
:104e1000308b020000000000000278000e1b9000a2
:104e2000050520008544b80088027800850243000b
:104e30000506b000840a78003e6290000484fb00fe
:104e40003e6290000481fb00030020006033b80044
:104e500004b1280005192000016220000e189000fe
:104e6000508a020000000000000278000e1b900033
:104e7000050520008544b8008802780085024300bb
:104e80000506b000840a78003e6290000483fb00af
:104e90008e1a9000040520008432b8007c02420083
:104ea0000482420094027800350798003e62900028
:104eb0000483fb008e1a9000040520008432b800a1
:104ec0007e0242000482420014437800064f98009c
:104ed0000e629000e24f520086003a003e6290005f
:104ee0008483fb001e1a9000644290000e1b900009
:104ef000050520008539b80082027800850243004c
:104f00008504b000944298001e1a9000544290000c
:104f10000474a100146798003e62900045022000ce
:104f20008e82420005017800844078000e189000bf
:104f30008cf307002e129000be129000e00f52007a
:104f4000e08f5a0038003a003e6290000482fb0075
:104f50008e1a90000403e800040520008432b80093
:104f600004824200944290001e62900084cf52005e
:104f70002d003a003e6290000483fb008e1a9000e0
:104f8000040520008432b8002405b00004824200e9
:104f9000144278000482fb004222dd008442780043
:104fa00014ccb30004c27200046f980014002000f7
:104fb0000500200054079800650798000b00370093
:104fc0005e02900085022000848242000042eb00d5
:104fd00004f77a005e029000ee0290006102420047
:104fe000e0824a0054079800650798005e0390002d
:104ff000ee0390007400200005002000840f530091
:10500000858f5b00eeff3600840220000e02420016
:10501000840178003e419000ce4090000e18900030
:1050200097f30700060837003e6290000480fb00fb
:105030003e6290000482fb008e1a90000403e80098
:10504000040520008432b800048242001442780033
:105050008482fb001e6290000482fb00e722b800fd
:1050600004824200cfa2de008e1b900006052000c5
:105070008603b800068343004602b000048bbe00de
:105080003e6290000483fb008e1a9000040520000d
:105090008432b8004402b000048242001403be000f
:1050a0003e6290000480fb008e1a900004052000f0
:1050b0008402b8000402b000048242001402be0060
:1050c000840f5300858f5b000a0036001602200013
:1050d000078020000042eb008001eb004e41900071
:1050e000be4090000e189000e5f0070000c2eb00f3
:1050f000d40737003e6290008483fb003e6290003c
:105100000483fb008e1a9000040520008432b8004e
:105110004402b000048242001402be00044278003f
:105120000e1b90008703e800050520008539b800b4
:105130008202780085024300844a780014c0b300dc
:1051400024579800890037003e6290000482fb00db
:105150008e1a90000403e800040520008432b80091
:1051600004824200ae529000154298003e629000c8
:10517000450220008e8242000501780084407800bc
:105180000e189000f7f207002e139000be13900047
:105190007400200005002000840f5300858f5b0001
:1051a000250036002e539000066f9800be629000d6
:1051b000840220000e0242000402e8007200200077
:1051c00003002000854078000e189000d9ef0700fa
:1051d00000427800044f78001e427800e04f5200f1
:1051e0000a00320006002000078020000e4a9000ce
:1051f000be0190004e419000be4090000e189000fd
:105200009ff0070000c2eb008e07370084022000e9
:105210000e024200840178003e419000ce40900092
:105220000e18900016f307002e5290000442e8007a
:10523000245798004d003700ae52900004c8b300c8
:1052400004c27200046f98002e139000be139000e9
:10525000be629000840220000e0242000402e800b8
:105260000601be00854078000e189000b1ef0700df
:1052700000427800044f78001e427800e04f520050
:105280000a00320006002000078020000e4a90002d
:10529000be0190004e419000be4090000e1890005c
:1052a00077f0070000c2eb00660737002e1290006f
:1052b000be12900061024200e0824a00540798004a
:1052c000650798000b0037005e0290008502200001
:1052d000848242000042eb0004f77a005e029000f4
:1052e000ee02900061024200e0824a0054079800fa
:1052f000650798005e039000ee03900074002000a4
:1053000005002000840f5300858f5b00eeff360000
:10531000840220000e024200840178003e41900089
:10532000ce4090000e189000d5f207003e6290002b
:105330008483fb002e129000be129000044278007d
:1053400075c0b30004c252000e1b9000050520007a
:105350008539b80082027800850243002505b00037
:10536000844a780000000000350737003e62900054
:105370000483fb008e1a9000040520008432b800dc
:105380008404b00004824200944290002e529000a7
:1053900084cf52006cff3100290737000e62900065
:1053a000e04f5200030032000e629000e24f5200c4
:1053b000b3013a001e427800e04f520010003a005c
:1053c0003e6290000483fb008e1a900004052000ca
:1053d0008432b8007602420004824200144278000f
:1053e000844278000524a200054f78001e4378000f
:1053f0000682fb000402ea004f22de00044f780020
:105400001e427800e04f52000a00320016022000cf
:10541000078020000042eb008001eb004e4190002d
:10542000be4090000e18900015f0070000c2eb007f
:10543000040737003e6290000483fb008e1a900040
:10544000040520008432b8000406b0000482420043
:1054500014027800e10f4200290032003e62900001
:105460000484fb003e6290000483fb008e1a9000cf
:10547000040520008432b8000406b0000482420013
:105480001402780004007800308b02000000000055
:10549000000278000e1b9000050520008544b8002e
:1054a00088027800850243000506b000840a78006f
:1054b0003e6290000484fb003e6290000481fb0089
:1054c000030020006033b80004b128000519200053
:1054d000016220000e189000508a020000000000b7
:1054e000000278000e1b9000050520008544b800de
:1054f00088027800850243000506b000840a78001f
:105500000e629000e04f52002d003a003e62900083
:105510000483fb008e1a9000040520008432b8003a
:105520007c0242000482420094037800370798000e
:105530003e6290000483fb008e1a90000405200058
:105540008432b8007e024200048242001441780096
:10555000024f98003e6290008483fb001e1a900068
:10556000444290000482fb004222de0004427800a4
:10557000614262000e1b9000050520008539b800cd
:1055800082027800850243008504b000844a7800d6
:105590003e6290008483fb001e1a9000044a900033
:1055a0000e1b9000050520008539b80082027800a6
:1055b000850243008504b0009442980086003700bd
:1055c0003e6290008483fb001e1a900064429000ab
:1055d0000e1b9000050520008539b8008202780076
:1055e000850243008504b000944298001e1a900082
:1055f000544290000474a100146798003e62900029
:10560000450220008e824200050178008440780027
:105610000e189000d3f107002e129000be129000d9
:10562000e00f5200e08f5a0038003a003e629000ce
:105630000482fb008e1a90000403e8000405200099
:105640008432b80004824200944290001e629000ae
:1056500084cf52002d003a003e6290000483fb008c
:105660008e1a9000040520008432b8002405b00092
:1056700004824200144278000482fb004222dd00d2
:105680008442780014ccb30004c27200046f980006
:1056900014002000050020005407980065079800ba
:1056a0000b0037005e0290008502200084824200d9
:1056b0000042eb0004f77a005e029000ee029000d8
:1056c00061024200e0824a00540798006507980092
:1056d0005e039000ee03900074002000050020009f
:1056e000840f5300858f5b00eeff3600840220009c
:1056f0000e024200840178003e419000ce409000ae
:105700000e189000def107004d0637003e62900053
:105710000480fb003e6290000482fb008e1a900021
:105720000403e800040520008432b800048242002b
:10573000144278008482fb001e6290000482fb0009
:10574000e722b80004824200cfa2de008e1b900048
:10575000060520008603b800068343004602b00019
:10576000048bbe003e6290000483fb008e1a900002
:10577000040520008432b8004402b00004824200d4
:105780001403be003e6290000480fb008e1a90005d
:10579000040520008402b8000402b0000482420024
:1057a0001402be00840f5300858f5b000a00360090
:1057b00016022000078020000042eb008001eb0071
:1057c0004e419000be4090000e1890002cef070054
:1057d00000c2eb001b0637003e6290008483fb0092
:1057e0003e6290000483fb008e1a900004052000a6
:1057f0008432b8004402b000048242001402be00a9
:10580000044278000e1b90008703e8000505200085
:105810008539b8008202780085024300844a780006
:1058200014c0b30024579800880037003e629000ef
:105830000482fb008e1a90000403e8000405200097
:105840008432b80004824200ae52900015429800a3
:105850003e629000450220008e82420005017800e1
:10586000844078000e1890003ef107002e1390003f
:10587000be1390007400200005002000840f530028
:10588000858f5b00250036002e539000066f980030
:10589000be629000840220000e0242000402e80072
:1058a0007200200003002000854078000e18900050
:1058b00020ee070000427800044f78001e42780076
:1058c000e04f52000a00320006002000078020004e
:1058d0000e4a9000be0190004e419000be409000e4
:1058e0000e189000e6ee070000c2eb00d505370069
:1058f000840220000e024200840178003e419000a4
:10590000ce4090000e1890005df107002e529000de
:105910000442e800245798004c003700ae52900033
:1059200004c8b30004c27200046f98002e139000e4
:10593000be139000be629000840220000e0242005e
:105940000402e8000601be00854078000e189000b1
:10595000f8ed070000427800044f78001e427800fe
:10596000e04f52000a0032000600200007802000ad
:105970000e4a9000be0190004e419000be40900043
:105980000e189000beee070000c2eb00ad05370018
:105990002e129000be12900061024200e0824a0086
:1059a00054079800650798000b0037005e029000ce
:1059b00085022000848242000042eb0004f77a0056
:1059c0005e029000ee02900061024200e0824a0016
:1059d00054079800650798005e039000ee0390005e
:1059e0007400200005002000840f5300858f5b00a9
:1059f000eeff3600840220000e024200840178008f
:105a00003e419000ce4090000e1890001cf107001f
:105a10003e6290008483fb002e129000be12900024
:105a20000442780075c0b30004c252000e1b9000ff
:105a3000050520008539b800820278008502430000
:105a40002505b000844a78000b0037003e629000c4
:105a50000483fb008e1a9000040520008432b800f5
:105a60008404b00004824200944290002e529000c0
:105a700084cf52006dff3100000000007005370038
:105a80000e629000e14f520035003a003e629000f5
:105a90000484fb003e6290000483fb008e1a900099
:105aa000040520008432b8000406b00004824200dd
:105ab0001402780004007800308b0200000000001f
:105ac000000278000e1b9000050520008544b800f8
:105ad00088027800850243000506b000840a780039
:105ae0003e6290000483fb008e1a900004052000a3
:105af0008432b80004824200f602420014c0b300af
:105b0000844a78003e6290000483fb008e1a900065
:105b1000040520008432b8002406b000048242004c
:105b200014027800e00f52000b0032003e62900039
:105b30000483fb008e1a9000040520008432b80014
:105b40002406b0000482420014027800ae409000a7
:105b50000e189000040001000042eb0039053700e8
:105b600016022000078020000042eb008001eb00bd
:105b70004e419000be4090000e18900040ee07008d
:105b800000c2eb002f0537004e429000e14f52005b
:105b9000ab023a001e427800e04f52009d003200f6
:105ba0001e1a90004442900061426200046798000f
:105bb0000e629000e04f52000a00320016022000f0
:105bc000078020000042eb008001eb004e41900076
:105bd000be4090000e18900029ee070000c2eb00b6
:105be000180537001e1a9000644290000482fb00e2
:105bf000c822dd001e1a9000544290000482fb006f
:105c000004827200340798001e1a9000f44290003b
:105c1000054f9800340220000e0242000401780073
:105c2000ce4090000e1890008cef070000427800e4
:105c3000044f78001e427800e04f52000a00320004
