:040000000128FD2FA7
:100E340021000C110C168C1623008C012100951333
:100E440024000C168C1622000C112130F50076308B
:100E5400F400F40B2B2FF50B2B2F00002130F500A1
:100E64007630F400F40B342FF50B342F00001130DE
:100E7400F5003A30F400F40B3D2FF50B3D2F000044
:100E840000302000A7000030A6000030A50000308C
:100E9400A4000030AB000030AA000030A9000030EC
:100EA400A80003108C1A03140030093DF400F50166
:100EB4007408AC007508AD0003100C1A031400305C
:100EC400093DF400F5017408AE007508AF00003068
:100ED400A3000030A2000030A1000030A000B00147
:100EE400B101B201B30164002930F400F40B782F8E
:100EF4000000031020008C1A03140030093DF40094
:100F0400F5012D087506031D892F2C087406031D91
:100F1400942F0130A4070030A53D0030A63D0030D9
:100F2400A73D9C2F0030A7000030A6000030A5008C
:100F34000030A40003100C1A03140030093DF4001F
:100F4400F5012F087506031DA92F2E087406031D2D
:100F5400B42F0130A8070030A93D0030AA3D00306D
:100F6400AB3DBC2F0030AB000030AA000030A9001C
:100F74000030A80003108C1A03140030093DF4005B
:100F8400F5017408AC007508AD0003100C1A0314C5
:100F94000030093DF400F5017408AE007508AF0097
:100FA40022000C15200031083306031DDB2F300806
:100FB40032060319F52F0030AB000030AA000030D0
:100FC400A9000030A8002B08A7002A08A6002908B9
:100FD400A5002808A4000030A3000030A2000030BF
:100FE400A1000030A0003308B101B1073208B001FC
:0C0FF400B007752F01007E1020001A2F9E
:020000040001F9
:04000E00FCFFFFFEF6
:00000001FF
