:020000040000fa
:080000000020040000000000d4
:020000040000fa
:100008004a210000522100008a2100005a210000e4
:10001800622100008a2100008a2100008a21000054
:100028008a2100008a2100008a2100008a2100001c
:1000380082fa00008a2100008a2100008a2100003b
:100048009c0201008a2100008a2100008a21000008
:100058008a2100008a2100008afa00008a21000013
:100068008a2100008a2100008a2100008a210000dc
:100078008a2100008a2100008a2100008a210000cc
:10008800b4fa00008a2100008a2100008a210000b9
:100098008a2100008a21000062fd0000c4fd0000e2
:1000a8008a2100008a2100008a2100003cb4000057
:1000b800bcfa00008a2100008a2100008a21000081
:1000c8008a2100008a2100008a2100008a2100007c
:1000d8008a2100008a2100008a2100008a2100006c
:1000e800b0eb00008a2100008a2100008a2100006c
:1000f8008a2100008a2100008a2100008a2100004c
:100108008a2100008a210000eccc00008a2100002e
:100118008a2100008a2100008a2100008a2100002b
:100128008a2100008a2100008a2100008a2100001b
:10013800f6fa00008a2100008a2100008a210000c6
:100148008a2100008a2100008a2100008a210000fb
:100158008a2100008a2100008a2100008a210000eb
:100168008a2100008a2100008a2100008a210000db
:100178008a2100008a2100008a2100008a210000cb
:100188008a2100008a2100008a2100008a210000bb
:100198008a2100008a2100008a2100008a210000ab
:1001a8008a2100008a2100008a2100008a2100009b
:1001b8008a2100008a2100008a2100008a2100008b
:1001c8008a2100008a2100008a2100008a2100007b
:1001d8008a2100008a2100008a2100008a2100006b
:1001e8008a2100008a2100008a2100008a2100005b
:1001f8008a2100008a2100008a2100008a2100004b
:100208008a2100008a2100008a2100008a2100003a
:100218008a2100008a2100008a2100008a2100002a
:100228008a2100008a2100008a2100008a2100001a
:100238008a2100008a2100008a2100008a2100000a
:100248008a2100008a2100008a2100008a210000fa
:100258008a2100008a2100008a2100008a210000ea
:020000040000fa
:104000008fdf24000edf27000e0188000000000073
:10401000000020000000e00002003200000120004b
:10402000200288000c000700001227000100200079
:104030000f000700000020000000e0000200320036
:1040400000000200000000004cef02000000000031
:104050000040da000000fe00008120000000e000c7
:1040600002003200002020009001880000000600bd
:10407000a1028800800078000000eb001a003700e1
:10408000e280400054a0b4009101ba00e2804000f8
:1040900054a0b4009102ba00e280400054a0b400e1
:1040a0000002eb00472bde00f507b200a6018800f6
:1040b000602ce10008003a000049eb000201e80032
:1040c000020039003420ec0002f0a0008301e90076
:1040d000f9ff3e00040037006128e10001003200d2
:1040e0000082eb00040007001101ba000200e000aa
:1040f000e3ff3a000000060004d0a300e20f4900ed
:104100001c003900810278003549ba000201e8003c
:10411000020039003420ec0002f0a0008301e90025
:104120000f0032002549ba000201e8000200390000
:104130003420ec0002f0a0008301e9000800320006
:104140000400e0000600320015c9ba000201e800d0
:10415000020039003420ec0002f0a0008301e900e5
:104160008180e80054a0b4000300e000e2ff3a00c0
:10417000000006009102ba00055978008301e900a9
:10418000f7ff3200c82ade00055978008301e900f4
:10419000f3ff32000400e000f1ff320011d9ba0051
:1041a000eeff370028d9040000000000d0eb040027
:1041b0000000000084cd040000000000d2d0040004
:1041c00000000000becf040000000000bad00400d0
:1041d0000000000016d00400000000007abe0400b9
:1041e00000000000acbe040000000000eec00400af
:1041f00000000000ba3604000000000018fb0400b4
:104200000000000008fb04000000000088f8040023
:1042100000000000eebe04000000000060f2040098
:10422000000000003ed804000000000046d8040052
:104230000000000062d80400000000006ad80400fa
:104240000000000032d304000000000052d304003c
:10425000000000008afc04000000000092fc040042
:10426000000000003cd304000000000046d304001e
:104270000000000088f2040000000000e8e00400f4
:10428000000000003eef04000000000092f1040076
:10429000000000000000fa00156ea900c028a90067
:1042a000ffff37000000fa00156ea900c068a900e2
:1042b000ffff37000000fa00156ea900c048a900f2
:1042c000ffff37000000fa00156ea900c088a900a2
:1042d000ffff37000000fa00156ea900c028a900f2
:1042e000ffff37000000fa00156ea900c068a900a2
:1042f000ffff37000000fa00156ea900c048a900b2
:10430000ffff37000000fa00156ea900c088a90061
:10431000ffff37000040da000000fe0004118000bb
:104320000000fa00e00f520006003d0004402000ab
:104330001511800005026200020032002302ab006a
:10434000feff32000040da00feff3700440020008c
:104350000a00fa0010079800410798000e00780044
:10436000040f7800220798003307980071060700b1
:104370002e009000be0090000080fa0000000600b1
:104380000a00fa00e20f500022003e00a46f8200f3
:10439000e10f520006003200872320004623200050
:1043a0002423200005232000e08f530004003a005e
:1043b00087222000462220002422200005222000ff
:1043c000000028001500600003003a00800b780010
:1043d00007002800958a730005402000948262003f
:1043e00001003a0014a0a000820278000600370005
:1043f000940378000710b200fdff3200b103fb0008
:10440000070b78008502e900e08f5200f8ff3a00c0
:104410000800370034002000100798003207980089
:10442000040f7800210798000e0078004506070069
:104430003e019000020078000080fa0000000600b3
:104440000000fa00889fbe0080047800b06f8200f0
:10445000e00f500004003a000f0007000084eb005a
:10446000e00f500008003500b86f8200e08f540064
:10447000050032000900440007000700e00f50006b
:1044800001003d000084eb00080078004f04be00ee
:104490000080fa00000006000000fa00e00f500063
:1044a00004003a0004002000b46f8a000002780083
:1044b000060037000082eb0005002000850f500049
:1044c00002003e00b06f8a000002eb00040078009a
:1044d0000080fa00000006002024ef000000fa002f
:1044e0000080fa00000006002224ef000000fa001d
:1044f0000080fa00000006002824ef000000fa0007
:104500000080fa00000006002a24ef000000fa00f4
:104510000080fa00000006000a24ef0067826000b5
:104520000468a9004c22dd00602088000000fa0029
:10453000f5ff2800e88060008642800086826200e5
:104540000080fa008502720074ff2f008542880007
:104550002541800005026200048270002441880029
:10456000000006000748a900670260000000fa008a
:104570004822dd00f58f2f0068006000e6428000d1
:10458000868262004300de008502720061006000e6
:10459000e54288004a00dd00f4bf2f000080fa00e9
:1045a0003541800005026200040270003441880039
:1045b00000000600000e88000000fa00110e8800be
:1045c0000080fa00220e880000000600300e8000f5
:1045d0000000fa00510e80000080fa000000060082
:1045e000100290000000fa00d40e88000080fa004b
:1045f00010007800b00e8800000006001002900045
:104600000000fa00540e88000080fa0010007800c4
:10461000300e8800000006002148a9000000fa00c2
:1046200041e2a9000080fa000148a900000006004c
:10463000101288000000fa00211288000080fa00a1
:10464000021288000000060031e2a9000000fa0012
:1046500023c8a9000080fa0023e8a90003c8a90024
:1046600003e8a9000000060003c8a9006702600073
:1046700003e8a9004822dd000000fa00f58f2f00b2
:104680000080fa0076428000868262008502720015
:1046900000027800754288000407b200f5ff280088
:1046a0004822dd0076428000868262008502720028
:1046b00068026000754288004322de00f5ff2b008f
:1046c0006102620016418000868262004e22dd0097
:1046d0000008b200850272004700de001541880024
:1046e00061006000f4ff27004f00dd0015418000ed
:1046f00005026200040270001441880000000600f8
:10470000c21188000000fa00801188000080fa00c1
:10471000911188000000060003f0a200889fbe00ef
:104720008a9fbe008c1f7800850107008c01330032
:104730006450e1004f0032006420e100520032007a
:1047400003826c0007003b000905d0000306d0007f
:10475000820f54000c065d00020039000200320096
:1047600089017800030678008582550004003d0029
:104770000003fd008103fd008502ea008b854200f5
:10478000840f720002003b0060001000e0801800ff
:104790006011b8000005eb007a28e1000a0039003a
:1047a00006007800c75ddd00f707b200878075005e
:1047b0002d003700828171000a01780061056000d8
:1047c0008180d1000080d3008502e900f9ff3b0021
:1047d000060440008784480002003b006004140087
:1047e000e0841c000988a300070032008a81710060
:1047f00082817100610164008904d1000884d300c2
:104800008b05e800170037000978a30013003a0071
:104810000b00e000130034008b05e900080444009d
:1048200089844c000a4474000978a3000d003a0002
:104830000b00e000070034008b05e9000804440089
:1048400089844c0001003a000b0020000978a30085
:10485000f7ff32000001eb00020037008281710097
:104860000a017800fb0007000cf0a70001f0a0008f
:10487000440137006420e10002003a00838f6c009d
:10488000440133000801be000200be003d013700b4
:104890000081eb0076013700889fbe008a9fbe0032
:1048a0008c1f7800260107002d01330003866c0061
:1048b0006450e1002e0032006420e1003300320039
:1048c0006150e1002f0032006120e1003100320030
:1048d00085855500eb07b000090020000804200082
:1048e000050037000804440089844c000a003100a8
:1048f0000603430087834b000001530081815b0066
:10490000f8ff33000203be000800a00008044400c2
:1049100089844c00f6ff3900c639dd00830173003d
:1049200001003200130020008904d1000884d30064
:104930000998a300050032000800a7000300a000aa
:104940008904d1000884d3008b05e8008904d100d4
:104950000884d3000001eb000281d200bd000700f3
:1049600001f0a1000cf0a70001f0a0000501370044
:104970006420e100070132000801be000200be0011
:10498000f7ff37006120e100020132006000b8004b
:10499000f3ff37000000200001f82700f0ff370088
:1049a000839f68000100e00002003d0060001000ed
:1049b000e08018000300e00002003d0060011100eb
:1049c000e0811900950107004f00e00002003b0064
:1049d00060001000e08018000000060014002000b5
:1049e000c8013700f4ff2f00c60137000001be00e8
:1049f000be0007000470a70003f0a1006509b10024
:104a0000160032000d0035006828e1000600350070
:104a1000f0ff2f00f1ff27000300e00013003b0030
:104a200001002800000005000000400081804800cf
:104a30008502e900fcff3a0008003700f88f4200c9
:104a400002003c008000eb00000005008100d10066
:104a50000080d3008502e800fcff3a000300e0007c
:104a600002003b0060001000e0801800000006001b
:104a70000001be009d0007000470a70003f0a10024
:104a800003f8a30013003a006509b10010003200da
:104a9000090035006928e100020035000100280006
:104aa0000000050000004000818048008502e90008
:104ab000fcff3a0000000600f88f420005003500b8
:104ac0008100d1000080d3008502e800fcff3a009d
:104ad000000006008000eb00000005004f89de00aa
:104ae00082017800a20137006011b800b0013700e0
:104af0000001eb005c01070004003200020020000e
:104b000003f8230001f0a70003ff070000000600e0
:104b10000400200000003700889fbe008a9fbe006e
:104b20008c1f78004f26dd00850007008c003300c5
:104b30006120e100430032006250e10041003e008c
:104b40003e0039006420e1003c003200058255003f
:104b50000f003b000402e80038003a00800f5300c9
:104b6000818f5b00350034000800be0003f0a10017
:104b700001f0a60003f0a0000cf0a700e7fe07007c
:104b8000800037000603430087834b000c46460035
:104b90000005530081855b00020033000a03be005c
:104ba0000c00a0000402e900f6ff3b008505780038
:104bb0000602430087824b0004003a006000b80000
:104bc00009f0a70001f0a0006e00370000025200bb
:104bd00081825a000704e00004003300060343000a
:104be00087834b008b05e900faff37000905780041
:104bf0000604be000203be006011b80015000700e5
:104c0000e00f5200e08f5a000700350002003c0020
:104c10000c08a300040032000601be0003f0a0004f
:104c20000cf0a700bdfe07000a85680001f0a10096
:104c30000af0a70001f0a000520037000800be00f3
:104c400050003700100220000cf0a6000080880001
:104c50005000370081002000618055000b003d00ae
:104c60000b00200061fe2f000100e1001d00340058
:104c700082817100610164008904d1000884d3003d
:104c80000000e800faff3a007100200061006400b3
:104c9000030070000200600009003200610444005b
:104ca000e0844c000988a500050032008b05e8006f
:104cb0006808e10002003a008904d1000884d300aa
:104cc000f20f20000258e10005003d00c75ddd0045
:104cd000f907b2008980750008007800000006001e
:104ce0000bf827008b00780000000500c70ade00e3
:104cf000f107b200f50fb20008003200e1cf420028
:104d0000020032000170a00024000500810f700035
:104d1000010032000408050044000500810f700006
:104d200002003a00140005008502e900000040007e
:104d300081c04800fcff3b000170a000240005007a
:104d40000004be00e9ff07000003be000405be002a
:104d50000200be00e5ff0700844f7500000006005a
:104d60000200be006450e100050036006420e1004e
:104d7000020036000968a30001003a000800be00e6
:104d80000160a0004f0678004f05be004f04be0032
:104d900000000600f0ff2f00f1ff2700f9ff3700a9
:104da000889fbe008a9fbe008c1f7800e4ff07002a
:104db000ebff330003866c006450e10024003200f6
:104dc0006420e100270032006150e100220032003f
:104dd0006120e100210032008b854200eb07b10029
:104de0000134b800003ab8000804420089844a003f
:104df000013ab8000030b8008880400009014a003c
:104e00000400330000004000818048000201490096
:104e10008b05e900c909dd00830170000100320043
:104e200013002000c814de004814dd004709de002e
:104e30001200b200c808de000884700085ff070079
:104e400001f0a1000cf0a70001f0a000cdff370099
:104e50006120e100cfff32000801be000200be0069
:104e6000f7ff37006150e100fcff3a00c9ff37004f
:104e7000889fbe008a9fbe008c9fbe00820578007e
:104e80000004be0099ff07000800be006420e10096
:104e90000700390002003a00f1ff2700f0ff2f0061
:104ea0000160a00012022000028088005500370037
:104eb0006120e10003003a000b00a70001f8230085
:104ec0005000370001f0a10002002100936424008b
:104ed000c2fe07000800be0004003500b2fd20003d
:104ee000930c24000aff07000004be000005eb003d
:104ef0000b00a6004f0dde0001f0a1000004be0073
:104f000032982f0023ea2300a5ff07000001eb00e1
:104f100003f023000b00a70003f82300fffd0700a8
:104f2000b2fe07000000a7000a00a200ebfe070087
:104f30000b00e000030032000200200003f0230019
:104f4000f5fd070001f0a2000006be0002002000ef
:104f50009304240092ff07000801be00effd070044
:104f6000809fbe000c00be0022a22a00d3a723000f
:104f70008bff07004f01be00e8fd07000004be00e4
:104f800001f0a100020020000398230093fe070017
:104f90000800be00190035000001be0080ff0700b8
:104fa0000006be00b2c52900e36223007cff0700b3
:104fb00022222b00f3942b00d8fd07000c01be0029
:104fc00077ff0700e273280083c02300d3fd0700aa
:104fd0000c01be0072ff070042aa2a00a3e22b00c8
:104fe000cefd07000c01be006dff07000801be00ea
:104ff0006bff07000801be00c8fd07000a00a700fc
:1050000001f0a2004f06be004f05be004f04be00d7
:10501000000006000001eb0095ff37006022b80099
:10502000060220000000d0008180d2000482d2005d
:105030008582d2000000a0000202520083825a0042
:10504000030031000202420083824a000000a100f6
:105050000603e900f3ff3a0000000600efff070037
:105060000400be0000000600889fbe008a9fbe00ac
:105070000003be001dff07008505780082815200f5
:10508000020020006220e10004003a00f307b100b2
:10509000040035007718e100040035000600be006a
:1050a000140037006000b8000f003700f50f200033
:1050b000faff2f008502d1000a85d3008301e900a1
:1050c000fcff3b008184620000046500890f7400ce
:1050d000f2ff32008582ea000a85ea0081846200dc
:1050e00000046500dbfe070007f0a70001f0a00048
:1050f0000081eb000200e0004f05be004f04be003f
:1051000000000600889fbe008a9fbe00841f7800b2
:105110000bff07004f00780011003300f0ff2f0055
:10512000838f6c0006003b00040565000a00a700a1
:105130000800370009f0a600100020000800370022
:10514000820f5400838f5c000300390010002000a0
:1051500001003e000000200009f0a7000000ea0066
:105160004f05be004f04be000000e0000000060036
:10517000881f7800030478000300e00007003d006a
:1051800060001000e080180060011900e081190043
:1051900002003b0001f02d0003003700040007006f
:1051a00008f0a70001f0a0004f04780000000600fe
:1051b000889fbe008a9fbe000082700004027100ba
:1051c00004827100260032000004be000200be000e
:1051d0006011b8006b092000950220000182cf0009
:1051e0000a0039000541b1000082cf0007003900f4
:1051f0000541b1000982cf00040039000541b1002a
:105200000882cf00010039000541b100054252007b
:10521000120032000a003b008281710061016400cb
:105220008100d1000080d3008984d3000884d3009a
:105230008b05e8000442e800f7ff3a00070037005a
:105240000804440089844c00000048008180480024
:105250008b05e9000442e900f9ff3a007dfe0700f2
:105260004f05be004f04be00000006000004780099
:105270000000fa00ad0107000800780027fc0700d5
:105280000000fa00889fbe00010478008084eb00d3
:1052900038029000e20262003b0032000403780012
:1052a000980290000620b20002003a00e08f5200ff
:1052b00035003a000490a00080047800340498007f
:1052c000f90fb200e08f520002003a00a8029000ed
:1052d000050c7800ea8f540005003a000408b2007b
:1052e00003003a0088007800d0002000e4ff0700a7
:1052f00018029000d8029000850f52000b00320077
:105300000402e80015c0b3001404980018027800e5
:10531000094a7800040ce800e4de2400054a78001d
:10532000ea8f540018003a00050037000940780061
:1053300088007800ac010700800478001200370074
:10534000380290000410b2000f00320018019000e3
:10535000a80090004800900009fc07001802900087
:10536000840f500004003200380290000403b300a0
:10537000340498008084eb000002eb0014049800d1
:1053800028029000040c7800090078004f04be0049
:105390000080fa00000006000000fa00889fbe00ae
:1053a000030478008a9fbe003802900080057800d0
:1053b0008c9fbe00810478000205780062006200c4
:1053c0005200320004007800980290000020b200e1
:1053d00002003a00e08f52004c003a000490a00016
:1053e00034049800e08f520002003a002802900036
:1053f000040c7800b802900004c02000848262008f
:10540000848f520004003a00210020006011b8008f
:1054100008007800ea0107003802900089d6b90038
:1054200004b0a10034049800e00f560036003200aa
:1054300028029000e00f5200240032003802900051
:105440000408b20021003200d80690001802900033
:10545000848656008c8f560003003e00e08f560075
:105460001a003200010037008c0678000d01780028
:105470008b007800180078008d8545001901070021
:105480000d06560018029000188c460084864600cf
:10549000580290001d049800848f560007003a00bf
:1054a0000800780024010700e00f50000e003200d1
:1054b00058029000040646000d00370014c0b300e7
:1054c000e5de2400844a7800070037001b00fb005b
:1054d000880078006aff0700e10f400004003200f6
:1054e0008b05e8000c06e900e00f5600d0ff3a00fb
:1054f0000900e9000c064000110009000986d800e7
:1055000000005500010037000c0078004f06be0077
:105510004f05be004f04be000080fa0000000600e8
:10552000c4dc24000400fa00656e8200889fbe007f
:105530008a9fbe008c9fbe00e08f52000b003a0095
:1055400024029800e4024200346f8a00656e8a00eb
:10555000456f8a00a44290000504a00025429800ef
:10556000e44290000504a0006542980067044000f2
:1055700004002000250020004244de000900200035
:105580004244dd00848454003c00200011000900e6
:105590008504d8000406560085024400326f82005c
:1055a00085824200000f7800150798000003eb0089
:1055b000e4054400080646000200370016002000fb
:1055c0000d01780022429000610262000200320068
:1055d0000a003700150978009202780025429000f1
:1055e00061026200fbff320008024100848f52001a
:1055f00002003900e00f54003e003d0092067800a2
:105600000d00a100828f5600edff3e00e10f530018
:10561000eaff3a001e027800840f540002003600b0
:10562000890f54000f003900614ab900b0ff2f0004
:10563000010020006143b800040250008582580038
:10564000840f5300858f5b00020035000b05780046
:1056500005003700110009000986d8008985b900c6
:10566000010037001e0590000a00780074fb070057
:10567000e10f400005003a000b0578000b007800b0
:105680006ffb0700e10f40002b003200446f8200e7
:10569000000a7800446f820064034200a442900034
:1056a000860f5000020032000504a0000100370000
:1056b0000504a1002542980064055500c4dc2400bf
:1056c0000a0540000a0878004a6f8a00040d780035
:1056d000456f82000003eb00254290000404a00007
:1056e000a4429800204290000404a10024409800a5
:1056f000b3ff3700346f8a00848f520007003600f2
:105700001403be008042eb00166f8a00276f8a00e8
:10571000120a7800346f82002542980022429000dd
:10572000376f82000404a000070978002441980024
:1057300064004100010037000000eb004f06be008e
:105740004f05be004f04be000080fa0000000600b6
:105750000000fa00e00f5000080032006400500022
:10576000346f8200840f500001003100306f8a00d6
:10577000204290000404a100244098000080fa0018
:10578000000006000000fa00889fbe0000047800b8
:105790008a9fbe0081047800e08f540005003a0023
:1057a000e00f54003200320008007800e8ff0700e4
:1057b00030003700e00f540004003a000900780080
:1057c00057ff0700800478002a0037006402540065
:1057d0009405780068fa97006102620002003200c6
:1057e00008007800daff0700090078004cff070086
:1057f00080047800e08f54001e003200888f54002f
:105800001b00320069bd97008885550009055500c9
:10581000c2ddde0042d5de000a0178008b0f5500a4
:10582000010036000b0178004211dd00880078008d
:10583000090078002b000700888f54000d0031000c
:105840004255dd000a854400880f550009003600e6
:1058500008045500146f8200256f820042c4de00e8
:105860004244dd0008844400048cbe00010037007f
:10587000880478004f05be00090078004f04be0080
:105880000080fa00000006000400fa000e02780012
:10589000000f7800012a78000d0037009e03780081
:1058a0001e03900017407800964278000201e9003c
:1058b000854f5000040032000080fb008582fb0011
:1058c0000500500005003700070fe800060ae80051
:1058d000e00f5100f1ff3a00020078000080fa006a
:1058e000000006000000fa00000278000200370005
:1058f000315a78000201e900e00f5100fcff3a0044
:105900000080fa00000006000000fa0000027800a3
:1059100002003700015a78000201e900e00f51004f
:10592000fcff3a000080fa00000006000000fa00c8
:105930000080fa00000006000000fa00881f7800ce
:105940000004780038009000000278001420b200b3
:10595000e10f520005003a000002eb001404980029
:1059600028029000040c78001900370080027800ab
:10597000242020002520b2000000eb00848f52007c
:1059800016003a00a8009000808f500013003200eb
:1059900018019000800f5100100032004800900064
:1059a00077fa070018029000840f500003003200bd
:1059b000380290000403b3003404980038009000cb
:1059c0000002eb001404980028029000040c7800f8
:1059d0000002b200010032000080eb004f047800aa
:1059e0000080fa00000006000200fa00889fbe0056
:1059f00001047800004f780038029000840278009b
:105a00000504b200020032000000fb003300370042
:105a1000e202620005003a000403b3001504980096
:105a2000340498000080eb002c003700d80490006c
:105a3000e08f540006003a00120020008e0078002b
:105a4000480090004efa0700190498002200370021
:105a5000a8029000e08f520008003a0025df2400e1
:105a60000430a00025049800050c78003404980048
:105a70002500200055049800150498001801900096
:105a8000a8009000480090003dfa0700280290000e
:105a90008082eb00150498001e4a7800040ce80090
:105aa000a4c0b3009e4f12000b003a0038029000d1
:105ab0000410b2000800320018019000a800900005
:105ac000480090002efa07000002eb001404980032
:105ad00028029000040c78001e00fb004f04be005a
:105ae0000080fa00000006000000fa00881f78001d
:105af000000478008a9fbe008c9fbe006011b80031
:105b0000180078001100200010fa07006011b8009a
:105b10000006be0018007800210020000bfa0700e4
:105b20000c01be000005be00180078008000eb00ec
:105b300006fa07004f06be000a00be004f05be0071
:105b40004f0478000080fa00000006000000fa0010
:105b5000881f780000047800110020006011b80050
:105b600048009000f9f9070018029000e00f520079
:105b700002003d000002eb0014049800280290008f
:105b800098029000e00f52000700320038029000a7
:105b90000420b20004003200612ab9000000420073
:105ba00081804a0003003700612ab90004005000d8
:105bb000858058004f0478000080fa00000006003d
:105bc0000400fa00881f7800000478003802900072
:105bd0000440a1003404980028029000e00f520015
:105be00009003a0048009000d8f907000100600061
:105bf0000082ea0004f0a7000402ea000400e900c1
:105c00004f80de0048003700e18f50000500320071
:105c1000e28f500008003200e08f50001000320088
:105c20004000370008007800020f78001307980042
:105c3000c6ff07000600370008007800020f780052
:105c4000130798003cff070068004400a6ff070008
:105c50001e0178009e0190000201400083814800ef
:105c6000020f78001307980008007800b7ff0700bc
:105c70001e0178009e0190000002510081825900af
:105c8000030032003803900006b0a00036049800ec
:105c90003803900063036300e10f53000d003a00e6
:105ca000e00f5200e08f5a000a0035001803900000
:105cb0006130b900800f5200818f5a0005003c000e
:105cc00004035300180c4200160498000000eb0077
:105cd00015003700380290000420b200090032009d
:105ce00018029000e00f520006003200020f780008
:105cf00013079800080078000fff07009e0190002e
:105d00001e0178008000eb0028029000110498002a
:105d1000040c7800480090008cf907004f88de00e2
:105d2000010037000080eb004f0478000080fa008b
:105d3000000006000000fa0000c0da000080fa004f
:105d4000000006000000fa0000c0da000080fa003f
:045d50000000060049
:020000040000fa
:105d540041520000434300004f5300005f430000e2
:105d64004f52000044490000432000002d20000051
:105d740046610000746100006c2000006572000040
:105d8400726f0000722100000a0000002020000051
:105d9400312e0000302000003c2000007c54000024
:105da4007c2e00000a000000415200004353000012
:105db400494e00005f4300004f5200004449000078
:105dc400432000002d2000004661000074610000a3
:105dd4006c20000065720000726f000072210000e8
:105de4000a0000004c4e00005f4300004f520000c8
:105df40044490000432000002d20000046610000bb
:105e0400746100006c20000065720000726f000075
:105e1400722100000a00000020200000496e0000ea
:105e24007075000074200000617200006775000046
:105e34006d6500006e74000020580000203c0000d6
:105e44003d200000302e0000300a00000052000007
:105e5400385f0000554e0000494600004f520000d4
:105e64004d5f000030310000202d0000204600006e
:105e740061740000616c0000206500007272000013
:105e84006f720000210a0000002000002049000079
:105e94006e7000007574000020760000616c0000d4
:105ea40075650000206f0000662000005345000067
:105eb40045440000203d0000203000002e0a000070
:105ec4000053000051520000545f0000434f000093
:105ed4005244000049430000202d000020460000e9
:105ee40061740000616c00002065000072720000a3
:105ef4006f720000210a00000020000020580000fa
:105f0400203c0000203000002e0a000000000000a9
:105f1400db0f0000493f000038630000ed3e000045
:105f2400b0db00007a3e0000d5ad0000fe3d00006d
:105f3400deaa00007f3d0000aeea0000ff3c000046
:105f4400abfa00007f3c0000abfe0000ff3b00000a
:105f5400abff00007f3b0000ebff0000ff3a0000b6
:105f6400fbff00007f3a0000ffff0000ff39000044
:105f7400000000008039000000000000003900002b
:105f8400000000008038000000000000003800001d
:105f9400000000008037000000000000003700000f
:105fa4000000000080360000000000000036000001
:105fb40000000000803500000000000000350000f3
:105fc40000000000803400000000000000340000e5
:105fd40000000000803300000000000000330000d7
:105fe40000000000803200000000000000320000c9
:105ff40000000000803100000000000000310000bb
:1060040000000000803000000000000000300000ac
:1060140000000000802f000000000000002f00009e
:1060240000000000802e000000000000002e000090
:1060340000000000802d000000000000002d000082
:1060440000000000802c000000000000002c000074
:1060540000000000802b000000000000002b000066
:1060640000000000802a000000000000002a000058
:10607400000000008029000000000000002900004a
:10608400000000008028000000000000002800003c
:10609400000000008027000000000000002700002e
:1060a4000000000080260000000000000026000020
:1060b4000000000080250000000000000025000012
:1060c4000000000080240000000000000024000004
:1060d40000000000802300000000000000230000f6
:1060e40000000000802200000000000000220000e8
:1060f4004c090000d33f0000f25a0000a43f000006
:10610400020b0000913f00005b410000883f00004b
:106114002b100000843f000005040000823f0000b3
:1061240001010000813f000040800000803f00002a
:1061340010400000803f000004200000803f000069
:1061440001100000803f000000080000803f0000b4
:1061540000040000803f000000020000803f0000b7
:1061640000010000803f000080000000803f00002c
:1061740040000000803f000020000000803f00003d
:1061840010000000803f000008000000803f000075
:1061940004000000803f000002000000803f000077
:1061a40001000000803f000001000000803f00006b
:1061b40000000000803f00004c090000d33f0000b5
:1061c400f25a0000a43f0000020b0000913f0000bf
:1061d4005b410000883f00002b100000843f00005a
:1061e40005040000823f000001010000813f00001f
:1061f40040800000803f000010400000803f00000d
:1062040004200000803f000001100000803f0000d7
:1062140000080000803f000000040000803f0000f0
:1062240000020000803f000000010000803f0000e9
:1062340080000000803f000040000000803f00001c
:1062440020000000803f000010000000803f00009c
:1062540008000000803f000004000000803f0000b0
:1062640002000000803f000001000000803f0000a9
:1062740001000000803f000000000000803f00009b
:10628400db0f0000493f000038630000ed3e0000d2
:10629400b0db00007a3e0000d5ad0000fe3d0000fa
:1062a400deaa00007f3d0000aeea0000ff3c0000d3
:1062b400abfa00007f3c0000abfe0000ff3b000097
:1062c400abff00007f3b0000ebff0000ff3a000043
:1062d400fbff00007f3a0000ffff0000ff390000d1
:1062e40000000000803900000000000000390000b8
:1062f40000000000803800000000000000380000aa
:10630400000000008037000000000000003700009b
:10631400000000008036000000000000003600008d
:10632400000000008035000000000000003500007f
:106334000000000080340000000000000034000071
:106344000000000080330000000000000033000063
:106354000000000080320000000000000032000055
:106364000000000080310000000000000031000047
:106374000000000080300000000000000030000039
:1063840000000000802f000000000000002f00002b
:1063940000000000802e000000000000002e00001d
:1063a40000000000802d000000000000002d00000f
:1063b40000000000802c000000000000002c000001
:1063c40000000000802b000000000000002b0000f3
:1063d40000000000802a000000000000002a0000e5
:1063e40000000000802900000000000000290000d7
:1063f40000000000802800000000000000280000c9
:1064040000000000802700000000000000270000ba
:1064140000000000802600000000000000260000ac
:10642400000000008025000000000000002500009e
:106434000000000080240000000000000024000090
:106444000000000080230000000000000023000082
:106454000000000080220000000000000022000074
:10646400f3040000353f00009be80000213f0000da
:106474000e1300001d3f00008adc00001b3f0000db
:10648400d68e00001b3f0000687b00001b3f00000d
:106494008c7600001b3f0000557500001b3f000078
:1064a400087500001b3f0000f47400001b3f00004f
:1064b400ef7400001b3f0000ee7400001b3f00005f
:1064c400ee7400001b3f0000ee7400001b3f000050
:1064d400ee7400001b3f0000ee7400001b3f000040
:1064e400ee7400001b3f0000ee7400001b3f000030
:1064f400ee7400001b3f0000ee7400001b3f000020
:10650400ee7400001b3f0000ee7400001b3f00000f
:10651400ee7400001b3f0000ee7400001b3f0000ff
:10652400ee7400001b3f0000ee7400001b3f0000ef
:10653400ee7400001b3f0000ee7400001b3f0000df
:10654400ee7400001b3f0000ee7400001b3f0000cf
:10655400ee7400001b3f0000ee7400001b3f0000bf
:10656400ee7400001b3f0000db0f0000493f0000f9
:1065740038630000ed3e0000b0db00007a3e00000e
:10658400d5ad0000fe3d0000deaa00007f3d000006
:10659400aeea0000ff3c0000abfa00007f3c0000c4
:1065a400abfe0000ff3b0000abff00007f3b0000a0
:1065b400ebff0000ff3a0000fbff00007f3a000001
:1065c400ffff0000ff3900000000000080390000d8
:1065d40000000000003900000000000080380000c6
:1065e40000000000003800000000000080370000b8
:1065f40000000000003700000000000080360000aa
:10660400000000000036000000000000803500009b
:10661400000000000035000000000000803400008d
:10662400000000000034000000000000803300007f
:106634000000000000330000000000008032000071
:106644000000000000320000000000008031000063
:106654000000000000310000000000008030000055
:10666400000000000030000000000000802f000047
:1066740000000000002f000000000000802e000039
:1066840000000000002e000000000000802d00002b
:1066940000000000002d000000000000802c00001d
:1066a40000000000002c000000000000802b00000f
:1066b40000000000002b000000000000802a000001
:1066c40000000000002a00000000000080290000f3
:1066d40000000000002900000000000080280000e5
:1066e40000000000002800000000000080270000d7
:1066f40000000000002700000000000080260000c9
:1067040000000000002600000000000080250000ba
:1067140000000000002500000000000080240000ac
:10672400000000000024000000000000802300009e
:106734000000000000230000000000008022000090
:106744000000000000220000db0f0000493f0000b1
:1067540038630000ed3e0000b0db00007a3e00002c
:10676400d5ad0000fe3d0000deaa00007f3d000024
:10677400aeea0000ff3c0000abfa00007f3c0000e2
:10678400abfe0000ff3b0000abff00007f3b0000be
:10679400ebff0000ff3a0000fbff00007f3a00001f
:1067a400ffff0000ff3900000000000080390000f6
:1067b40000000000003900000000000080380000e4
:1067c40000000000003800000000000080370000d6
:1067d40000000000003700000000000080360000c8
:1067e40000000000003600000000000080350000ba
:1067f40000000000003500000000000080340000ac
:10680400000000000034000000000000803300009d
:10681400000000000033000000000000803200008f
:106824000000000000320000000000008031000081
:106834000000000000310000000000008030000073
:10684400000000000030000000000000802f000065
:1068540000000000002f000000000000802e000057
:1068640000000000002e000000000000802d000049
:1068740000000000002d000000000000802c00003b
:1068840000000000002c000000000000802b00002d
:1068940000000000002b000000000000802a00001f
:1068a40000000000002a0000000000008029000011
:1068b4000000000000290000000000008028000003
:1068c40000000000002800000000000080270000f5
:1068d40000000000002700000000000080260000e7
:1068e40000000000002600000000000080250000d9
:1068f40000000000002500000000000080240000cb
:1069040000000000002400000000000080230000bc
:1069140000000000002300000000000080220000ae
:106924000000000000220000db0f0000493f0000cf
:1069340038630000ed3e0000b0db00007a3e00004a
:10694400d5ad0000fe3d0000deaa00007f3d000042
:10695400aeea0000ff3c0000abfa00007f3c000000
:10696400abfe0000ff3b0000abff00007f3b0000dc
:10697400ebff0000ff3a0000fbff00007f3a00003d
:10698400ffff0000ff390000000000008039000014
:106994000000000000390000000000008038000002
:1069a40000000000003800000000000080370000f4
:1069b40000000000003700000000000080360000e6
:1069c40000000000003600000000000080350000d8
:1069d40000000000003500000000000080340000ca
:1069e40000000000003400000000000080330000bc
:1069f40000000000003300000000000080320000ae
:106a0400000000000032000000000000803100009f
:106a14000000000000310000000000008030000091
:106a2400000000000030000000000000802f000083
:106a340000000000002f000000000000802e000075
:106a440000000000002e000000000000802d000067
:106a540000000000002d000000000000802c000059
:106a640000000000002c000000000000802b00004b
:106a740000000000002b000000000000802a00003d
:106a840000000000002a000000000000802900002f
:106a94000000000000290000000000008028000021
:106aa4000000000000280000000000008027000013
:106ab4000000000000270000000000008026000005
:106ac40000000000002600000000000080250000f7
:106ad40000000000002500000000000080240000e9
:106ae40000000000002400000000000080230000db
:106af40000000000002300000000000080220000cd
:106b04000000000000220000010000003e300000f0
:106b140001000000001000004630000001000000e9
:106b24000110000064300000010000001710000094
:106b34006e3000000500000018100000a0300000b6
:106b44000300000000120000c43000000400000034
:106b540080120000ec300000070000000014000068
:106b64002c31000007000000011400006c3100000b
:106b74000700000002140000ac3100000700000010
:106b840003140000ee3100000300000000160000b2
:106b94001032000003000000011600003232000031
:106ba400030000000216000054320000030000003d
:106bb40003160000763200000700000000180000f1
:106bc400b43200000700000001180000f232000097
:106bd4000700000002180000303300000700000026
:106be400031800007233000003000000001a0000c4
:106bf4008c33000009000000011a0000d6330000a5
:106c040009000000021a00002034000009000000fe
:106c1400031a000068340000010000000120000095
:106c240070340000010000000220000078340000ed
:106c34000100000003200000803400000100000077
:106c4400042000008834000001000000003000002f
:106c5400903400000100000001300000983400006e
:106c64000100000002300000a03400000100000018
:106c740000400000a834000001000000646000002f
:106c8400b0340000010000006c600000b834000063
:106c94000100000078600000c03400000100000022
:106ca4007a600000c834000001000000ff600000aa
:106cb400d234000006000000106400000235000019
:106cc400010000000265000004000000050000004f
:106cd400060000000a0000000e0000001200000080
:106ce4000400000005000000090000000d00000081
:106cf4001100000015000000250000000002000043
:106d04000000000000030000000000000004000078
:106d140000000000000500000000000080010000e9
:106d2400000000008002000000000000800300005a
:106d340000000000800400000000000000010000ca
:106d4400010100000100000001000000000100003a
:106d5400010100000101000000000000000000002b
:106d6400000000000100000001000000a44d00002c
:020000040000fa
:106d74000a00fa0020079800320798004307980099
:106d84002e0290005402900014019000020f78002b
:106d94001e027800e00f520084003200ae02900020
:106da4003e0390000405200084b2b900740242003e
:106db40004824200144278000482fb009e024200d6
:106dc4002e0290006402900014029000848f5200fe
:106dd40078003e002e029000940290002e03900052
:106de400be0390000405200084bab9007402420076
:106df40004024300144278000482fb001e02420095
:106e0400e622b900048242001402780078024200ab
:106e1400340290001402be0024479800ae02900091
:106e24003e0390000405200084b2b90004824200ad
:106e34000406b0008082eb00050a7800ae029000e0
:106e44003e0390000405200084b2b900048242008d
:106e54007602420055c8b300054a7800ae0290009d
:106e64003e0390000405200084b2b9007e02420073
:106e740004824200144278002e039000be03900066
:106e84000505200085b9b90082027800fc82420021
:106e940085024300950078002e039000be03900005
:106ea4000505200085b9b90082027800f482420009
:106eb40085024300154078002e039000be03900025
:106ec4000505200085b9b90082027800f4824200e9
:106ed40085024300954290000600200047502000a0
:106ee4008101780000417800854078002e009000f0
:106ef4009d040700ae0290003e03900004052000ac
:106f040084b2b900048242007803420004002000e5
:106f140045502000048bbe00ae0290003e0390005a
:106f24000405200084b2b9002406b00004824200a3
:106f340014027800e00f52000a003200ae02900002
:106f44003e0390000405200084b2b9002406b0007a
:106f54000482420014027800ae4090002e0090009b
:106f640004000100ae0290003e03900004052000de
:106f740084b2b90078024200048242001403be00c5
:106f84000400200045502000840f5300858f5b00cf
:106f940009003a003e0290000442780084407800e0
:106fa4002e009000e00107000300370000000000fd
:106fb40001003700000000000080fa000000060015
:106fc4000400fa00100798000042eb00044f780018
:106fd400040037009e4078001e009000d201070094
:106fe4001e4fe8001e427800e34f5200f9ff3600be
:106ff4000080fa00000006000c00fa004007980028
:10700400214f98002e4a90000483fb00ce0290008a
:107014000405200084b2b9000402b00004824200d6
:107024001402be00e00f5200e08f5a0010003a0034
:107034002e4a90000480fb002e4a90000483fb003b
:10704400ce0290000405200084b2b9004402b000ce
:10705400048242001402be00ce0390000605200004
:107064008683b900068343000602b000048bbe0089
:107074002e4a90000483fb00ce02900004052000f9
:1070840084b2b9000402b000048242001402be00bb
:1070940024079800350798002e4a90008482fb004c
:1070a4000405200084aab9008402b000ce02900036
:1070b400848042002e4a90000483fb00ce0290009c
:1070c4000405200084b2b9007e024200048242001a
:1070d400144078002e4a90000483fb00ce029000f6
:1070e4000405200084b2b9007c02420004824200fc
:1070f400940378006402470016c0b30015c0b300bf
:107104008101780000417800870078004e009000eb
:1071140098de0200000000000002be00048fbe00e2
:107124001e02be00e00f5200e08f5a00020032003f
:107134001e02be00010037006022b8000400be0039
:107144000080fa00000006000e00fa0050079800c4
:10715400414f9800040220000500200024079800f5
:10716400350798004e4a90008482fb0004052000f5
:1071740084aab9008402b000de02900004814200b7
:107184004e4a90000483fb00de02900004052000b8
:1071940084b2b9007e024200048242009440780026
:1071a4004e4a90000483fb00de0290000405200098
:1071b40084b2b9007c0242000482420014007800c8
:1071c400e80247006402470017c0b30016c0b300ca
:1071d4008201780001417800800078005e00900010
:1071e40006dd0200000000000002be00048fbe00a5
:1071f4001e02be00e00f5200e08f5a00020032006f
:107204001e02be00150037004e4a90000480fb00a9
:107214002e029000be029000de03900006052000be
:107224008683b900068343000602b000048bbe00c7
:107234004e4a90000483fb00de0290000405200007
:1072440084b2b900048242004602200004034300d1
:107254006022b800048bbe006022b8000400be00a7
:107264000080fa00000006001000fa0030079800c1
:10727400014f98005207980063079800740798001c
:107284000e4a90000483fb00be0290000405200017
:1072940084b2b9004402b000048242001403be0068
:1072a4005e029000ee0290000603420087834a00cb
:1072b4000402200005002000840f5300858f5b002a
:1072c4000200360000c2eb005a0037000e4a90005c
:1072d4000483fb00be0290000405200084b2b900c0
:1072e4004402b000048242001403be005e02900017
:1072f400ee0290000603420087834a000e4a900083
:107304000480fb00be029000040520008482b900c2
:107314000402b000048242001402be00840f530031
:10732400858f5b000200360000c2eb00410037008d
:107334000e4a90000483fb00be0290000405200066
:1073440084b2b9004402b000048242001403be00b7
:1073540016079800270798000042eb00044f7800b6
:10736400170037009e4378000782fb00fe0290005e
:10737400048042000e4a90008480fb001e42780084
:107384000483fb00070020001e029000ae02900060
:107394000602420087824a003e039000070520004f
:1073a4008789b90082037800048243008402b00014
:1073b4000402430014427800044878001e4fe80099
:1073c4001e4278000483fb00070020005e02900048
:1073d400ee029000840f5300858f5b00e1ff3900bb
:1073e4000e4a90000480fb000e4a90000483fb00c8
:1073f400be0290000405200084b2b9004402b0002b
:10740400048242001403be005e029000ee0290006b
:107414000602420087824a00be039000060520004f
:107424008683b900068343004602b000048bbe0085
:107434000042eb00044078000080fa0000000600df
:107444001000fa0030079800014f98005207980086
:1074540063079800740798000e4a90000483fb00a9
:10746400be0290000405200084b2b9004402b000ba
:10747400048242001403be005e029000ee029000fb
:107484000603420087834a0004022000050020000e
:10749400840f5300858f5b000200360000c2eb00ae
:1074a400410037000e4a90000483fb00be029000a6
:1074b4000405200084b2b9004402b00004824200f2
:1074c4001403be0016079800270798000042eb003b
:1074d400044f7800170037000e4a90008480fb00a8
:1074e4001e4278000483fb00070020001e02900067
:1074f400ae0290000602420087824a009e43780052
:107504000783fb00fe0390000683430016437800c4
:107514003e009000070520008789b90082037800a7
:1075240087034000048243008402b000064a7800c6
:107534001e4fe8001e4278000483fb000700200071
:107544005e029000ee029000840f5300858f5b0072
:10755400e1ff39000e4a90000480fb000e4a9000bf
:107564000483fb00be0290000405200084b2b9002d
:107574004402b000048242001403be005e02900084
:10758400ee0290000602420087824a00be03900089
:10759400060520008683b900068343004602b00036
:1075a400048bbe000042eb00044078000080fa0027
:1075b400000006000e00fa00881f780010079800eb
:1075c400414798005247980033079800044f9800a9
:1075d40056079800670798000e02e80084017800b7
:1075e4005e419000ce4090001e009000880107008c
:1075f40000427800044f78001e427800e04f5200a9
:1076040007003a005e429000e14f520004003a0045
:107614001e429000844078001e0090004200070043
:107624001e427800e04f52002b003a005e42900068
:10763400e24f520028003a001e4290000484fb00ee
:107644001e4290000483fb009e029000040520006b
:1076540084b2b9000406b000048242001402780027
:1076640004007800d6f50200000000000002780053
:107674001e0390000505200085c4b9008802780027
:10768400850243000506b000840a78001e4290007b
:107694000483fb009e0290000405200084b2b9001c
:1076a400048242007602420055c8b300054a7800bd
:1076b4001e4290000483fb009e02900004052000fb
:1076c40084b2b90004824200780242005e03900052
:1076d400ee039000068abe005e039000ee03900065
:1076e4000e4a9000be0190004e419000de40900092
:1076f4001e0090009c02070000427800044f7800ae
:107704001e427800e04f52000200320000c2eb003b
:10771400010037000042eb00044078004f04780079
:107724000080fa00000006000800fa002007980014
:10773400614798008042eb000042eb008001eb00bf
:107744000041eb00ee4090002e0090002b0007005b
:107754006022b800048fbe000e0037006e42900015
:107764000483fb00ae0290000405200084b2b9003b
:10777400048242001e0242008402b0008042eb00f8
:10778400054a780014002000050020001e0f420066
:107794005e974a001e03be00f4012000050020008d
:1077a400840f5300858f5b00ecff36006e4290001f
:1077b4000483fb00ae0290000405200084b2b900eb
:1077c40004824200740242008042eb001542980099
:1077d4006e4290000483fb00ae029000040520007a
:1077e40084b2b90004824200780342006022b800e7
:1077f400048bbe000080fa00000006000800fa00b6
:10780400881f7800000f78002147980032479800bd
:107814002307980064479800754798007e429000bb
:10782400e24f5200090032007e429000e34f5200c2
:10783400060032007e429000e44f52000300320002
:107844007e429000e54f520015003a002e4290000f
:107854000484fb002e4290000481fb0003002000fe
:107864006033b80004b1280005192000a16b23007f
:107874001e007800f6f40200000000000002780008
:107884001e0378000505200085c4b900880278002d
:10789400850243000506b000840a7800150037000d
:1078a4002e4290000484fb002e4290000483fb00cf
:1078b4009e0278000405200084b2b9000406b000da
:1078c400048242001402780004007800d6f5020015
:1078d40000000000000278001e0378000505200067
:1078e40085c4b90088027800850243000506b0000b
:1078f400840a78002e4290000483fb009e027800e4
:107904000405200084b2b9000482420074024200db
:10791400be429000054a78002e4290000483fb008a
:107924009e0278000405200084b2b900048242005b
:107934007c024200ae029000050a78002e429000bc
:107944000483fb009e0278000405200084b2b90081
:10795400048242007e024200ee429000054a780012
:107964002e4290000483fb009e0278000405200050
:1079740084b2b9000482420076024200fe429000c2
:10798400054a78002e4290000483fb009e02780092
:107994000405200084b2b900048242007602420049
:1079a4008042eb00154298002e4290000483fb00b5
:1079b4009e0278000405200084b2b90004824200cb
:1079c40006022000040343006022b800048bbe00ba
:1079d4002e4290000483fb009e02780004052000e0
:1079e40084b2b9000482420046022000040343002a
:1079f4006022b800048bbe002e4290000483fb007a
:107a04009e0278000405200084b2b900048242007a
:107a14008404b0008042eb00054a78002e429000b6
:107a24000483fb009e0278000405200084b2b900a0
:107a3400048242008404b0008042eb0015429800a6
:107a44002e4290000483fb009e027800040520006f
:107a540084b2b90004824200a404b0008042eb0066
:107a6400054a78002e4290000483fb009e027800b1
:107a74000405200084b2b90004824200c604200038
:107a8400040343006022b800048bbe002e42900021
:107a94000482fb009e0278000403e8000405200031
:107aa40084b2b900048242008042eb00054a7800a7
:107ab4002e4290000482fb009e0278000403e8003a
:107ac4000405200084b2b900048242008042eb0025
:107ad400154298002e4290000483fb009e02780019
:107ae4000405200084b2b900048242002405b000d9
:107af4008042eb00054a78002e4290000483fb008c
:107b04009e0278000405200084b2b9000482420079
:107b14004405b0008002eb00050a78002e42900074
:107b24000483fb009e0278000405200084b2b9009f
:107b340004824200e405b0008042eb00054a78006c
:107b44002e4290000483fb009e027800040520006e
:107b540084b2b900048242002406b0008002eb0023
:107b6400050a78000042eb00044078004f047800d6
:107b74000080fa00000006000800fa0010079800d0
:107b840041479800320798000042eb00044f780008
:107b9400180037001e4278000483fb009e02900008
:107ba4000405200084b2b900760242000482420037
:107bb40014427800e04f52000d003a003e0290005b
:107bc4001e4a78009e4278000583fb009e029000c6
:107bd4000405200084b2b900048242007402420009
:107be400ce429000154298000042eb000500370099
:107bf4001e4fe8001e427800e34f5200e5ff3600b6
:107c040000c2eb00044078000080fa000000060087
:107c14000800fa001007980041479800524798005e
:107c2400330798000042eb00044f7800330037001c
:107c34001e4278000483fb009e029000040520008d
:107c440084b2b900760242000482420014427800f1
:107c5400e04f5200280032001e4278000483fb00eb
:107c64009e0290000405200084b2b900760242000e
:107c7400048242009442780054c8b30084cf520076
:107c84001d0032001e4278000483fb009e02900017
:107c94000405200084b2b900740242000482420048
:107ca400944278004e42900084cf520012003a0071
:107cb4001e4278000483fb009e029000040520000d
:107cc40084b2b900740242000482420094429000db
:107cd4005e42900084cf520007003a003e029000ba
:107ce400e00f5200020032003e0290001e4a78006b
:107cf4000042eb00050037001e4fe8001e427800ea
:107d0400e34f5200caff360000c2eb000440780083
:107d14000080fa00000006000800fa00100798002e
:107d24004147980052479800330798000042eb00ff
:107d3400044f7800280037001e4278000483fb00bb
:107d44009e0290000405200084b2b900760242002d
:107d54000482420014427800e04f52001d003200b9
:107d64001e4278000483fb009e029000040520005c
:107d740084b2b90074024200048242009442780042
:107d84004e42900084cf520012003a001e42780006
:107d94000483fb009e0290000405200084b2b90015
:107da4007402420004824200944290005e429000b9
:107db40084cf520007003a003e029000e00f5200c8
:107dc400020032003e0290001e4a78000042eb009e
:107dd400050037001e4fe8001e427800e34f5200b2
:107de400d5ff360000c2eb00044078000080fa00a2
:107df400000006000800fa00200798006147980078
:107e040072479800ee4090002e009000b0140700d6
:107e140000427800044f78001e427800e34f42008d
:107e24000200360054c8b300120037000e82e80086
:107e3400840178007e4190009e4078002e009000de
:107e4400b5ff070000427800144798001e429000d6
:107e5400e04f52000200320000c2eb000500370080
:107e64002e429000844078002e0090002efe0700e1
:107e74000042eb00044078000080fa000000060095
:107e84000600fa00000f78002147980022079800a6
:107e94002e4290000483fb009e027800040520001b
:107ea40084b2b9000402b000048242001402be008d
:107eb400e00f5200e08f5a0004003a002e039000b5
:107ec4006022b800048bbe00140037002e429000dc
:107ed4000483fb009e0278000405200084b2b900ec
:107ee4000402b000048242001403be002e4290003b
:107ef4000480fb009e027800040520008482b900ff
:107f04004402b000048242001402be000402530082
:107f140085825b002e039000048bbe000042eb00c0
:107f2400044078000080fa00000006000800fa000f
:107f3400000f780021479800220798003307980023
:107f44002e039000be0390000402200005002000d0
:107f5400840f5300858f5b000200360000c2eb00e3
:107f64000b0037002e4290000483fb009e02780031
:107f74000405200084b2b900048242000402b00067
:107f84002e039000be039000068abe000042eb0060
:107f9400044078000080fa00000006001600fa0091
:107fa400000f98002157980032579800230f98002b
:107fb4000e0a9000242a9100e50f520007003200b7
:107fc4000e0a9000a42a9100f4072000848f520026
:107fd4000200320000c2eb00600037002e52900015
:107fe400e14f520021003a000e0a90005402900022
:107ff40094027800150798001e029000e00f5200ca
:10800400090032003e5290008482fb001e02900060
:10801400848242000e0a90006402900014027800e8
:10802400848f52000200360000c2eb004b00370080
:108034000e0a9000940290003e5290000483fb00cc
:108044001e02900004024300e622b90004824200aa
:108054001402780070024200340290001402be0040
:108064000402780024079800200037000e0a9000cc
:108074005402900014039000160798001e0290000a
:10808400e00f5200090032003e5290008482fb004f
:108094001e029000848242000e0a90006402900046
:1080a40014029000848f52000200360000c2eb00dc
:1080b4002a0037000e0a9000940290003e5290006d
:1080c4000483fb001e02900004024300e622b90070
:1080d40004824200140278006802420034029000d4
:1080e4001402be0004027800240798000042eb004a
:1080f4006447980084c0b300744798000042eb00c2
:10810400044f78000a0037009e4278000582fb0085
:108114001e4378008682fb002e0b900085024300ec
:10812400954278006802420005777a001e4fe80005
:108134001e427800e74f5200f3ff36000e0a90000b
:10814400040a9300e40247008500780004007800e4
:108154009aac02000000000000427800044078005d
:108164000080fa00000006001600fa00500798008c
:10817400414f9800524f9800730798000457980095
:10818400160f9800270f980004c8b30014479800ee
:108194007e02900004427800244798007e029000fa
:1081a4004822de0004427800344798000e529000c2
:1081b400444798001e0a90000442780054479800ef
:1081c4001e0a9000ae0a9000482bdd004822de0013
:1081d40004027300c82ade00044278006447980051
:1081e4001e0a9000ae0a9000402ade000442780085
:1081f400744798001e0a9000ae0a9000482ade00d8
:1082040004427800044f98000e02e80084017800cc
:108214005e499000ce4890005e0090005fff07002a
:1082240000427800044f78001e4278000440780031
:108234000080fa00000006003400fa00881f78006d
:10824400001f9800111f98000042eb00244798007b
:1082540034c0b300444798000002eb00240f980098
:1082640034c0b300444798000e1a900054029000a2
:1082740014017800020f98000e1a90006402900016
:1082840094027800350f98000042eb00644f980088
:108294000e0a9000e00f52002b0032002600370037
:1082a4000e1a9000940290000e0a9000e622b90083
:1082b4000482420024429000e14f520002003e003a
:1082c40000c2eb007e1337000e1a90009402900057
:1082d4000e0a9000e622b9000482420014027800db
:1082e4006802420034029000240f98002e0a900085
:1082f4001403be001e1a900014027800050020002a
:10830400840f5300858f5b0005003a0014c0b3004e
:10831400444798006e4b9000364798000a00370097
:108324006e4a90000442e800644f98000e0a9000e0
:108334000402e800040f98008e0a90003e0a9000a0
:10834400848f5200d6ff36004e429000e34f520015
:1083540042003a000e1a90005402900094039000d8
:10836400070f98000e1a9000640290001401900008
:10837400320f98000042eb00644f98000e0a900000
:10838400e00f520035003200300037000e1a900022
:10839400940290000e0a9000e622b9000482420082
:1083a40024429000e34f520002003e0000c2eb0062
:1083b400431337000e1a9000940290000e0a9000a6
:1083c400e622b900048242001402780070024200de
:1083d40034029000240f98002e0a90001403be006b
:1083e4001e1a90001402780005002000840f530028
:1083f400858f5b000f003a0024c0b3004447980007
:108404006e4a9000344798000e1a9000940290002f
:108414000e0a9000e622b900048242001402780099
:108424007802420034029000944278002547980074
:108434000a0037006e4a90000442e800644f980036
:108444000e0a90000402e800040f98008e0a9000bf
:108454003e0a9000848f5200ccff36004e429000ba
:10846400e34f520002003a0000c2eb00141337003d
:108474001e1a900034429000e84f52000a00320065
:1084840006002000078020000042eb008001eb0082
:108494004e419000be4090000e18900045fc07002d
:1084a40000c2eb0006133700340220000e02420023
:1084b400840178004e419000be4090000e18900058
:1084c400d3fd070000427800044f780000c2eb009f
:1084d400144798001e427800e04f520024003a00ee
:1084e4004e429000e14f52000a003a003e62900072
:1084f4000483fb008e1a90000405200084b2b900a6
:10850400760242000482420014427800e44f520092
:108514000d0032004e429000e24f520014003a0027
:108524003e6290000483fb008e1a90000405200034
:1085340084b2b900760242000482420014427800f8
:10854400e54f52000a003a001e1a9000c4429000ff
:1085540004c8b30084cf520003003a0044c0b300ff
:10856400144798000200370064c0b3001447980011
:108574001e429000e14f420005003a001e1a90008e
:10858400444290000482fb004522de001447980018
:108594001e4290000482fb00cfa2de006600200091
:1085a40007002000860f5200878f5a00aa123e004f
:1085b400040601000600370046023700960437001f
:1085c40097063700d10837003c093700940d37006f
:1085d4004e429000e14f520013013a001e427800cf
:1085e400e04f520010003a003e6290000483fb000a
:1085f4008e1a90000405200084b2b900760242006d
:108604000482420014427800044378000614a20055
:10861400064f78009e4378000782fb000402ea00bc
:108624004f22de00044f78001e427800e04f5200d3
:108634000a00320016022000078020000042eb00ee
:108644008001eb004e419000be4090000e18900057
:10865400d8fb070000c2eb00991237003e6290007d
:108664000483fb008e1a90000405200084b2b90034
:108674000406b0000482420014027800e10f4200b4
:10868400290032003e6290000484fb003e629000a8
:108694000483fb008e1a90000405200084b2b90004
:1086a4000406b0000482420014027800040078003a
:1086b400d6f5020000000000000278000e1b9000b6
:1086c4000505200085c4b9008802780085024300ae
:1086d4000506b000840a78003e6290000484fb0022
:1086e4003e6290000481fb00030020006033b80068
:1086f40004b1280005192000a16b23000e18900076
:10870400f6f4020000000000000278000e1b900046
:108714000505200085c4b90088027800850243005d
:108724000506b000840a78003e6290000483fb00d2
:108734008e1a90000405200084b2b9007c02420025
:108744000482420014017800320798003e629000cf
:108754000483fb008e1a90000405200084b2b90043
:108764007e0242000482420094427800054f980041
:108774003e6290000483fb008e1a900004052000e2
:1087840084b2b9007602420004824200144290008e
:108794008482fb001e1a9000444290000482fb0075
:1087a4004422de00044278000482fb00610262007d
:1087b400848f52000a003200060020003750200047
:1087c4000e4a9000be0190004e419000be409000c1
:1087d4000e18900077fb070000c2eb003812370038
:1087e4001e1a9000444290000482fb000402d1004f
:1087f400044278000482fb000482ea006123b90089
:1088040074002000050020000600780007037800ab
:108814008403780005027800070060000402630006
:1088240005002000c022dd00040020000403be0077
:108834006102b8000403730085837300261798004f
:10884400371798001e1a9000650242002e139000fc
:10885400be139000be6290000601be008540780001
:108864000e189000f6fa070000427800044f7800d2
:108874001e427800e04f52000a0032000600200039
:10888400078020000e4a9000be0190004e419000e7
:10889400be4090000e18900046fb070000c2eb009b
:1088a400071237003e6290000483fb008e1a90008a
:1088b4000405200084b2b90076024200048242001a
:1088c400144290000482fb004422dd0084427800bc
:1088d40004c2b30004c27200046f980014002000a4
:1088e4000500200054079800650798000a00370027
:1088f4005e0290008402b0008042eb0005777a00ab
:108904005e029000ee02900061024200e0824a00a2
:1089140054079800650798005e039000ee039000ea
:108924007400200005002000840f5300858f5b0035
:10893400efff3600840220000e024200840178001a
:108944003e419000ce4090000e18900093fd070029
:108954003e6290008483fb003e6290000483fb002f
:108964008e1a90000405200084b2b90076024200f9
:1089740004824200144290000482fb000402e900d5
:108984004f22de00844278000e1b90000405200074
:1089940084bab900040243007602420015429800ea
:1089a4001e1a9000444290000482fb00610262009f
:1089b40004427800e04f5200a91132003e62900058
:1089c400844078000e1890008bf907000002be0066
:1089d400440f9800550f98004e0a9000de0a90004c
:1089e400e00f5200e08f5a000a0032004e0b900054
:1089f400de0b90000e4a9000be0190004e419000a4
:108a0400be4090000e189000eafa070000c2eb0086
:108a1400ab1137003e629000844078000e1890003d
:108a240041fb0700a51137001e427800e04f5200b9
:108a34000e003a003e6290000483fb008e1a900000
:108a44000405200084b2b900760242000482420088
:108a540014427800634f6a001e4378000682fb00cc
:108a64000402ea004f22de00044f78001e42780020
:108a7400e04f52000a003200160220000780200056
:108a84000042eb008001eb004e419000be4090009c
:108a94000e189000c7fa070000c2eb0088113700d7
:108aa4003e6290000483fb008e1a900004052000af
:108ab40084b2b9000406b0000482420014027800b3
:108ac400e10f4200290032003e6290000484fb0062
:108ad4003e6290000483fb008e1a9000040520007f
:108ae40084b2b9000406b000048242001402780083
:108af40004007800d6f502000000000000027800af
:108b04000e1b90000505200085c4b900880278007a
:108b1400850243000506b000840a78003e62900096
:108b24000484fb003e6290000481fb0003002000eb
:108b34006033b80004b1280005192000a16b23009c
:108b44000e189000f6f40200000000000002780005
:108b54000e1b90000505200085c4b900880278002a
:108b6400850243000506b000840a78003e62900046
:108b74000483fb008e1a90000405200084b2b9001f
:108b84007c02420004824200940378003707980074
:108b94003e6290000483fb008e1a900004052000be
:108ba40084b2b9007e02420004824200144178007b
:108bb400024f98003e6290000483fb008e1a9000de
:108bc4000405200084b2b900760242000482420007
:108bd400144290008482fb001e1a900044429000cc
:108be4000482fb004422de00044278000482fb007d
:108bf40061026200848f52000a00320006002000e5
:108c0400375020000e4a9000be0190004e41900063
:108c1400be4090000e18900066fa070000c2eb00f8
:108c2400271137001e1a9000444290000482fb0072
:108c34000402d100044278000482fb000482ea00aa
:108c44006123b900740020000500200006007800ac
:108c540007037800840378000502780007006000a9
:108c64000402630005002000c022dd00040020008f
:108c74000403be006102b80004037300858373001b
:108c840026179800371798001e1a900065024200b4
:108c94002e139000be139000be6290000601be0029
:108ca400854078000e189000e5f90700004278002e
:108cb400044f78001e427800e04f52000a00320050
:108cc40006002000078020000e4a9000be0190009c
:108cd4004e419000be4090000e18900035fa0700f7
:108ce40000c2eb00f61037003e6290008483fb0064
:108cf4003e6290000483fb008e1a9000040520005d
:108d040084b2b90076024200048242001442900008
:108d14000482fb000402e9004f22de008442780052
:108d24000e1b90000405200084bab900040243001d
:108d340076024200154298001e1a900044429000a8
:108d44000482fb006102620004427800e04f52009a
:108d5400340032003e6290000484fb003e629000c6
:108d64000483fb008e1a90000405200084b2b9002d
:108d74000406b00004824200140278000400780063
:108d8400d6f5020000000000000278000e1b9000df
:108d94000505200085c4b9008802780085024300d7
:108da4000506b000840a78003e6290000483fb004c
:108db4008e1a90000405200084b2b9000482420097
:108dc4007602420015c0b300054a78003e62900066
:108dd4000483fb008e1a90000405200084b2b900bd
:108de4002406b0000482420014027800e00f52000e
:108df4009d1032003e6290000483fb008e1a9000a6
:108e04000405200084b2b9002406b00004824200a4
:108e140014027800ae4090000e1890000400010087
:108e2400a61037003e6290000483fb008e1a900067
:108e34000405200084b2b900760242000482420094
:108e4400144290000482fb004422dd008442780036
:108e540004c6b30004c27200046f9800140020001a
:108e64000500200054079800650798000a003700a1
:108e74005e0290008402b0008042eb0005777a0025
:108e84005e029000ee02900061024200e0824a001d
:108e940054079800650798005e039000ee03900065
:108ea4007400200005002000840f5300858f5b00b0
:108eb400efff3600840220000e0242008401780095
:108ec4003e419000ce4090000e18900033fc070005
:108ed4007a1037004e429000e14f5200ee003a0003
:108ee4001e1a9000644290000482fb00c822dd0038
:108ef4001e1a9000544290000482fb000502720086
:108f0400340798001e1a9000f4429000054f980010
:108f14001e427800e04f52000a003a001602200078
:108f2400078020000e4a9000be0190004e41900040
:108f3400be4090000e1890009ef9070000c2eb009e
:108f44005f103700340220000e0242000401780052
:108f5400ce4090000e18900007fb070000427800f6
:108f6400044f78001e427800e04f52000a0032009d
:108f740016022000078020000e4a9000be019000d7
:108f84004e419000be4090000e18900089f90700f1
:108f940000c2eb004a1037003e63900025c0b300c6
:108fa4000e4a9000be0190003e4190008640780039
:108fb4000e18900011fa07001e1a90004442900007
:108fc4000482fb000402d100044278000482fb0006
:108fd4006102620004427800e04f5200480032000f
:108fe4001e1a9000444290000482fb004222de00dc
:108ff400044278000482fb006302620064021200ef
:10900400cfa2de0024179800351798003e62900026
:109014000480fb002e129000be1290008e1b900064
:10902400060520008683b900068343000602b000cb
:10903400048bbe001e1a9000680242002e1390009a
:10904400be139000be6290000601be008540780009
:109054000e189000faf8070000427800044f7800d8
:109064001e427800e04f52000a0032000600200041
:10907400078020000e4a9000be0190004e419000ef
:10908400be4090000e1890004af9070000c2eb00a1
:109094000b1037003e629000844078000e18900058
:1090a400d5f707000002be00440f9800550f980042
:1090b4004e0a9000de0a9000e00f5200e08f5a0042
:1090c4000a0032004e0b9000de0b90000e4a900016
:1090d400be0190004e419000be4090000e189000da
:1090e40034f9070000c2eb00f50f37003e62900030
:1090f400844078000e1890008bf907003d0037007b
:109104001e1a9000444290000482fb006102620037
:1091140004427800e04f5200360032001e1a9000dc
:10912400044a90000483fb00070020001e1a9000ec
:10913400144a90000480fb0001002000480add006e
:10914400c802de00850272004802dd000603420008
:1091540087834a001e1a9000244a90000482fb0070
:1091640005002000c022dd000400200006034200a8
:1091740087834a001e1a9000344a90000482fb0040
:1091840005002000c822dd00040020000602420081
:1091940087824a0024179800351798002e129000f1
:1091a400be1290003e6390000401be008640780029
:1091b4000e1890005dfb070000427800044f780011
:1091c4001e427800e04f52000a00320006002000e0
:1091d400078020000e4a9000be0190004e4190008e
:1091e400be4090000e189000f2f8070000c2eb0099
:1091f400b30f370004c6b300046f98003e0290001a
:1092040004427800146f98003e0290004822de0069
:1092140004427800246f98000e4b9000366f98003b
:1092240044002000050020005407980065079800ba
:109234000a0037005e0290008402b0008042eb0016
:1092440005777a005e029000ee029000610242000f
:10925400e0824a0054079800650798005e03900076
:10926400ee0390007400200005002000840f5300da
:10927400858f5b00efff3600840220000e0242005f
:10928400840178003e419000ce4090000e1890007a
:1092940042fb0700890f37001e427800e04f52005e
:1092a40010003a003e6290000483fb008e1a900086
:1092b4000405200084b2b900760242000482420010
:1092c40014427800844378000714a200074f780002
:1092d4001e4178000282fb000402ea004f22de00f5
:1092e400044f78001e427800e04f52000a0032001a
:1092f40016022000078020000042eb008001eb00f2
:109304004e419000be4090000e189000a9f807004e
:1093140000c2eb006a0f37003e6290000483fb003a
:109324008e1a90000405200084b2b9000406b0002f
:109334000482420014027800e10f42002900320046
:109344003e6290000484fb003e6290000483fb00b4
:109354008e1a90000405200084b2b9000406b000ff
:10936400048242001402780004007800d6f502005a
:1093740000000000000278000e1b9000050520008c
:1093840085c4b90088027800850243000506b00050
:10939400840a78003e6290000484fb003e629000e0
:1093a4000481fb00030020006033b80004b12800ee
:1093b40005192000a16b23000e189000f6f402009a
:1093c40000000000000278000e1b9000050520003c
:1093d40085c4b90088027800850243000506b00000
:1093e400840a78003e6290000483fb008e1a900089
:1093f4000405200084b2b9007c02420004824200c9
:1094040094027800350798003e6290000483fb00c4
:109414008e1a90000405200084b2b9007e02420036
:109424000482420014437800064f98003e62900084
:109434000483fb008e1a90000405200084b2b90056
:109444007602420004824200144290008482fb00af
:109454001e1a9000444290000482fb004422de0065
:10946400044278000482fb0061026200848f52008f
:109474000a00320006002000375020000e4a9000f7
:10948400be0190004e419000be4090000e18900026
:1094940048f8070000c2eb00090f37003e62900055
:1094a400450220008e824200050178008440780045
:1094b4000e18900072fa07002e129000be1290004f
:1094c400e00f5200e08f5a0035003a003e629000ef
:1094d4000484fb003e6290000483fb008e1a90001b
:1094e4000405200084b2b9000406b00004824200de
:1094f4001402780004007800d6f502000000000091
:10950400000278000e1b90000505200085c4b900f8
:1095140088027800850243000506b000840a7800ba
:109524003e6290000483fb008e1a90000405200024
:1095340084b2b900048242007602420015c0b3002e
:10954400054a78003e6290000483fb008e1a900066
:109554000405200084b2b9002406b000048242004d
:1095640014027800e00f52000b0032003e629000bb
:109574000483fb008e1a90000405200084b2b90015
:109584002406b0000482420014027800ae40900029
:109594000e189000040001000042eb00c80e3700d2
:1095a4002e139000be1390007400200005002000cc
:1095b400840f5300858f5b00370036003e629000b5
:1095c4008483fb003e6290000483fb008e1a9000ab
:1095d4000405200084b2b9007602420004824200ed
:1095e400144290000482fb000402e9004f22de00d2
:1095f400844278000e1b90000405200084bab90050
:109604000402430076024200154298003e62900034
:109614000483fb008e1a90000405200084b2b90074
:1096240076024200048242009442900044002000ea
:10963400042add00046f9800be62900084022000ba
:109644000e0242000402e800720020000300200021
:10965400854078000e18900003f707000042780058
:10966400044f78001e427800e04f5200620032003e
:1096740006002000078020000e4a9000be019000e2
:109684004e419000be4090000e189000c9f70700ac
:1096940000c2eb008a0e37003e6290008483fb0018
:1096a4003e6290000483fb008e1a900004052000a3
:1096b40084b2b9007602420004824200144290004f
:1096c4000482fb000402e9004f22de008442780099
:1096d4000e1b90000405200084bab9000402430064
:1096e40076024200154298003e6290000483fb001b
:1096f4008e1a90000405200084b2b900760242005c
:10970400048242009442900044002000042bdd00b7
:109714002e129000be1290000442780075c0b3006f
:1097240004c2520004424200044273000404a00034
:10973400046f98002e139000be139000be62900038
:10974400840220000e0242000402e8000601be006a
:10975400854078000e189000c3f607000042780098
:10976400044f78001e427800e04f52000a00320095
:1097740006002000078020000e4a9000be019000e1
:109784004e419000be4090000e18900089f70700eb
:1097940000c2eb004a0e37002e129000be12900059
:1097a40061024200e0824a0054079800650798006d
:1097b4000a0037005e0290008402b0008042eb0091
:1097c40005777a005e029000ee029000610242008a
:1097d400e0824a0054079800650798005e039000f1
:1097e400ee0390007400200005002000840f530055
:1097f400858f5b00efff3600840220000e024200da
:10980400840178003e419000ce4090000e189000f4
:10981400e2f90700290e37004e429000e14f520052
:10982400d3003a001e1a9000644290000482fb00a8
:10983400c822dd001e1a9000544290000482fb00ee
:1098440005027200340798001e1a9000f443900039
